{
  "_format": "hh-sol-artifact-1",
  "contractName": "Gether",
  "sourceName": "contracts/Gether.sol",
  "abi": [
    {
      "inputs": [
        {
          "internalType": "address",
          "name": "_tokenAdd",
          "type": "address"
        }
      ],
      "stateMutability": "nonpayable",
      "type": "constructor"
    },
    {
      "anonymous": false,
      "inputs": [
        {
          "indexed": true,
          "internalType": "address",
          "name": "account",
          "type": "address"
        },
        {
          "indexed": true,
          "internalType": "address",
          "name": "operator",
          "type": "address"
        },
        {
          "indexed": false,
          "internalType": "bool",
          "name": "approved",
          "type": "bool"
        }
      ],
      "name": "ApprovalForAll",
      "type": "event"
    },
    {
      "anonymous": false,
      "inputs": [
        {
          "indexed": true,
          "internalType": "address",
          "name": "previousOwner",
          "type": "address"
        },
        {
          "indexed": true,
          "internalType": "address",
          "name": "newOwner",
          "type": "address"
        }
      ],
      "name": "OwnershipTransferred",
      "type": "event"
    },
    {
      "anonymous": false,
      "inputs": [
        {
          "indexed": false,
          "internalType": "address",
          "name": "account",
          "type": "address"
        }
      ],
      "name": "Paused",
      "type": "event"
    },
    {
      "anonymous": false,
      "inputs": [
        {
          "indexed": true,
          "internalType": "address",
          "name": "operator",
          "type": "address"
        },
        {
          "indexed": true,
          "internalType": "address",
          "name": "from",
          "type": "address"
        },
        {
          "indexed": true,
          "internalType": "address",
          "name": "to",
          "type": "address"
        },
        {
          "indexed": false,
          "internalType": "uint256[]",
          "name": "ids",
          "type": "uint256[]"
        },
        {
          "indexed": false,
          "internalType": "uint256[]",
          "name": "values",
          "type": "uint256[]"
        }
      ],
      "name": "TransferBatch",
      "type": "event"
    },
    {
      "anonymous": false,
      "inputs": [
        {
          "indexed": true,
          "internalType": "address",
          "name": "operator",
          "type": "address"
        },
        {
          "indexed": true,
          "internalType": "address",
          "name": "from",
          "type": "address"
        },
        {
          "indexed": true,
          "internalType": "address",
          "name": "to",
          "type": "address"
        },
        {
          "indexed": false,
          "internalType": "uint256",
          "name": "id",
          "type": "uint256"
        },
        {
          "indexed": false,
          "internalType": "uint256",
          "name": "value",
          "type": "uint256"
        }
      ],
      "name": "TransferSingle",
      "type": "event"
    },
    {
      "anonymous": false,
      "inputs": [
        {
          "indexed": false,
          "internalType": "string",
          "name": "value",
          "type": "string"
        },
        {
          "indexed": true,
          "internalType": "uint256",
          "name": "id",
          "type": "uint256"
        }
      ],
      "name": "URI",
      "type": "event"
    },
    {
      "anonymous": false,
      "inputs": [
        {
          "indexed": false,
          "internalType": "address",
          "name": "account",
          "type": "address"
        }
      ],
      "name": "Unpaused",
      "type": "event"
    },
    {
      "inputs": [
        {
          "internalType": "address",
          "name": "account",
          "type": "address"
        },
        {
          "internalType": "uint256",
          "name": "id",
          "type": "uint256"
        }
      ],
      "name": "balanceOf",
      "outputs": [
        {
          "internalType": "uint256",
          "name": "",
          "type": "uint256"
        }
      ],
      "stateMutability": "view",
      "type": "function"
    },
    {
      "inputs": [
        {
          "internalType": "address[]",
          "name": "accounts",
          "type": "address[]"
        },
        {
          "internalType": "uint256[]",
          "name": "ids",
          "type": "uint256[]"
        }
      ],
      "name": "balanceOfBatch",
      "outputs": [
        {
          "internalType": "uint256[]",
          "name": "",
          "type": "uint256[]"
        }
      ],
      "stateMutability": "view",
      "type": "function"
    },
    {
      "inputs": [
        {
          "internalType": "address",
          "name": "account",
          "type": "address"
        },
        {
          "internalType": "uint256",
          "name": "id",
          "type": "uint256"
        },
        {
          "internalType": "uint256",
          "name": "value",
          "type": "uint256"
        }
      ],
      "name": "burn",
      "outputs": [],
      "stateMutability": "nonpayable",
      "type": "function"
    },
    {
      "inputs": [
        {
          "internalType": "uint256",
          "name": "id",
          "type": "uint256"
        },
        {
          "internalType": "uint256",
          "name": "amount",
          "type": "uint256"
        }
      ],
      "name": "burnAndWithdraw",
      "outputs": [],
      "stateMutability": "nonpayable",
      "type": "function"
    },
    {
      "inputs": [
        {
          "internalType": "address",
          "name": "account",
          "type": "address"
        },
        {
          "internalType": "uint256[]",
          "name": "ids",
          "type": "uint256[]"
        },
        {
          "internalType": "uint256[]",
          "name": "values",
          "type": "uint256[]"
        }
      ],
      "name": "burnBatch",
      "outputs": [],
      "stateMutability": "nonpayable",
      "type": "function"
    },
    {
      "inputs": [
        {
          "internalType": "uint256",
          "name": "amount",
          "type": "uint256"
        }
      ],
      "name": "deposit",
      "outputs": [],
      "stateMutability": "nonpayable",
      "type": "function"
    },
    {
      "inputs": [
        {
          "internalType": "uint256",
          "name": "id",
          "type": "uint256"
        }
      ],
      "name": "exists",
      "outputs": [
        {
          "internalType": "bool",
          "name": "",
          "type": "bool"
        }
      ],
      "stateMutability": "view",
      "type": "function"
    },
    {
      "inputs": [],
      "name": "getTokenAddress",
      "outputs": [
        {
          "internalType": "address",
          "name": "_tokenAdd",
          "type": "address"
        }
      ],
      "stateMutability": "view",
      "type": "function"
    },
    {
      "inputs": [
        {
          "internalType": "address",
          "name": "account",
          "type": "address"
        },
        {
          "internalType": "address",
          "name": "operator",
          "type": "address"
        }
      ],
      "name": "isApprovedForAll",
      "outputs": [
        {
          "internalType": "bool",
          "name": "",
          "type": "bool"
        }
      ],
      "stateMutability": "view",
      "type": "function"
    },
    {
      "inputs": [
        {
          "internalType": "address",
          "name": "account",
          "type": "address"
        },
        {
          "internalType": "uint256",
          "name": "id",
          "type": "uint256"
        },
        {
          "internalType": "uint256",
          "name": "amount",
          "type": "uint256"
        },
        {
          "internalType": "bytes",
          "name": "data",
          "type": "bytes"
        }
      ],
      "name": "mint",
      "outputs": [],
      "stateMutability": "nonpayable",
      "type": "function"
    },
    {
      "inputs": [
        {
          "internalType": "address",
          "name": "to",
          "type": "address"
        },
        {
          "internalType": "uint256[]",
          "name": "ids",
          "type": "uint256[]"
        },
        {
          "internalType": "uint256[]",
          "name": "amounts",
          "type": "uint256[]"
        },
        {
          "internalType": "bytes",
          "name": "data",
          "type": "bytes"
        }
      ],
      "name": "mintBatch",
      "outputs": [],
      "stateMutability": "nonpayable",
      "type": "function"
    },
    {
      "inputs": [
        {
          "internalType": "address",
          "name": "_recipient",
          "type": "address"
        },
        {
          "internalType": "uint256",
          "name": "amount",
          "type": "uint256"
        },
        {
          "internalType": "bytes",
          "name": "data",
          "type": "bytes"
        }
      ],
      "name": "mintIncremental",
      "outputs": [],
      "stateMutability": "nonpayable",
      "type": "function"
    },
    {
      "inputs": [],
      "name": "owner",
      "outputs": [
        {
          "internalType": "address",
          "name": "",
          "type": "address"
        }
      ],
      "stateMutability": "view",
      "type": "function"
    },
    {
      "inputs": [],
      "name": "pause",
      "outputs": [],
      "stateMutability": "nonpayable",
      "type": "function"
    },
    {
      "inputs": [],
      "name": "paused",
      "outputs": [
        {
          "internalType": "bool",
          "name": "",
          "type": "bool"
        }
      ],
      "stateMutability": "view",
      "type": "function"
    },
    {
      "inputs": [],
      "name": "renounceOwnership",
      "outputs": [],
      "stateMutability": "nonpayable",
      "type": "function"
    },
    {
      "inputs": [
        {
          "internalType": "address",
          "name": "from",
          "type": "address"
        },
        {
          "internalType": "address",
          "name": "to",
          "type": "address"
        },
        {
          "internalType": "uint256[]",
          "name": "ids",
          "type": "uint256[]"
        },
        {
          "internalType": "uint256[]",
          "name": "amounts",
          "type": "uint256[]"
        },
        {
          "internalType": "bytes",
          "name": "data",
          "type": "bytes"
        }
      ],
      "name": "safeBatchTransferFrom",
      "outputs": [],
      "stateMutability": "nonpayable",
      "type": "function"
    },
    {
      "inputs": [
        {
          "internalType": "address",
          "name": "from",
          "type": "address"
        },
        {
          "internalType": "address",
          "name": "to",
          "type": "address"
        },
        {
          "internalType": "uint256",
          "name": "id",
          "type": "uint256"
        },
        {
          "internalType": "uint256",
          "name": "amount",
          "type": "uint256"
        },
        {
          "internalType": "bytes",
          "name": "data",
          "type": "bytes"
        }
      ],
      "name": "safeTransferFrom",
      "outputs": [],
      "stateMutability": "nonpayable",
      "type": "function"
    },
    {
      "inputs": [
        {
          "internalType": "address",
          "name": "operator",
          "type": "address"
        },
        {
          "internalType": "bool",
          "name": "approved",
          "type": "bool"
        }
      ],
      "name": "setApprovalForAll",
      "outputs": [],
      "stateMutability": "nonpayable",
      "type": "function"
    },
    {
      "inputs": [
        {
          "internalType": "address",
          "name": "_tokenAdd",
          "type": "address"
        }
      ],
      "name": "setTokenAddress",
      "outputs": [],
      "stateMutability": "nonpayable",
      "type": "function"
    },
    {
      "inputs": [
        {
          "internalType": "string",
          "name": "newuri",
          "type": "string"
        }
      ],
      "name": "setURI",
      "outputs": [],
      "stateMutability": "nonpayable",
      "type": "function"
    },
    {
      "inputs": [
        {
          "internalType": "bytes4",
          "name": "interfaceId",
          "type": "bytes4"
        }
      ],
      "name": "supportsInterface",
      "outputs": [
        {
          "internalType": "bool",
          "name": "",
          "type": "bool"
        }
      ],
      "stateMutability": "view",
      "type": "function"
    },
    {
      "inputs": [
        {
          "internalType": "uint256",
          "name": "id",
          "type": "uint256"
        }
      ],
      "name": "totalSupply",
      "outputs": [
        {
          "internalType": "uint256",
          "name": "",
          "type": "uint256"
        }
      ],
      "stateMutability": "view",
      "type": "function"
    },
    {
      "inputs": [
        {
          "internalType": "address",
          "name": "newOwner",
          "type": "address"
        }
      ],
      "name": "transferOwnership",
      "outputs": [],
      "stateMutability": "nonpayable",
      "type": "function"
    },
    {
      "inputs": [],
      "name": "unpause",
      "outputs": [],
      "stateMutability": "nonpayable",
      "type": "function"
    },
    {
      "inputs": [
        {
          "internalType": "uint256",
          "name": "",
          "type": "uint256"
        }
      ],
      "name": "uri",
      "outputs": [
        {
          "internalType": "string",
          "name": "",
          "type": "string"
        }
      ],
      "stateMutability": "view",
      "type": "function"
    },
    {
      "inputs": [
        {
          "internalType": "address payable",
          "name": "_to",
          "type": "address"
        },
        {
          "internalType": "uint256",
          "name": "_value",
          "type": "uint256"
        }
      ],
      "name": "withdraw",
      "outputs": [],
      "stateMutability": "nonpayable",
      "type": "function"
    }
  ],
  "bytecode": "0x60806040523480156200001157600080fd5b5060405162004e6d38038062004e6d83398181016040528101906200003791906200028d565b604051806020016040528060008152506200005881620000dc60201b60201c565b50620000796200006d620000f860201b60201c565b6200010060201b60201c565b6000600360146101000a81548160ff02191690831515021790555080600560006101000a81548173ffffffffffffffffffffffffffffffffffffffff021916908373ffffffffffffffffffffffffffffffffffffffff160217905550506200036c565b8060029080519060200190620000f4929190620001c6565b5050565b600033905090565b6000600360009054906101000a900473ffffffffffffffffffffffffffffffffffffffff16905081600360006101000a81548173ffffffffffffffffffffffffffffffffffffffff021916908373ffffffffffffffffffffffffffffffffffffffff1602179055508173ffffffffffffffffffffffffffffffffffffffff168173ffffffffffffffffffffffffffffffffffffffff167f8be0079c531659141344cd1fd0a4f28419497f9722a3daafe3b4186f6b6457e060405160405180910390a35050565b828054620001d490620002ed565b90600052602060002090601f016020900481019282620001f8576000855562000244565b82601f106200021357805160ff191683800117855562000244565b8280016001018555821562000244579182015b828111156200024357825182559160200191906001019062000226565b5b50905062000253919062000257565b5090565b5b808211156200027257600081600090555060010162000258565b5090565b600081519050620002878162000352565b92915050565b600060208284031215620002a057600080fd5b6000620002b08482850162000276565b91505092915050565b6000620002c682620002cd565b9050919050565b600073ffffffffffffffffffffffffffffffffffffffff82169050919050565b600060028204905060018216806200030657607f821691505b602082108114156200031d576200031c62000323565b5b50919050565b7f4e487b7100000000000000000000000000000000000000000000000000000000600052602260045260246000fd5b6200035d81620002b9565b81146200036957600080fd5b50565b614af1806200037c6000396000f3fe608060405234801561001057600080fd5b50600436106101a85760003560e01c80636b20c454116100f9578063b6b55f2511610097578063f242432a11610071578063f242432a1461048d578063f2fde38b146104a9578063f3fef3a3146104c5578063f5298aca146104e1576101a8565b8063b6b55f2514610411578063bd85b0391461042d578063e985e9c51461045d576101a8565b80638456cb59116100d35780638456cb59146103b15780638da5cb5b146103bb578063a22cb465146103d9578063b6571caf146103f5576101a8565b80636b20c4541461036f578063715018a61461038b578063731133e914610395576101a8565b806326a4e8d2116101665780633f4ba83a116101405780633f4ba83a146102e75780634e1273f4146102f15780634f558e79146103215780635c975abb14610351576101a8565b806326a4e8d2146102935780632eb2c2d6146102af5780633bb60495146102cb576101a8565b8062fdd58e146101ad57806301ffc9a7146101dd57806302fe53051461020d5780630e89341c1461022957806310fe9ae8146102595780631f7fdffa14610277575b600080fd5b6101c760048036038101906101c291906134b9565b6104fd565b6040516101d49190613fb2565b60405180910390f35b6101f760048036038101906101f291906136bb565b6105c6565b6040516102049190613d15565b60405180910390f35b6102276004803603810190610222919061370d565b6106a8565b005b610243600480360381019061023e919061374e565b610730565b6040516102509190613d30565b60405180910390f35b6102616107c4565b60405161026e9190613b7f565b60405180910390f35b610291600480360381019061028c91906133d2565b6107ee565b005b6102ad60048036038101906102a89190613164565b61087c565b005b6102c960048036038101906102c49190613205565b61093c565b005b6102e560048036038101906102e09190613777565b6109dd565b005b6102ef6109f6565b005b61030b60048036038101906103069190613626565b610a7c565b6040516103189190613cbc565b60405180910390f35b61033b6004803603810190610336919061374e565b610c2d565b6040516103489190613d15565b60405180910390f35b610359610c41565b6040516103669190613d15565b60405180910390f35b61038960048036038101906103849190613353565b610c58565b005b610393610cf5565b005b6103af60048036038101906103aa91906135ab565b610d7d565b005b6103b9610d98565b005b6103c3610e1e565b6040516103d09190613b7f565b60405180910390f35b6103f360048036038101906103ee919061347d565b610e48565b005b61040f600480360381019061040a91906134f5565b610e5e565b005b61042b6004803603810190610426919061374e565b610e91565b005b6104476004803603810190610442919061374e565b610f8d565b6040516104549190613fb2565b60405180910390f35b610477600480360381019061047291906131c9565b610faa565b6040516104849190613d15565b60405180910390f35b6104a760048036038101906104a291906132c4565b61103e565b005b6104c360048036038101906104be9190613164565b6110df565b005b6104df60048036038101906104da919061318d565b6111d7565b005b6104fb60048036038101906104f6919061355c565b611261565b005b60008073ffffffffffffffffffffffffffffffffffffffff168373ffffffffffffffffffffffffffffffffffffffff16141561056e576040517f08c379a000000000000000000000000000000000000000000000000000000000815260040161056590613db2565b60405180910390fd5b60008083815260200190815260200160002060008473ffffffffffffffffffffffffffffffffffffffff1673ffffffffffffffffffffffffffffffffffffffff16815260200190815260200160002054905092915050565b60007fd9b67a26000000000000000000000000000000000000000000000000000000007bffffffffffffffffffffffffffffffffffffffffffffffffffffffff1916827bffffffffffffffffffffffffffffffffffffffffffffffffffffffff1916148061069157507f0e89341c000000000000000000000000000000000000000000000000000000007bffffffffffffffffffffffffffffffffffffffffffffffffffffffff1916827bffffffffffffffffffffffffffffffffffffffffffffffffffffffff1916145b806106a157506106a0826112fe565b5b9050919050565b6106b0611368565b73ffffffffffffffffffffffffffffffffffffffff166106ce610e1e565b73ffffffffffffffffffffffffffffffffffffffff1614610724576040517f08c379a000000000000000000000000000000000000000000000000000000000815260040161071b90613ed2565b60405180910390fd5b61072d81611370565b50565b60606002805461073f906142ce565b80601f016020809104026020016040519081016040528092919081815260200182805461076b906142ce565b80156107b85780601f1061078d576101008083540402835291602001916107b8565b820191906000526020600020905b81548152906001019060200180831161079b57829003601f168201915b50505050509050919050565b6000600560009054906101000a900473ffffffffffffffffffffffffffffffffffffffff16905090565b6107f6611368565b73ffffffffffffffffffffffffffffffffffffffff16610814610e1e565b73ffffffffffffffffffffffffffffffffffffffff161461086a576040517f08c379a000000000000000000000000000000000000000000000000000000000815260040161086190613ed2565b60405180910390fd5b6108768484848461138a565b50505050565b610884611368565b73ffffffffffffffffffffffffffffffffffffffff166108a2610e1e565b73ffffffffffffffffffffffffffffffffffffffff16146108f8576040517f08c379a00000000000000000000000000000000000000000000000000000000081526004016108ef90613ed2565b60405180910390fd5b80600560006101000a81548173ffffffffffffffffffffffffffffffffffffffff021916908373ffffffffffffffffffffffffffffffffffffffff16021790555050565b610944611368565b73ffffffffffffffffffffffffffffffffffffffff168573ffffffffffffffffffffffffffffffffffffffff16148061098a575061098985610984611368565b610faa565b5b6109c9576040517f08c379a00000000000000000000000000000000000000000000000000000000081526004016109c090613e72565b60405180910390fd5b6109d685858585856115f4565b5050505050565b6109e8338383611954565b6109f23382611b71565b5050565b6109fe611368565b73ffffffffffffffffffffffffffffffffffffffff16610a1c610e1e565b73ffffffffffffffffffffffffffffffffffffffff1614610a72576040517f08c379a0000000000000000000000000000000000000000000000000000000008152600401610a6990613ed2565b60405180910390fd5b610a7a611c6c565b565b60608151835114610ac2576040517f08c379a0000000000000000000000000000000000000000000000000000000008152600401610ab990613f52565b60405180910390fd5b6000835167ffffffffffffffff811115610b05577f4e487b7100000000000000000000000000000000000000000000000000000000600052604160045260246000fd5b604051908082528060200260200182016040528015610b335781602001602082028036833780820191505090505b50905060005b8451811015610c2257610bcc858281518110610b7e577f4e487b7100000000000000000000000000000000000000000000000000000000600052603260045260246000fd5b6020026020010151858381518110610bbf577f4e487b7100000000000000000000000000000000000000000000000000000000600052603260045260246000fd5b60200260200101516104fd565b828281518110610c05577f4e487b7100000000000000000000000000000000000000000000000000000000600052603260045260246000fd5b60200260200101818152505080610c1b90614331565b9050610b39565b508091505092915050565b600080610c3983610f8d565b119050919050565b6000600360149054906101000a900460ff16905090565b610c60611368565b73ffffffffffffffffffffffffffffffffffffffff168373ffffffffffffffffffffffffffffffffffffffff161480610ca65750610ca583610ca0611368565b610faa565b5b610ce5576040517f08c379a0000000000000000000000000000000000000000000000000000000008152600401610cdc90613e12565b60405180910390fd5b610cf0838383611d0e565b505050565b610cfd611368565b73ffffffffffffffffffffffffffffffffffffffff16610d1b610e1e565b73ffffffffffffffffffffffffffffffffffffffff1614610d71576040517f08c379a0000000000000000000000000000000000000000000000000000000008152600401610d6890613ed2565b60405180910390fd5b610d7b600061200b565b565b610d8682610e91565b610d92848484846120d1565b50505050565b610da0611368565b73ffffffffffffffffffffffffffffffffffffffff16610dbe610e1e565b73ffffffffffffffffffffffffffffffffffffffff1614610e14576040517f08c379a0000000000000000000000000000000000000000000000000000000008152600401610e0b90613ed2565b60405180910390fd5b610e1c612267565b565b6000600360009054906101000a900473ffffffffffffffffffffffffffffffffffffffff16905090565b610e5a610e53611368565b838361230a565b5050565b610e6782610e91565b610e716006612477565b6000610e7d600661248d565b9050610e8b848285856120d1565b50505050565b600560009054906101000a900473ffffffffffffffffffffffffffffffffffffffff1673ffffffffffffffffffffffffffffffffffffffff166323b872dd3330846040518463ffffffff1660e01b8152600401610ef093929190613c2b565b602060405180830381600087803b158015610f0a57600080fd5b505af1158015610f1e573d6000803e3d6000fd5b505050506040513d601f19601f82011682018060405250810190610f429190613692565b50610f4b61249b565b610f8a576040517f08c379a0000000000000000000000000000000000000000000000000000000008152600401610f8190613ef2565b60405180910390fd5b50565b600060046000838152602001908152602001600020549050919050565b6000600160008473ffffffffffffffffffffffffffffffffffffffff1673ffffffffffffffffffffffffffffffffffffffff16815260200190815260200160002060008373ffffffffffffffffffffffffffffffffffffffff1673ffffffffffffffffffffffffffffffffffffffff16815260200190815260200160002060009054906101000a900460ff16905092915050565b611046611368565b73ffffffffffffffffffffffffffffffffffffffff168573ffffffffffffffffffffffffffffffffffffffff16148061108c575061108b85611086611368565b610faa565b5b6110cb576040517f08c379a00000000000000000000000000000000000000000000000000000000081526004016110c290613e12565b60405180910390fd5b6110d885858585856124d9565b5050505050565b6110e7611368565b73ffffffffffffffffffffffffffffffffffffffff16611105610e1e565b73ffffffffffffffffffffffffffffffffffffffff161461115b576040517f08c379a000000000000000000000000000000000000000000000000000000000815260040161115290613ed2565b60405180910390fd5b600073ffffffffffffffffffffffffffffffffffffffff168173ffffffffffffffffffffffffffffffffffffffff1614156111cb576040517f08c379a00000000000000000000000000000000000000000000000000000000081526004016111c290613dd2565b60405180910390fd5b6111d48161200b565b50565b6111df611368565b73ffffffffffffffffffffffffffffffffffffffff166111fd610e1e565b73ffffffffffffffffffffffffffffffffffffffff1614611253576040517f08c379a000000000000000000000000000000000000000000000000000000000815260040161124a90613ed2565b60405180910390fd5b61125d8282611b71565b5050565b611269611368565b73ffffffffffffffffffffffffffffffffffffffff168373ffffffffffffffffffffffffffffffffffffffff1614806112af57506112ae836112a9611368565b610faa565b5b6112ee576040517f08c379a00000000000000000000000000000000000000000000000000000000081526004016112e590613e12565b60405180910390fd5b6112f9838383611954565b505050565b60007f01ffc9a7000000000000000000000000000000000000000000000000000000007bffffffffffffffffffffffffffffffffffffffffffffffffffffffff1916827bffffffffffffffffffffffffffffffffffffffffffffffffffffffff1916149050919050565b600033905090565b8060029080519060200190611386929190612e32565b5050565b600073ffffffffffffffffffffffffffffffffffffffff168473ffffffffffffffffffffffffffffffffffffffff1614156113fa576040517f08c379a00000000000000000000000000000000000000000000000000000000081526004016113f190613f92565b60405180910390fd5b815183511461143e576040517f08c379a000000000000000000000000000000000000000000000000000000000815260040161143590613f72565b60405180910390fd5b6000611448611368565b90506114598160008787878761275b565b60005b845181101561155e5783818151811061149e577f4e487b7100000000000000000000000000000000000000000000000000000000600052603260045260246000fd5b60200260200101516000808784815181106114e2577f4e487b7100000000000000000000000000000000000000000000000000000000600052603260045260246000fd5b6020026020010151815260200190815260200160002060008873ffffffffffffffffffffffffffffffffffffffff1673ffffffffffffffffffffffffffffffffffffffff16815260200190815260200160002060008282546115449190614146565b92505081905550808061155690614331565b91505061145c565b508473ffffffffffffffffffffffffffffffffffffffff16600073ffffffffffffffffffffffffffffffffffffffff168273ffffffffffffffffffffffffffffffffffffffff167f4a39dc06d4c0dbc64b70af90fd698a233a518aa5d07e595d983b8c0526c8f7fb87876040516115d6929190613cde565b60405180910390a46115ed81600087878787612771565b5050505050565b8151835114611638576040517f08c379a000000000000000000000000000000000000000000000000000000000815260040161162f90613f72565b60405180910390fd5b600073ffffffffffffffffffffffffffffffffffffffff168473ffffffffffffffffffffffffffffffffffffffff1614156116a8576040517f08c379a000000000000000000000000000000000000000000000000000000000815260040161169f90613e52565b60405180910390fd5b60006116b2611368565b90506116c281878787878761275b565b60005b84518110156118bf576000858281518110611709577f4e487b7100000000000000000000000000000000000000000000000000000000600052603260045260246000fd5b60200260200101519050600085838151811061174e577f4e487b7100000000000000000000000000000000000000000000000000000000600052603260045260246000fd5b60200260200101519050600080600084815260200190815260200160002060008b73ffffffffffffffffffffffffffffffffffffffff1673ffffffffffffffffffffffffffffffffffffffff168152602001908152602001600020549050818110156117ef576040517f08c379a00000000000000000000000000000000000000000000000000000000081526004016117e690613eb2565b60405180910390fd5b81810360008085815260200190815260200160002060008c73ffffffffffffffffffffffffffffffffffffffff1673ffffffffffffffffffffffffffffffffffffffff168152602001908152602001600020819055508160008085815260200190815260200160002060008b73ffffffffffffffffffffffffffffffffffffffff1673ffffffffffffffffffffffffffffffffffffffff16815260200190815260200160002060008282546118a49190614146565b92505081905550505050806118b890614331565b90506116c5565b508473ffffffffffffffffffffffffffffffffffffffff168673ffffffffffffffffffffffffffffffffffffffff168273ffffffffffffffffffffffffffffffffffffffff167f4a39dc06d4c0dbc64b70af90fd698a233a518aa5d07e595d983b8c0526c8f7fb8787604051611936929190613cde565b60405180910390a461194c818787878787612771565b505050505050565b600073ffffffffffffffffffffffffffffffffffffffff168373ffffffffffffffffffffffffffffffffffffffff1614156119c4576040517f08c379a00000000000000000000000000000000000000000000000000000000081526004016119bb90613e92565b60405180910390fd5b60006119ce611368565b90506119fe818560006119e087612958565b6119e987612958565b6040518060200160405280600081525061275b565b600080600085815260200190815260200160002060008673ffffffffffffffffffffffffffffffffffffffff1673ffffffffffffffffffffffffffffffffffffffff16815260200190815260200160002054905082811015611a95576040517f08c379a0000000000000000000000000000000000000000000000000000000008152600401611a8c90613df2565b60405180910390fd5b82810360008086815260200190815260200160002060008773ffffffffffffffffffffffffffffffffffffffff1673ffffffffffffffffffffffffffffffffffffffff16815260200190815260200160002081905550600073ffffffffffffffffffffffffffffffffffffffff168573ffffffffffffffffffffffffffffffffffffffff168373ffffffffffffffffffffffffffffffffffffffff167fc3d58168c5ae7397731d063d5bbf3d657854427343f4c083240f7aacaa2d0f628787604051611b62929190613fcd565b60405180910390a45050505050565b600560009054906101000a900473ffffffffffffffffffffffffffffffffffffffff1673ffffffffffffffffffffffffffffffffffffffff1663a9059cbb83836040518363ffffffff1660e01b8152600401611bce929190613b9a565b602060405180830381600087803b158015611be857600080fd5b505af1158015611bfc573d6000803e3d6000fd5b505050506040513d601f19601f82011682018060405250810190611c209190613692565b50611c2961249b565b611c68576040517f08c379a0000000000000000000000000000000000000000000000000000000008152600401611c5f90613f12565b60405180910390fd5b5050565b611c74610c41565b611cb3576040517f08c379a0000000000000000000000000000000000000000000000000000000008152600401611caa90613d92565b60405180910390fd5b6000600360146101000a81548160ff0219169083151502179055507f5db9ee0a495bf2e6ff9c91a7834c1ba4fdd244a5e8aa4e537bd38aeae4b073aa611cf7611368565b604051611d049190613b7f565b60405180910390a1565b600073ffffffffffffffffffffffffffffffffffffffff168373ffffffffffffffffffffffffffffffffffffffff161415611d7e576040517f08c379a0000000000000000000000000000000000000000000000000000000008152600401611d7590613e92565b60405180910390fd5b8051825114611dc2576040517f08c379a0000000000000000000000000000000000000000000000000000000008152600401611db990613f72565b60405180910390fd5b6000611dcc611368565b9050611dec8185600086866040518060200160405280600081525061275b565b60005b8351811015611f85576000848281518110611e33577f4e487b7100000000000000000000000000000000000000000000000000000000600052603260045260246000fd5b602002602001015190506000848381518110611e78577f4e487b7100000000000000000000000000000000000000000000000000000000600052603260045260246000fd5b60200260200101519050600080600084815260200190815260200160002060008973ffffffffffffffffffffffffffffffffffffffff1673ffffffffffffffffffffffffffffffffffffffff16815260200190815260200160002054905081811015611f19576040517f08c379a0000000000000000000000000000000000000000000000000000000008152600401611f1090613df2565b60405180910390fd5b81810360008085815260200190815260200160002060008a73ffffffffffffffffffffffffffffffffffffffff1673ffffffffffffffffffffffffffffffffffffffff168152602001908152602001600020819055505050508080611f7d90614331565b915050611def565b50600073ffffffffffffffffffffffffffffffffffffffff168473ffffffffffffffffffffffffffffffffffffffff168273ffffffffffffffffffffffffffffffffffffffff167f4a39dc06d4c0dbc64b70af90fd698a233a518aa5d07e595d983b8c0526c8f7fb8686604051611ffd929190613cde565b60405180910390a450505050565b6000600360009054906101000a900473ffffffffffffffffffffffffffffffffffffffff16905081600360006101000a81548173ffffffffffffffffffffffffffffffffffffffff021916908373ffffffffffffffffffffffffffffffffffffffff1602179055508173ffffffffffffffffffffffffffffffffffffffff168173ffffffffffffffffffffffffffffffffffffffff167f8be0079c531659141344cd1fd0a4f28419497f9722a3daafe3b4186f6b6457e060405160405180910390a35050565b600073ffffffffffffffffffffffffffffffffffffffff168473ffffffffffffffffffffffffffffffffffffffff161415612141576040517f08c379a000000000000000000000000000000000000000000000000000000000815260040161213890613f92565b60405180910390fd5b600061214b611368565b905061216c8160008761215d88612958565b61216688612958565b8761275b565b8260008086815260200190815260200160002060008773ffffffffffffffffffffffffffffffffffffffff1673ffffffffffffffffffffffffffffffffffffffff16815260200190815260200160002060008282546121cb9190614146565b925050819055508473ffffffffffffffffffffffffffffffffffffffff16600073ffffffffffffffffffffffffffffffffffffffff168273ffffffffffffffffffffffffffffffffffffffff167fc3d58168c5ae7397731d063d5bbf3d657854427343f4c083240f7aacaa2d0f628787604051612249929190613fcd565b60405180910390a461226081600087878787612a1e565b5050505050565b61226f610c41565b156122af576040517f08c379a00000000000000000000000000000000000000000000000000000000081526004016122a690613e32565b60405180910390fd5b6001600360146101000a81548160ff0219169083151502179055507f62e78cea01bee320cd4e420270b5ea74000d11b0c9f74754ebdbfc544b05a2586122f3611368565b6040516123009190613b7f565b60405180910390a1565b8173ffffffffffffffffffffffffffffffffffffffff168373ffffffffffffffffffffffffffffffffffffffff161415612379576040517f08c379a000000000000000000000000000000000000000000000000000000000815260040161237090613f32565b60405180910390fd5b80600160008573ffffffffffffffffffffffffffffffffffffffff1673ffffffffffffffffffffffffffffffffffffffff16815260200190815260200160002060008473ffffffffffffffffffffffffffffffffffffffff1673ffffffffffffffffffffffffffffffffffffffff16815260200190815260200160002060006101000a81548160ff0219169083151502179055508173ffffffffffffffffffffffffffffffffffffffff168373ffffffffffffffffffffffffffffffffffffffff167f17307eab39ab6107e8899845ad3d59bd9653f200f220920489ca2b5937696c318360405161246a9190613d15565b60405180910390a3505050565b6001816000016000828254019250508190555050565b600081600001549050919050565b600080600090503d600081146124b857602081146124c1576124cd565b600191506124cd565b60206000803e60005191505b50600081141591505090565b600073ffffffffffffffffffffffffffffffffffffffff168473ffffffffffffffffffffffffffffffffffffffff161415612549576040517f08c379a000000000000000000000000000000000000000000000000000000000815260040161254090613e52565b60405180910390fd5b6000612553611368565b905061257381878761256488612958565b61256d88612958565b8761275b565b600080600086815260200190815260200160002060008873ffffffffffffffffffffffffffffffffffffffff1673ffffffffffffffffffffffffffffffffffffffff1681526020019081526020016000205490508381101561260a576040517f08c379a000000000000000000000000000000000000000000000000000000000815260040161260190613eb2565b60405180910390fd5b83810360008087815260200190815260200160002060008973ffffffffffffffffffffffffffffffffffffffff1673ffffffffffffffffffffffffffffffffffffffff168152602001908152602001600020819055508360008087815260200190815260200160002060008873ffffffffffffffffffffffffffffffffffffffff1673ffffffffffffffffffffffffffffffffffffffff16815260200190815260200160002060008282546126bf9190614146565b925050819055508573ffffffffffffffffffffffffffffffffffffffff168773ffffffffffffffffffffffffffffffffffffffff168373ffffffffffffffffffffffffffffffffffffffff167fc3d58168c5ae7397731d063d5bbf3d657854427343f4c083240f7aacaa2d0f62888860405161273c929190613fcd565b60405180910390a4612752828888888888612a1e565b50505050505050565b612769868686868686612c05565b505050505050565b6127908473ffffffffffffffffffffffffffffffffffffffff16612e17565b15612950578373ffffffffffffffffffffffffffffffffffffffff1663bc197c8187878686866040518663ffffffff1660e01b81526004016127d6959493929190613bc3565b602060405180830381600087803b1580156127f057600080fd5b505af192505050801561282157506040513d601f19601f8201168201806040525081019061281e91906136e4565b60015b6128c75761282d614407565b806308c379a0141561288a57506128426149b2565b8061284d575061288c565b806040517f08c379a00000000000000000000000000000000000000000000000000000000081526004016128819190613d30565b60405180910390fd5b505b6040517f08c379a00000000000000000000000000000000000000000000000000000000081526004016128be90613d52565b60405180910390fd5b63bc197c8160e01b7bffffffffffffffffffffffffffffffffffffffffffffffffffffffff1916817bffffffffffffffffffffffffffffffffffffffffffffffffffffffff19161461294e576040517f08c379a000000000000000000000000000000000000000000000000000000000815260040161294590613d72565b60405180910390fd5b505b505050505050565b60606000600167ffffffffffffffff81111561299d577f4e487b7100000000000000000000000000000000000000000000000000000000600052604160045260246000fd5b6040519080825280602002602001820160405280156129cb5781602001602082028036833780820191505090505b5090508281600081518110612a09577f4e487b7100000000000000000000000000000000000000000000000000000000600052603260045260246000fd5b60200260200101818152505080915050919050565b612a3d8473ffffffffffffffffffffffffffffffffffffffff16612e17565b15612bfd578373ffffffffffffffffffffffffffffffffffffffff1663f23a6e6187878686866040518663ffffffff1660e01b8152600401612a83959493929190613c62565b602060405180830381600087803b158015612a9d57600080fd5b505af1925050508015612ace57506040513d601f19601f82011682018060405250810190612acb91906136e4565b60015b612b7457612ada614407565b806308c379a01415612b375750612aef6149b2565b80612afa5750612b39565b806040517f08c379a0000000000000000000000000000000000000000000000000000000008152600401612b2e9190613d30565b60405180910390fd5b505b6040517f08c379a0000000000000000000000000000000000000000000000000000000008152600401612b6b90613d52565b60405180910390fd5b63f23a6e6160e01b7bffffffffffffffffffffffffffffffffffffffffffffffffffffffff1916817bffffffffffffffffffffffffffffffffffffffffffffffffffffffff191614612bfb576040517f08c379a0000000000000000000000000000000000000000000000000000000008152600401612bf290613d72565b60405180910390fd5b505b505050505050565b612c13868686868686612e2a565b600073ffffffffffffffffffffffffffffffffffffffff168573ffffffffffffffffffffffffffffffffffffffff161415612d115760005b8351811015612d0f57828181518110612c8d577f4e487b7100000000000000000000000000000000000000000000000000000000600052603260045260246000fd5b602002602001015160046000868481518110612cd2577f4e487b7100000000000000000000000000000000000000000000000000000000600052603260045260246000fd5b602002602001015181526020019081526020016000206000828254612cf79190614146565b9250508190555080612d0890614331565b9050612c4b565b505b600073ffffffffffffffffffffffffffffffffffffffff168473ffffffffffffffffffffffffffffffffffffffff161415612e0f5760005b8351811015612e0d57828181518110612d8b577f4e487b7100000000000000000000000000000000000000000000000000000000600052603260045260246000fd5b602002602001015160046000868481518110612dd0577f4e487b7100000000000000000000000000000000000000000000000000000000600052603260045260246000fd5b602002602001015181526020019081526020016000206000828254612df5919061419c565b9250508190555080612e0690614331565b9050612d49565b505b505050505050565b600080823b905060008111915050919050565b505050505050565b828054612e3e906142ce565b90600052602060002090601f016020900481019282612e605760008555612ea7565b82601f10612e7957805160ff1916838001178555612ea7565b82800160010185558215612ea7579182015b82811115612ea6578251825591602001919060010190612e8b565b5b509050612eb49190612eb8565b5090565b5b80821115612ed1576000816000905550600101612eb9565b5090565b6000612ee8612ee38461401b565b613ff6565b90508083825260208201905082856020860282011115612f0757600080fd5b60005b85811015612f375781612f1d8882613029565b845260208401935060208301925050600181019050612f0a565b5050509392505050565b6000612f54612f4f84614047565b613ff6565b90508083825260208201905082856020860282011115612f7357600080fd5b60005b85811015612fa35781612f89888261314f565b845260208401935060208301925050600181019050612f76565b5050509392505050565b6000612fc0612fbb84614073565b613ff6565b905082815260208101848484011115612fd857600080fd5b612fe384828561428c565b509392505050565b6000612ffe612ff9846140a4565b613ff6565b90508281526020810184848401111561301657600080fd5b61302184828561428c565b509392505050565b60008135905061303881614a48565b92915050565b60008135905061304d81614a5f565b92915050565b600082601f83011261306457600080fd5b8135613074848260208601612ed5565b91505092915050565b600082601f83011261308e57600080fd5b813561309e848260208601612f41565b91505092915050565b6000813590506130b681614a76565b92915050565b6000815190506130cb81614a76565b92915050565b6000813590506130e081614a8d565b92915050565b6000815190506130f581614a8d565b92915050565b600082601f83011261310c57600080fd5b813561311c848260208601612fad565b91505092915050565b600082601f83011261313657600080fd5b8135613146848260208601612feb565b91505092915050565b60008135905061315e81614aa4565b92915050565b60006020828403121561317657600080fd5b600061318484828501613029565b91505092915050565b600080604083850312156131a057600080fd5b60006131ae8582860161303e565b92505060206131bf8582860161314f565b9150509250929050565b600080604083850312156131dc57600080fd5b60006131ea85828601613029565b92505060206131fb85828601613029565b9150509250929050565b600080600080600060a0868803121561321d57600080fd5b600061322b88828901613029565b955050602061323c88828901613029565b945050604086013567ffffffffffffffff81111561325957600080fd5b6132658882890161307d565b935050606086013567ffffffffffffffff81111561328257600080fd5b61328e8882890161307d565b925050608086013567ffffffffffffffff8111156132ab57600080fd5b6132b7888289016130fb565b9150509295509295909350565b600080600080600060a086880312156132dc57600080fd5b60006132ea88828901613029565b95505060206132fb88828901613029565b945050604061330c8882890161314f565b935050606061331d8882890161314f565b925050608086013567ffffffffffffffff81111561333a57600080fd5b613346888289016130fb565b9150509295509295909350565b60008060006060848603121561336857600080fd5b600061337686828701613029565b935050602084013567ffffffffffffffff81111561339357600080fd5b61339f8682870161307d565b925050604084013567ffffffffffffffff8111156133bc57600080fd5b6133c88682870161307d565b9150509250925092565b600080600080608085870312156133e857600080fd5b60006133f687828801613029565b945050602085013567ffffffffffffffff81111561341357600080fd5b61341f8782880161307d565b935050604085013567ffffffffffffffff81111561343c57600080fd5b6134488782880161307d565b925050606085013567ffffffffffffffff81111561346557600080fd5b613471878288016130fb565b91505092959194509250565b6000806040838503121561349057600080fd5b600061349e85828601613029565b92505060206134af858286016130a7565b9150509250929050565b600080604083850312156134cc57600080fd5b60006134da85828601613029565b92505060206134eb8582860161314f565b9150509250929050565b60008060006060848603121561350a57600080fd5b600061351886828701613029565b93505060206135298682870161314f565b925050604084013567ffffffffffffffff81111561354657600080fd5b613552868287016130fb565b9150509250925092565b60008060006060848603121561357157600080fd5b600061357f86828701613029565b93505060206135908682870161314f565b92505060406135a18682870161314f565b9150509250925092565b600080600080608085870312156135c157600080fd5b60006135cf87828801613029565b94505060206135e08782880161314f565b93505060406135f18782880161314f565b925050606085013567ffffffffffffffff81111561360e57600080fd5b61361a878288016130fb565b91505092959194509250565b6000806040838503121561363957600080fd5b600083013567ffffffffffffffff81111561365357600080fd5b61365f85828601613053565b925050602083013567ffffffffffffffff81111561367c57600080fd5b6136888582860161307d565b9150509250929050565b6000602082840312156136a457600080fd5b60006136b2848285016130bc565b91505092915050565b6000602082840312156136cd57600080fd5b60006136db848285016130d1565b91505092915050565b6000602082840312156136f657600080fd5b6000613704848285016130e6565b91505092915050565b60006020828403121561371f57600080fd5b600082013567ffffffffffffffff81111561373957600080fd5b61374584828501613125565b91505092915050565b60006020828403121561376057600080fd5b600061376e8482850161314f565b91505092915050565b6000806040838503121561378a57600080fd5b60006137988582860161314f565b92505060206137a98582860161314f565b9150509250929050565b60006137bf8383613b61565b60208301905092915050565b6137d481614256565b82525050565b6137e3816141d0565b82525050565b60006137f4826140e5565b6137fe8185614113565b9350613809836140d5565b8060005b8381101561383a57815161382188826137b3565b975061382c83614106565b92505060018101905061380d565b5085935050505092915050565b613850816141f4565b82525050565b6000613861826140f0565b61386b8185614124565b935061387b81856020860161429b565b61388481614429565b840191505092915050565b600061389a826140fb565b6138a48185614135565b93506138b481856020860161429b565b6138bd81614429565b840191505092915050565b60006138d5603483614135565b91506138e082614447565b604082019050919050565b60006138f8602883614135565b915061390382614496565b604082019050919050565b600061391b601483614135565b9150613926826144e5565b602082019050919050565b600061393e602b83614135565b91506139498261450e565b604082019050919050565b6000613961602683614135565b915061396c8261455d565b604082019050919050565b6000613984602483614135565b915061398f826145ac565b604082019050919050565b60006139a7602983614135565b91506139b2826145fb565b604082019050919050565b60006139ca601083614135565b91506139d58261464a565b602082019050919050565b60006139ed602583614135565b91506139f882614673565b604082019050919050565b6000613a10603283614135565b9150613a1b826146c2565b604082019050919050565b6000613a33602383614135565b9150613a3e82614711565b604082019050919050565b6000613a56602a83614135565b9150613a6182614760565b604082019050919050565b6000613a79602083614135565b9150613a84826147af565b602082019050919050565b6000613a9c602183614135565b9150613aa7826147d8565b604082019050919050565b6000613abf602283614135565b9150613aca82614827565b604082019050919050565b6000613ae2602983614135565b9150613aed82614876565b604082019050919050565b6000613b05602983614135565b9150613b10826148c5565b604082019050919050565b6000613b28602883614135565b9150613b3382614914565b604082019050919050565b6000613b4b602183614135565b9150613b5682614963565b604082019050919050565b613b6a8161424c565b82525050565b613b798161424c565b82525050565b6000602082019050613b9460008301846137da565b92915050565b6000604082019050613baf60008301856137cb565b613bbc6020830184613b70565b9392505050565b600060a082019050613bd860008301886137da565b613be560208301876137da565b8181036040830152613bf781866137e9565b90508181036060830152613c0b81856137e9565b90508181036080830152613c1f8184613856565b90509695505050505050565b6000606082019050613c4060008301866137da565b613c4d60208301856137da565b613c5a6040830184613b70565b949350505050565b600060a082019050613c7760008301886137da565b613c8460208301876137da565b613c916040830186613b70565b613c9e6060830185613b70565b8181036080830152613cb08184613856565b90509695505050505050565b60006020820190508181036000830152613cd681846137e9565b905092915050565b60006040820190508181036000830152613cf881856137e9565b90508181036020830152613d0c81846137e9565b90509392505050565b6000602082019050613d2a6000830184613847565b92915050565b60006020820190508181036000830152613d4a818461388f565b905092915050565b60006020820190508181036000830152613d6b816138c8565b9050919050565b60006020820190508181036000830152613d8b816138eb565b9050919050565b60006020820190508181036000830152613dab8161390e565b9050919050565b60006020820190508181036000830152613dcb81613931565b9050919050565b60006020820190508181036000830152613deb81613954565b9050919050565b60006020820190508181036000830152613e0b81613977565b9050919050565b60006020820190508181036000830152613e2b8161399a565b9050919050565b60006020820190508181036000830152613e4b816139bd565b9050919050565b60006020820190508181036000830152613e6b816139e0565b9050919050565b60006020820190508181036000830152613e8b81613a03565b9050919050565b60006020820190508181036000830152613eab81613a26565b9050919050565b60006020820190508181036000830152613ecb81613a49565b9050919050565b60006020820190508181036000830152613eeb81613a6c565b9050919050565b60006020820190508181036000830152613f0b81613a8f565b9050919050565b60006020820190508181036000830152613f2b81613ab2565b9050919050565b60006020820190508181036000830152613f4b81613ad5565b9050919050565b60006020820190508181036000830152613f6b81613af8565b9050919050565b60006020820190508181036000830152613f8b81613b1b565b9050919050565b60006020820190508181036000830152613fab81613b3e565b9050919050565b6000602082019050613fc76000830184613b70565b92915050565b6000604082019050613fe26000830185613b70565b613fef6020830184613b70565b9392505050565b6000614000614011565b905061400c8282614300565b919050565b6000604051905090565b600067ffffffffffffffff821115614036576140356143d8565b5b602082029050602081019050919050565b600067ffffffffffffffff821115614062576140616143d8565b5b602082029050602081019050919050565b600067ffffffffffffffff82111561408e5761408d6143d8565b5b61409782614429565b9050602081019050919050565b600067ffffffffffffffff8211156140bf576140be6143d8565b5b6140c882614429565b9050602081019050919050565b6000819050602082019050919050565b600081519050919050565b600081519050919050565b600081519050919050565b6000602082019050919050565b600082825260208201905092915050565b600082825260208201905092915050565b600082825260208201905092915050565b60006141518261424c565b915061415c8361424c565b9250827fffffffffffffffffffffffffffffffffffffffffffffffffffffffffffffffff038211156141915761419061437a565b5b828201905092915050565b60006141a78261424c565b91506141b28361424c565b9250828210156141c5576141c461437a565b5b828203905092915050565b60006141db8261422c565b9050919050565b60006141ed8261422c565b9050919050565b60008115159050919050565b60007fffffffff0000000000000000000000000000000000000000000000000000000082169050919050565b600073ffffffffffffffffffffffffffffffffffffffff82169050919050565b6000819050919050565b600061426182614268565b9050919050565b60006142738261427a565b9050919050565b60006142858261422c565b9050919050565b82818337600083830152505050565b60005b838110156142b957808201518184015260208101905061429e565b838111156142c8576000848401525b50505050565b600060028204905060018216806142e657607f821691505b602082108114156142fa576142f96143a9565b5b50919050565b61430982614429565b810181811067ffffffffffffffff82111715614328576143276143d8565b5b80604052505050565b600061433c8261424c565b91507fffffffffffffffffffffffffffffffffffffffffffffffffffffffffffffffff82141561436f5761436e61437a565b5b600182019050919050565b7f4e487b7100000000000000000000000000000000000000000000000000000000600052601160045260246000fd5b7f4e487b7100000000000000000000000000000000000000000000000000000000600052602260045260246000fd5b7f4e487b7100000000000000000000000000000000000000000000000000000000600052604160045260246000fd5b600060033d11156144265760046000803e61442360005161443a565b90505b90565b6000601f19601f8301169050919050565b60008160e01c9050919050565b7f455243313135353a207472616e7366657220746f206e6f6e204552433131353560008201527f526563656976657220696d706c656d656e746572000000000000000000000000602082015250565b7f455243313135353a204552433131353552656365697665722072656a6563746560008201527f6420746f6b656e73000000000000000000000000000000000000000000000000602082015250565b7f5061757361626c653a206e6f7420706175736564000000000000000000000000600082015250565b7f455243313135353a2062616c616e636520717565727920666f7220746865207a60008201527f65726f2061646472657373000000000000000000000000000000000000000000602082015250565b7f4f776e61626c653a206e6577206f776e657220697320746865207a65726f206160008201527f6464726573730000000000000000000000000000000000000000000000000000602082015250565b7f455243313135353a206275726e20616d6f756e7420657863656564732062616c60008201527f616e636500000000000000000000000000000000000000000000000000000000602082015250565b7f455243313135353a2063616c6c6572206973206e6f74206f776e6572206e6f7260008201527f20617070726f7665640000000000000000000000000000000000000000000000602082015250565b7f5061757361626c653a2070617573656400000000000000000000000000000000600082015250565b7f455243313135353a207472616e7366657220746f20746865207a65726f20616460008201527f6472657373000000000000000000000000000000000000000000000000000000602082015250565b7f455243313135353a207472616e736665722063616c6c6572206973206e6f742060008201527f6f776e6572206e6f7220617070726f7665640000000000000000000000000000602082015250565b7f455243313135353a206275726e2066726f6d20746865207a65726f206164647260008201527f6573730000000000000000000000000000000000000000000000000000000000602082015250565b7f455243313135353a20696e73756666696369656e742062616c616e636520666f60008201527f72207472616e7366657200000000000000000000000000000000000000000000602082015250565b7f4f776e61626c653a2063616c6c6572206973206e6f7420746865206f776e6572600082015250565b7f496d67546f6b656e236465706f7369743a205452414e534645525f4641494c4560008201527f4400000000000000000000000000000000000000000000000000000000000000602082015250565b7f496d67546f6b656e2377697468647261773a205452414e534645525f4641494c60008201527f4544000000000000000000000000000000000000000000000000000000000000602082015250565b7f455243313135353a2073657474696e6720617070726f76616c2073746174757360008201527f20666f722073656c660000000000000000000000000000000000000000000000602082015250565b7f455243313135353a206163636f756e747320616e6420696473206c656e67746860008201527f206d69736d617463680000000000000000000000000000000000000000000000602082015250565b7f455243313135353a2069647320616e6420616d6f756e7473206c656e6774682060008201527f6d69736d61746368000000000000000000000000000000000000000000000000602082015250565b7f455243313135353a206d696e7420746f20746865207a65726f2061646472657360008201527f7300000000000000000000000000000000000000000000000000000000000000602082015250565b600060443d10156149c257614a45565b6149ca614011565b60043d036004823e80513d602482011167ffffffffffffffff821117156149f2575050614a45565b808201805167ffffffffffffffff811115614a105750505050614a45565b80602083010160043d038501811115614a2d575050505050614a45565b614a3c82602001850186614300565b82955050505050505b90565b614a51816141d0565b8114614a5c57600080fd5b50565b614a68816141e2565b8114614a7357600080fd5b50565b614a7f816141f4565b8114614a8a57600080fd5b50565b614a9681614200565b8114614aa157600080fd5b50565b614aad8161424c565b8114614ab857600080fd5b5056fea26469706673582212206670b046fcf69a57556ed01f50602f0a91c236f31668fddd78a1e0b42a733a5f64736f6c63430008040033",
  "linkReferences": {},
  "deployedLinkReferences": {}
}