{
  "_format": "hh-sol-artifact-1",
  "contractName": "Gether",
  "sourceName": "contracts/Gether.sol",
  "abi": [
    {
      "inputs": [
        {
          "internalType": "address",
          "name": "_tokenAdd",
          "type": "address"
        }
      ],
      "stateMutability": "nonpayable",
      "type": "constructor"
    },
    {
      "anonymous": false,
      "inputs": [
        {
          "indexed": true,
          "internalType": "address",
          "name": "account",
          "type": "address"
        },
        {
          "indexed": true,
          "internalType": "address",
          "name": "operator",
          "type": "address"
        },
        {
          "indexed": false,
          "internalType": "bool",
          "name": "approved",
          "type": "bool"
        }
      ],
      "name": "ApprovalForAll",
      "type": "event"
    },
    {
      "anonymous": false,
      "inputs": [
        {
          "indexed": true,
          "internalType": "address",
          "name": "previousOwner",
          "type": "address"
        },
        {
          "indexed": true,
          "internalType": "address",
          "name": "newOwner",
          "type": "address"
        }
      ],
      "name": "OwnershipTransferred",
      "type": "event"
    },
    {
      "anonymous": false,
      "inputs": [
        {
          "indexed": true,
          "internalType": "address",
          "name": "operator",
          "type": "address"
        },
        {
          "indexed": true,
          "internalType": "address",
          "name": "from",
          "type": "address"
        },
        {
          "indexed": true,
          "internalType": "address",
          "name": "to",
          "type": "address"
        },
        {
          "indexed": false,
          "internalType": "uint256[]",
          "name": "ids",
          "type": "uint256[]"
        },
        {
          "indexed": false,
          "internalType": "uint256[]",
          "name": "values",
          "type": "uint256[]"
        }
      ],
      "name": "TransferBatch",
      "type": "event"
    },
    {
      "anonymous": false,
      "inputs": [
        {
          "indexed": true,
          "internalType": "address",
          "name": "operator",
          "type": "address"
        },
        {
          "indexed": true,
          "internalType": "address",
          "name": "from",
          "type": "address"
        },
        {
          "indexed": true,
          "internalType": "address",
          "name": "to",
          "type": "address"
        },
        {
          "indexed": false,
          "internalType": "uint256",
          "name": "id",
          "type": "uint256"
        },
        {
          "indexed": false,
          "internalType": "uint256",
          "name": "value",
          "type": "uint256"
        }
      ],
      "name": "TransferSingle",
      "type": "event"
    },
    {
      "anonymous": false,
      "inputs": [
        {
          "indexed": false,
          "internalType": "string",
          "name": "value",
          "type": "string"
        },
        {
          "indexed": true,
          "internalType": "uint256",
          "name": "id",
          "type": "uint256"
        }
      ],
      "name": "URI",
      "type": "event"
    },
    {
      "inputs": [
        {
          "internalType": "address",
          "name": "account",
          "type": "address"
        },
        {
          "internalType": "uint256",
          "name": "id",
          "type": "uint256"
        }
      ],
      "name": "balanceOf",
      "outputs": [
        {
          "internalType": "uint256",
          "name": "",
          "type": "uint256"
        }
      ],
      "stateMutability": "view",
      "type": "function"
    },
    {
      "inputs": [
        {
          "internalType": "address[]",
          "name": "accounts",
          "type": "address[]"
        },
        {
          "internalType": "uint256[]",
          "name": "ids",
          "type": "uint256[]"
        }
      ],
      "name": "balanceOfBatch",
      "outputs": [
        {
          "internalType": "uint256[]",
          "name": "",
          "type": "uint256[]"
        }
      ],
      "stateMutability": "view",
      "type": "function"
    },
    {
      "inputs": [
        {
          "internalType": "address",
          "name": "account",
          "type": "address"
        },
        {
          "internalType": "uint256",
          "name": "id",
          "type": "uint256"
        },
        {
          "internalType": "uint256",
          "name": "value",
          "type": "uint256"
        }
      ],
      "name": "burn",
      "outputs": [],
      "stateMutability": "nonpayable",
      "type": "function"
    },
    {
      "inputs": [
        {
          "internalType": "uint256",
          "name": "id",
          "type": "uint256"
        },
        {
          "internalType": "uint256",
          "name": "amount",
          "type": "uint256"
        }
      ],
      "name": "burnAndWithdraw",
      "outputs": [],
      "stateMutability": "nonpayable",
      "type": "function"
    },
    {
      "inputs": [
        {
          "internalType": "address",
          "name": "account",
          "type": "address"
        },
        {
          "internalType": "uint256[]",
          "name": "ids",
          "type": "uint256[]"
        },
        {
          "internalType": "uint256[]",
          "name": "values",
          "type": "uint256[]"
        }
      ],
      "name": "burnBatch",
      "outputs": [],
      "stateMutability": "nonpayable",
      "type": "function"
    },
    {
      "inputs": [
        {
          "internalType": "uint256",
          "name": "",
          "type": "uint256"
        }
      ],
      "name": "controllers",
      "outputs": [
        {
          "internalType": "address",
          "name": "",
          "type": "address"
        }
      ],
      "stateMutability": "view",
      "type": "function"
    },
    {
      "inputs": [
        {
          "internalType": "uint256",
          "name": "amount",
          "type": "uint256"
        }
      ],
      "name": "deposit",
      "outputs": [],
      "stateMutability": "nonpayable",
      "type": "function"
    },
    {
      "inputs": [
        {
          "internalType": "uint256",
          "name": "id",
          "type": "uint256"
        }
      ],
      "name": "exists",
      "outputs": [
        {
          "internalType": "bool",
          "name": "",
          "type": "bool"
        }
      ],
      "stateMutability": "view",
      "type": "function"
    },
    {
      "inputs": [],
      "name": "getTokenAddress",
      "outputs": [
        {
          "internalType": "address",
          "name": "_tokenAdd",
          "type": "address"
        }
      ],
      "stateMutability": "view",
      "type": "function"
    },
    {
      "inputs": [
        {
          "internalType": "address",
          "name": "account",
          "type": "address"
        },
        {
          "internalType": "address",
          "name": "operator",
          "type": "address"
        }
      ],
      "name": "isApprovedForAll",
      "outputs": [
        {
          "internalType": "bool",
          "name": "",
          "type": "bool"
        }
      ],
      "stateMutability": "view",
      "type": "function"
    },
    {
      "inputs": [
        {
          "internalType": "uint256",
          "name": "",
          "type": "uint256"
        }
      ],
      "name": "maxSupplies",
      "outputs": [
        {
          "internalType": "uint256",
          "name": "",
          "type": "uint256"
        }
      ],
      "stateMutability": "view",
      "type": "function"
    },
    {
      "inputs": [
        {
          "internalType": "address",
          "name": "account",
          "type": "address"
        },
        {
          "internalType": "uint256",
          "name": "id",
          "type": "uint256"
        },
        {
          "internalType": "uint256",
          "name": "amount",
          "type": "uint256"
        },
        {
          "internalType": "bytes",
          "name": "data",
          "type": "bytes"
        }
      ],
      "name": "mint",
      "outputs": [],
      "stateMutability": "nonpayable",
      "type": "function"
    },
    {
      "inputs": [
        {
          "internalType": "address",
          "name": "to",
          "type": "address"
        },
        {
          "internalType": "uint256[]",
          "name": "ids",
          "type": "uint256[]"
        },
        {
          "internalType": "uint256[]",
          "name": "amounts",
          "type": "uint256[]"
        },
        {
          "internalType": "bytes",
          "name": "data",
          "type": "bytes"
        }
      ],
      "name": "mintBatch",
      "outputs": [],
      "stateMutability": "nonpayable",
      "type": "function"
    },
    {
      "inputs": [],
      "name": "owner",
      "outputs": [
        {
          "internalType": "address",
          "name": "",
          "type": "address"
        }
      ],
      "stateMutability": "view",
      "type": "function"
    },
    {
      "inputs": [],
      "name": "renounceOwnership",
      "outputs": [],
      "stateMutability": "nonpayable",
      "type": "function"
    },
    {
      "inputs": [
        {
          "internalType": "address",
          "name": "from",
          "type": "address"
        },
        {
          "internalType": "address",
          "name": "to",
          "type": "address"
        },
        {
          "internalType": "uint256[]",
          "name": "ids",
          "type": "uint256[]"
        },
        {
          "internalType": "uint256[]",
          "name": "amounts",
          "type": "uint256[]"
        },
        {
          "internalType": "bytes",
          "name": "data",
          "type": "bytes"
        }
      ],
      "name": "safeBatchTransferFrom",
      "outputs": [],
      "stateMutability": "nonpayable",
      "type": "function"
    },
    {
      "inputs": [
        {
          "internalType": "address",
          "name": "from",
          "type": "address"
        },
        {
          "internalType": "address",
          "name": "to",
          "type": "address"
        },
        {
          "internalType": "uint256",
          "name": "id",
          "type": "uint256"
        },
        {
          "internalType": "uint256",
          "name": "amount",
          "type": "uint256"
        },
        {
          "internalType": "bytes",
          "name": "data",
          "type": "bytes"
        }
      ],
      "name": "safeTransferFrom",
      "outputs": [],
      "stateMutability": "nonpayable",
      "type": "function"
    },
    {
      "inputs": [
        {
          "internalType": "address",
          "name": "operator",
          "type": "address"
        },
        {
          "internalType": "bool",
          "name": "approved",
          "type": "bool"
        }
      ],
      "name": "setApprovalForAll",
      "outputs": [],
      "stateMutability": "nonpayable",
      "type": "function"
    },
    {
      "inputs": [
        {
          "internalType": "uint256",
          "name": "id",
          "type": "uint256"
        },
        {
          "internalType": "address",
          "name": "controller",
          "type": "address"
        }
      ],
      "name": "setController",
      "outputs": [],
      "stateMutability": "nonpayable",
      "type": "function"
    },
    {
      "inputs": [
        {
          "internalType": "uint256",
          "name": "id",
          "type": "uint256"
        },
        {
          "internalType": "uint256",
          "name": "amount",
          "type": "uint256"
        }
      ],
      "name": "setMaxSupply",
      "outputs": [],
      "stateMutability": "nonpayable",
      "type": "function"
    },
    {
      "inputs": [
        {
          "internalType": "address",
          "name": "_tokenAdd",
          "type": "address"
        }
      ],
      "name": "setTokenAddress",
      "outputs": [],
      "stateMutability": "nonpayable",
      "type": "function"
    },
    {
      "inputs": [
        {
          "internalType": "string",
          "name": "newuri",
          "type": "string"
        }
      ],
      "name": "setURI",
      "outputs": [],
      "stateMutability": "nonpayable",
      "type": "function"
    },
    {
      "inputs": [
        {
          "internalType": "bytes4",
          "name": "interfaceId",
          "type": "bytes4"
        }
      ],
      "name": "supportsInterface",
      "outputs": [
        {
          "internalType": "bool",
          "name": "",
          "type": "bool"
        }
      ],
      "stateMutability": "view",
      "type": "function"
    },
    {
      "inputs": [
        {
          "internalType": "uint256",
          "name": "id",
          "type": "uint256"
        }
      ],
      "name": "totalSupply",
      "outputs": [
        {
          "internalType": "uint256",
          "name": "",
          "type": "uint256"
        }
      ],
      "stateMutability": "view",
      "type": "function"
    },
    {
      "inputs": [
        {
          "internalType": "address",
          "name": "newOwner",
          "type": "address"
        }
      ],
      "name": "transferOwnership",
      "outputs": [],
      "stateMutability": "nonpayable",
      "type": "function"
    },
    {
      "inputs": [
        {
          "internalType": "uint256",
          "name": "",
          "type": "uint256"
        }
      ],
      "name": "uri",
      "outputs": [
        {
          "internalType": "string",
          "name": "",
          "type": "string"
        }
      ],
      "stateMutability": "view",
      "type": "function"
    },
    {
      "inputs": [
        {
          "internalType": "address payable",
          "name": "_to",
          "type": "address"
        },
        {
          "internalType": "uint256",
          "name": "_value",
          "type": "uint256"
        }
      ],
      "name": "withdraw",
      "outputs": [],
      "stateMutability": "nonpayable",
      "type": "function"
    }
  ],
  "bytecode": "0x60806040523480156200001157600080fd5b50604051620050eb380380620050eb833981810160405281019062000037919062000272565b604051806020016040528060008152506200005881620000c160201b60201c565b50620000796200006d620000dd60201b60201c565b620000e560201b60201c565b80600560006101000a81548173ffffffffffffffffffffffffffffffffffffffff021916908373ffffffffffffffffffffffffffffffffffffffff1602179055505062000351565b8060029080519060200190620000d9929190620001ab565b5050565b600033905090565b6000600360009054906101000a900473ffffffffffffffffffffffffffffffffffffffff16905081600360006101000a81548173ffffffffffffffffffffffffffffffffffffffff021916908373ffffffffffffffffffffffffffffffffffffffff1602179055508173ffffffffffffffffffffffffffffffffffffffff168173ffffffffffffffffffffffffffffffffffffffff167f8be0079c531659141344cd1fd0a4f28419497f9722a3daafe3b4186f6b6457e060405160405180910390a35050565b828054620001b990620002d2565b90600052602060002090601f016020900481019282620001dd576000855562000229565b82601f10620001f857805160ff191683800117855562000229565b8280016001018555821562000229579182015b82811115620002285782518255916020019190600101906200020b565b5b5090506200023891906200023c565b5090565b5b80821115620002575760008160009055506001016200023d565b5090565b6000815190506200026c8162000337565b92915050565b6000602082840312156200028557600080fd5b600062000295848285016200025b565b91505092915050565b6000620002ab82620002b2565b9050919050565b600073ffffffffffffffffffffffffffffffffffffffff82169050919050565b60006002820490506001821680620002eb57607f821691505b6020821081141562000302576200030162000308565b5b50919050565b7f4e487b7100000000000000000000000000000000000000000000000000000000600052602260045260246000fd5b62000342816200029e565b81146200034e57600080fd5b50565b614d8a80620003616000396000f3fe608060405234801561001057600080fd5b50600436106101a85760003560e01c80636b20c454116100f9578063bd85b03911610097578063f242432a11610071578063f242432a146104d7578063f2fde38b146104f3578063f3fef3a31461050f578063f5298aca1461052b576101a8565b8063bd85b03914610447578063e94b0dd214610477578063e985e9c5146104a7576101a8565b806387962dcc116100d357806387962dcc146103c15780638da5cb5b146103f1578063a22cb4651461040f578063b6b55f251461042b576101a8565b80636b20c4541461037f578063715018a61461039b578063731133e9146103a5576101a8565b806326a4e8d2116101665780633bb60495116101405780633bb60495146102e75780633e5779ee146103035780634e1273f41461031f5780634f558e791461034f576101a8565b806326a4e8d2146102935780632eb2c2d6146102af57806337da577c146102cb576101a8565b8062fdd58e146101ad57806301ffc9a7146101dd57806302fe53051461020d5780630e89341c1461022957806310fe9ae8146102595780631f7fdffa14610277575b600080fd5b6101c760048036038101906101c29190613855565b610547565b6040516101d4919061429d565b60405180910390f35b6101f760048036038101906101f291906139f0565b610610565b6040516102049190614040565b60405180910390f35b61022760048036038101906102229190613a42565b6106f2565b005b610243600480360381019061023e9190613a83565b61077a565b604051610250919061405b565b60405180910390f35b61026161080e565b60405161026e9190613eaa565b60405180910390f35b610291600480360381019061028c919061376e565b610838565b005b6102ad60048036038101906102a89190613500565b6109d7565b005b6102c960048036038101906102c491906135a1565b610a97565b005b6102e560048036038101906102e09190613ae8565b610b38565b005b61030160048036038101906102fc9190613ae8565b610c14565b005b61031d60048036038101906103189190613aac565b610cf1565b005b6103396004803603810190610334919061395b565b610e41565b6040516103469190613fe7565b60405180910390f35b61036960048036038101906103649190613a83565b610ff2565b6040516103769190614040565b60405180910390f35b610399600480360381019061039491906136ef565b611006565b005b6103a36110a3565b005b6103bf60048036038101906103ba91906138e0565b61112b565b005b6103db60048036038101906103d69190613a83565b61130b565b6040516103e8919061429d565b60405180910390f35b6103f9611323565b6040516104069190613eaa565b60405180910390f35b61042960048036038101906104249190613819565b61134d565b005b61044560048036038101906104409190613a83565b611363565b005b610461600480360381019061045c9190613a83565b61145f565b60405161046e919061429d565b60405180910390f35b610491600480360381019061048c9190613a83565b61147c565b60405161049e9190613eaa565b60405180910390f35b6104c160048036038101906104bc9190613565565b6114af565b6040516104ce9190614040565b60405180910390f35b6104f160048036038101906104ec9190613660565b611543565b005b61050d60048036038101906105089190613500565b6115e4565b005b61052960048036038101906105249190613529565b6116dc565b005b61054560048036038101906105409190613891565b611766565b005b60008073ffffffffffffffffffffffffffffffffffffffff168373ffffffffffffffffffffffffffffffffffffffff1614156105b8576040517f08c379a00000000000000000000000000000000000000000000000000000000081526004016105af906140bd565b60405180910390fd5b60008083815260200190815260200160002060008473ffffffffffffffffffffffffffffffffffffffff1673ffffffffffffffffffffffffffffffffffffffff16815260200190815260200160002054905092915050565b60007fd9b67a26000000000000000000000000000000000000000000000000000000007bffffffffffffffffffffffffffffffffffffffffffffffffffffffff1916827bffffffffffffffffffffffffffffffffffffffffffffffffffffffff191614806106db57507f0e89341c000000000000000000000000000000000000000000000000000000007bffffffffffffffffffffffffffffffffffffffffffffffffffffffff1916827bffffffffffffffffffffffffffffffffffffffffffffffffffffffff1916145b806106eb57506106ea82611803565b5b9050919050565b6106fa61186d565b73ffffffffffffffffffffffffffffffffffffffff16610718611323565b73ffffffffffffffffffffffffffffffffffffffff161461076e576040517f08c379a0000000000000000000000000000000000000000000000000000000008152600401610765906141bd565b60405180910390fd5b61077781611875565b50565b606060028054610789906145b9565b80601f01602080910402602001604051908101604052809291908181526020018280546107b5906145b9565b80156108025780601f106107d757610100808354040283529160200191610802565b820191906000526020600020905b8154815290600101906020018083116107e557829003601f168201915b50505050509050919050565b6000600560009054906101000a900473ffffffffffffffffffffffffffffffffffffffff16905090565b61084061186d565b73ffffffffffffffffffffffffffffffffffffffff1661085e611323565b73ffffffffffffffffffffffffffffffffffffffff16146108b4576040517f08c379a00000000000000000000000000000000000000000000000000000000081526004016108ab906141bd565b60405180910390fd5b60005b83518110156109c457600760008583815181106108fd577f4e487b7100000000000000000000000000000000000000000000000000000000600052603260045260246000fd5b602002602001015181526020019081526020016000205483828151811061094d577f4e487b7100000000000000000000000000000000000000000000000000000000600052603260045260246000fd5b602002602001015161099e868481518110610991577f4e487b7100000000000000000000000000000000000000000000000000000000600052603260045260246000fd5b602002602001015161145f565b6109a89190614431565b11156109b357600080fd5b806109bd9061461c565b90506108b7565b506109d18484848461188f565b50505050565b6109df61186d565b73ffffffffffffffffffffffffffffffffffffffff166109fd611323565b73ffffffffffffffffffffffffffffffffffffffff1614610a53576040517f08c379a0000000000000000000000000000000000000000000000000000000008152600401610a4a906141bd565b60405180910390fd5b80600560006101000a81548173ffffffffffffffffffffffffffffffffffffffff021916908373ffffffffffffffffffffffffffffffffffffffff16021790555050565b610a9f61186d565b73ffffffffffffffffffffffffffffffffffffffff168573ffffffffffffffffffffffffffffffffffffffff161480610ae55750610ae485610adf61186d565b6114af565b5b610b24576040517f08c379a0000000000000000000000000000000000000000000000000000000008152600401610b1b9061415d565b60405180910390fd5b610b318585858585611af9565b5050505050565b610b40611323565b73ffffffffffffffffffffffffffffffffffffffff163373ffffffffffffffffffffffffffffffffffffffff1614610bf7576008600083815260200190815260200160002060009054906101000a900473ffffffffffffffffffffffffffffffffffffffff1673ffffffffffffffffffffffffffffffffffffffff163373ffffffffffffffffffffffffffffffffffffffff161415610bf2578060076000848152602001908152602001600020819055505b610c10565b8060076000848152602001908152602001600020819055505b5050565b600081610c208461145f565b610c2a9190614487565b1015610c3557600080fd5b610c3d611323565b73ffffffffffffffffffffffffffffffffffffffff163373ffffffffffffffffffffffffffffffffffffffff1614610ced576008600083815260200190815260200160002060009054906101000a900473ffffffffffffffffffffffffffffffffffffffff1673ffffffffffffffffffffffffffffffffffffffff163373ffffffffffffffffffffffffffffffffffffffff161415610cec57610ce1338383611e59565b610ceb3382612076565b5b5b5050565b610cf9611323565b73ffffffffffffffffffffffffffffffffffffffff163373ffffffffffffffffffffffffffffffffffffffff1614610dea576008600083815260200190815260200160002060009054906101000a900473ffffffffffffffffffffffffffffffffffffffff1673ffffffffffffffffffffffffffffffffffffffff163373ffffffffffffffffffffffffffffffffffffffff161415610de557806008600084815260200190815260200160002060006101000a81548173ffffffffffffffffffffffffffffffffffffffff021916908373ffffffffffffffffffffffffffffffffffffffff1602179055505b610e3d565b806008600084815260200190815260200160002060006101000a81548173ffffffffffffffffffffffffffffffffffffffff021916908373ffffffffffffffffffffffffffffffffffffffff1602179055505b5050565b60608151835114610e87576040517f08c379a0000000000000000000000000000000000000000000000000000000008152600401610e7e9061423d565b60405180910390fd5b6000835167ffffffffffffffff811115610eca577f4e487b7100000000000000000000000000000000000000000000000000000000600052604160045260246000fd5b604051908082528060200260200182016040528015610ef85781602001602082028036833780820191505090505b50905060005b8451811015610fe757610f91858281518110610f43577f4e487b7100000000000000000000000000000000000000000000000000000000600052603260045260246000fd5b6020026020010151858381518110610f84577f4e487b7100000000000000000000000000000000000000000000000000000000600052603260045260246000fd5b6020026020010151610547565b828281518110610fca577f4e487b7100000000000000000000000000000000000000000000000000000000600052603260045260246000fd5b60200260200101818152505080610fe09061461c565b9050610efe565b508091505092915050565b600080610ffe8361145f565b119050919050565b61100e61186d565b73ffffffffffffffffffffffffffffffffffffffff168373ffffffffffffffffffffffffffffffffffffffff16148061105457506110538361104e61186d565b6114af565b5b611093576040517f08c379a000000000000000000000000000000000000000000000000000000000815260040161108a9061411d565b60405180910390fd5b61109e838383612171565b505050565b6110ab61186d565b73ffffffffffffffffffffffffffffffffffffffff166110c9611323565b73ffffffffffffffffffffffffffffffffffffffff161461111f576040517f08c379a0000000000000000000000000000000000000000000000000000000008152600401611116906141bd565b60405180910390fd5b611129600061246e565b565b6007600084815260200190815260200160002054826111498561145f565b6111539190614431565b111561115e57600080fd5b611166611323565b73ffffffffffffffffffffffffffffffffffffffff163373ffffffffffffffffffffffffffffffffffffffff161461121a576008600084815260200190815260200160002060009054906101000a900473ffffffffffffffffffffffffffffffffffffffff1673ffffffffffffffffffffffffffffffffffffffff163373ffffffffffffffffffffffffffffffffffffffff1614156112155761120882611363565b61121484848484612534565b5b611305565b600073ffffffffffffffffffffffffffffffffffffffff166008600085815260200190815260200160002060009054906101000a900473ffffffffffffffffffffffffffffffffffffffff1673ffffffffffffffffffffffffffffffffffffffff1614156112ee57336008600085815260200190815260200160002060006101000a81548173ffffffffffffffffffffffffffffffffffffffff021916908373ffffffffffffffffffffffffffffffffffffffff1602179055506112dd82611363565b6112e984848484612534565b611304565b6112f782611363565b61130384848484612534565b5b5b50505050565b60076020528060005260406000206000915090505481565b6000600360009054906101000a900473ffffffffffffffffffffffffffffffffffffffff16905090565b61135f61135861186d565b83836126ca565b5050565b600560009054906101000a900473ffffffffffffffffffffffffffffffffffffffff1673ffffffffffffffffffffffffffffffffffffffff166323b872dd3330846040518463ffffffff1660e01b81526004016113c293929190613f56565b602060405180830381600087803b1580156113dc57600080fd5b505af11580156113f0573d6000803e3d6000fd5b505050506040513d601f19601f8201168201806040525081019061141491906139c7565b5061141d612837565b61145c576040517f08c379a0000000000000000000000000000000000000000000000000000000008152600401611453906141dd565b60405180910390fd5b50565b600060046000838152602001908152602001600020549050919050565b60086020528060005260406000206000915054906101000a900473ffffffffffffffffffffffffffffffffffffffff1681565b6000600160008473ffffffffffffffffffffffffffffffffffffffff1673ffffffffffffffffffffffffffffffffffffffff16815260200190815260200160002060008373ffffffffffffffffffffffffffffffffffffffff1673ffffffffffffffffffffffffffffffffffffffff16815260200190815260200160002060009054906101000a900460ff16905092915050565b61154b61186d565b73ffffffffffffffffffffffffffffffffffffffff168573ffffffffffffffffffffffffffffffffffffffff16148061159157506115908561158b61186d565b6114af565b5b6115d0576040517f08c379a00000000000000000000000000000000000000000000000000000000081526004016115c79061411d565b60405180910390fd5b6115dd8585858585612875565b5050505050565b6115ec61186d565b73ffffffffffffffffffffffffffffffffffffffff1661160a611323565b73ffffffffffffffffffffffffffffffffffffffff1614611660576040517f08c379a0000000000000000000000000000000000000000000000000000000008152600401611657906141bd565b60405180910390fd5b600073ffffffffffffffffffffffffffffffffffffffff168173ffffffffffffffffffffffffffffffffffffffff1614156116d0576040517f08c379a00000000000000000000000000000000000000000000000000000000081526004016116c7906140dd565b60405180910390fd5b6116d98161246e565b50565b6116e461186d565b73ffffffffffffffffffffffffffffffffffffffff16611702611323565b73ffffffffffffffffffffffffffffffffffffffff1614611758576040517f08c379a000000000000000000000000000000000000000000000000000000000815260040161174f906141bd565b60405180910390fd5b6117628282612076565b5050565b61176e61186d565b73ffffffffffffffffffffffffffffffffffffffff168373ffffffffffffffffffffffffffffffffffffffff1614806117b457506117b3836117ae61186d565b6114af565b5b6117f3576040517f08c379a00000000000000000000000000000000000000000000000000000000081526004016117ea9061411d565b60405180910390fd5b6117fe838383611e59565b505050565b60007f01ffc9a7000000000000000000000000000000000000000000000000000000007bffffffffffffffffffffffffffffffffffffffffffffffffffffffff1916827bffffffffffffffffffffffffffffffffffffffffffffffffffffffff1916149050919050565b600033905090565b806002908051906020019061188b9291906131ce565b5050565b600073ffffffffffffffffffffffffffffffffffffffff168473ffffffffffffffffffffffffffffffffffffffff1614156118ff576040517f08c379a00000000000000000000000000000000000000000000000000000000081526004016118f69061427d565b60405180910390fd5b8151835114611943576040517f08c379a000000000000000000000000000000000000000000000000000000000815260040161193a9061425d565b60405180910390fd5b600061194d61186d565b905061195e81600087878787612af7565b60005b8451811015611a63578381815181106119a3577f4e487b7100000000000000000000000000000000000000000000000000000000600052603260045260246000fd5b60200260200101516000808784815181106119e7577f4e487b7100000000000000000000000000000000000000000000000000000000600052603260045260246000fd5b6020026020010151815260200190815260200160002060008873ffffffffffffffffffffffffffffffffffffffff1673ffffffffffffffffffffffffffffffffffffffff1681526020019081526020016000206000828254611a499190614431565b925050819055508080611a5b9061461c565b915050611961565b508473ffffffffffffffffffffffffffffffffffffffff16600073ffffffffffffffffffffffffffffffffffffffff168273ffffffffffffffffffffffffffffffffffffffff167f4a39dc06d4c0dbc64b70af90fd698a233a518aa5d07e595d983b8c0526c8f7fb8787604051611adb929190614009565b60405180910390a4611af281600087878787612b0d565b5050505050565b8151835114611b3d576040517f08c379a0000000000000000000000000000000000000000000000000000000008152600401611b349061425d565b60405180910390fd5b600073ffffffffffffffffffffffffffffffffffffffff168473ffffffffffffffffffffffffffffffffffffffff161415611bad576040517f08c379a0000000000000000000000000000000000000000000000000000000008152600401611ba49061413d565b60405180910390fd5b6000611bb761186d565b9050611bc7818787878787612af7565b60005b8451811015611dc4576000858281518110611c0e577f4e487b7100000000000000000000000000000000000000000000000000000000600052603260045260246000fd5b602002602001015190506000858381518110611c53577f4e487b7100000000000000000000000000000000000000000000000000000000600052603260045260246000fd5b60200260200101519050600080600084815260200190815260200160002060008b73ffffffffffffffffffffffffffffffffffffffff1673ffffffffffffffffffffffffffffffffffffffff16815260200190815260200160002054905081811015611cf4576040517f08c379a0000000000000000000000000000000000000000000000000000000008152600401611ceb9061419d565b60405180910390fd5b81810360008085815260200190815260200160002060008c73ffffffffffffffffffffffffffffffffffffffff1673ffffffffffffffffffffffffffffffffffffffff168152602001908152602001600020819055508160008085815260200190815260200160002060008b73ffffffffffffffffffffffffffffffffffffffff1673ffffffffffffffffffffffffffffffffffffffff1681526020019081526020016000206000828254611da99190614431565b9250508190555050505080611dbd9061461c565b9050611bca565b508473ffffffffffffffffffffffffffffffffffffffff168673ffffffffffffffffffffffffffffffffffffffff168273ffffffffffffffffffffffffffffffffffffffff167f4a39dc06d4c0dbc64b70af90fd698a233a518aa5d07e595d983b8c0526c8f7fb8787604051611e3b929190614009565b60405180910390a4611e51818787878787612b0d565b505050505050565b600073ffffffffffffffffffffffffffffffffffffffff168373ffffffffffffffffffffffffffffffffffffffff161415611ec9576040517f08c379a0000000000000000000000000000000000000000000000000000000008152600401611ec09061417d565b60405180910390fd5b6000611ed361186d565b9050611f0381856000611ee587612cf4565b611eee87612cf4565b60405180602001604052806000815250612af7565b600080600085815260200190815260200160002060008673ffffffffffffffffffffffffffffffffffffffff1673ffffffffffffffffffffffffffffffffffffffff16815260200190815260200160002054905082811015611f9a576040517f08c379a0000000000000000000000000000000000000000000000000000000008152600401611f91906140fd565b60405180910390fd5b82810360008086815260200190815260200160002060008773ffffffffffffffffffffffffffffffffffffffff1673ffffffffffffffffffffffffffffffffffffffff16815260200190815260200160002081905550600073ffffffffffffffffffffffffffffffffffffffff168573ffffffffffffffffffffffffffffffffffffffff168373ffffffffffffffffffffffffffffffffffffffff167fc3d58168c5ae7397731d063d5bbf3d657854427343f4c083240f7aacaa2d0f6287876040516120679291906142b8565b60405180910390a45050505050565b600560009054906101000a900473ffffffffffffffffffffffffffffffffffffffff1673ffffffffffffffffffffffffffffffffffffffff1663a9059cbb83836040518363ffffffff1660e01b81526004016120d3929190613ec5565b602060405180830381600087803b1580156120ed57600080fd5b505af1158015612101573d6000803e3d6000fd5b505050506040513d601f19601f8201168201806040525081019061212591906139c7565b5061212e612837565b61216d576040517f08c379a0000000000000000000000000000000000000000000000000000000008152600401612164906141fd565b60405180910390fd5b5050565b600073ffffffffffffffffffffffffffffffffffffffff168373ffffffffffffffffffffffffffffffffffffffff1614156121e1576040517f08c379a00000000000000000000000000000000000000000000000000000000081526004016121d89061417d565b60405180910390fd5b8051825114612225576040517f08c379a000000000000000000000000000000000000000000000000000000000815260040161221c9061425d565b60405180910390fd5b600061222f61186d565b905061224f81856000868660405180602001604052806000815250612af7565b60005b83518110156123e8576000848281518110612296577f4e487b7100000000000000000000000000000000000000000000000000000000600052603260045260246000fd5b6020026020010151905060008483815181106122db577f4e487b7100000000000000000000000000000000000000000000000000000000600052603260045260246000fd5b60200260200101519050600080600084815260200190815260200160002060008973ffffffffffffffffffffffffffffffffffffffff1673ffffffffffffffffffffffffffffffffffffffff1681526020019081526020016000205490508181101561237c576040517f08c379a0000000000000000000000000000000000000000000000000000000008152600401612373906140fd565b60405180910390fd5b81810360008085815260200190815260200160002060008a73ffffffffffffffffffffffffffffffffffffffff1673ffffffffffffffffffffffffffffffffffffffff1681526020019081526020016000208190555050505080806123e09061461c565b915050612252565b50600073ffffffffffffffffffffffffffffffffffffffff168473ffffffffffffffffffffffffffffffffffffffff168273ffffffffffffffffffffffffffffffffffffffff167f4a39dc06d4c0dbc64b70af90fd698a233a518aa5d07e595d983b8c0526c8f7fb8686604051612460929190614009565b60405180910390a450505050565b6000600360009054906101000a900473ffffffffffffffffffffffffffffffffffffffff16905081600360006101000a81548173ffffffffffffffffffffffffffffffffffffffff021916908373ffffffffffffffffffffffffffffffffffffffff1602179055508173ffffffffffffffffffffffffffffffffffffffff168173ffffffffffffffffffffffffffffffffffffffff167f8be0079c531659141344cd1fd0a4f28419497f9722a3daafe3b4186f6b6457e060405160405180910390a35050565b600073ffffffffffffffffffffffffffffffffffffffff168473ffffffffffffffffffffffffffffffffffffffff1614156125a4576040517f08c379a000000000000000000000000000000000000000000000000000000000815260040161259b9061427d565b60405180910390fd5b60006125ae61186d565b90506125cf816000876125c088612cf4565b6125c988612cf4565b87612af7565b8260008086815260200190815260200160002060008773ffffffffffffffffffffffffffffffffffffffff1673ffffffffffffffffffffffffffffffffffffffff168152602001908152602001600020600082825461262e9190614431565b925050819055508473ffffffffffffffffffffffffffffffffffffffff16600073ffffffffffffffffffffffffffffffffffffffff168273ffffffffffffffffffffffffffffffffffffffff167fc3d58168c5ae7397731d063d5bbf3d657854427343f4c083240f7aacaa2d0f6287876040516126ac9291906142b8565b60405180910390a46126c381600087878787612dba565b5050505050565b8173ffffffffffffffffffffffffffffffffffffffff168373ffffffffffffffffffffffffffffffffffffffff161415612739576040517f08c379a00000000000000000000000000000000000000000000000000000000081526004016127309061421d565b60405180910390fd5b80600160008573ffffffffffffffffffffffffffffffffffffffff1673ffffffffffffffffffffffffffffffffffffffff16815260200190815260200160002060008473ffffffffffffffffffffffffffffffffffffffff1673ffffffffffffffffffffffffffffffffffffffff16815260200190815260200160002060006101000a81548160ff0219169083151502179055508173ffffffffffffffffffffffffffffffffffffffff168373ffffffffffffffffffffffffffffffffffffffff167f17307eab39ab6107e8899845ad3d59bd9653f200f220920489ca2b5937696c318360405161282a9190614040565b60405180910390a3505050565b600080600090503d60008114612854576020811461285d57612869565b60019150612869565b60206000803e60005191505b50600081141591505090565b600073ffffffffffffffffffffffffffffffffffffffff168473ffffffffffffffffffffffffffffffffffffffff1614156128e5576040517f08c379a00000000000000000000000000000000000000000000000000000000081526004016128dc9061413d565b60405180910390fd5b60006128ef61186d565b905061290f81878761290088612cf4565b61290988612cf4565b87612af7565b600080600086815260200190815260200160002060008873ffffffffffffffffffffffffffffffffffffffff1673ffffffffffffffffffffffffffffffffffffffff168152602001908152602001600020549050838110156129a6576040517f08c379a000000000000000000000000000000000000000000000000000000000815260040161299d9061419d565b60405180910390fd5b83810360008087815260200190815260200160002060008973ffffffffffffffffffffffffffffffffffffffff1673ffffffffffffffffffffffffffffffffffffffff168152602001908152602001600020819055508360008087815260200190815260200160002060008873ffffffffffffffffffffffffffffffffffffffff1673ffffffffffffffffffffffffffffffffffffffff1681526020019081526020016000206000828254612a5b9190614431565b925050819055508573ffffffffffffffffffffffffffffffffffffffff168773ffffffffffffffffffffffffffffffffffffffff168373ffffffffffffffffffffffffffffffffffffffff167fc3d58168c5ae7397731d063d5bbf3d657854427343f4c083240f7aacaa2d0f628888604051612ad89291906142b8565b60405180910390a4612aee828888888888612dba565b50505050505050565b612b05868686868686612fa1565b505050505050565b612b2c8473ffffffffffffffffffffffffffffffffffffffff166131b3565b15612cec578373ffffffffffffffffffffffffffffffffffffffff1663bc197c8187878686866040518663ffffffff1660e01b8152600401612b72959493929190613eee565b602060405180830381600087803b158015612b8c57600080fd5b505af1925050508015612bbd57506040513d601f19601f82011682018060405250810190612bba9190613a19565b60015b612c6357612bc96146f2565b806308c379a01415612c265750612bde614c4b565b80612be95750612c28565b806040517f08c379a0000000000000000000000000000000000000000000000000000000008152600401612c1d919061405b565b60405180910390fd5b505b6040517f08c379a0000000000000000000000000000000000000000000000000000000008152600401612c5a9061407d565b60405180910390fd5b63bc197c8160e01b7bffffffffffffffffffffffffffffffffffffffffffffffffffffffff1916817bffffffffffffffffffffffffffffffffffffffffffffffffffffffff191614612cea576040517f08c379a0000000000000000000000000000000000000000000000000000000008152600401612ce19061409d565b60405180910390fd5b505b505050505050565b60606000600167ffffffffffffffff811115612d39577f4e487b7100000000000000000000000000000000000000000000000000000000600052604160045260246000fd5b604051908082528060200260200182016040528015612d675781602001602082028036833780820191505090505b5090508281600081518110612da5577f4e487b7100000000000000000000000000000000000000000000000000000000600052603260045260246000fd5b60200260200101818152505080915050919050565b612dd98473ffffffffffffffffffffffffffffffffffffffff166131b3565b15612f99578373ffffffffffffffffffffffffffffffffffffffff1663f23a6e6187878686866040518663ffffffff1660e01b8152600401612e1f959493929190613f8d565b602060405180830381600087803b158015612e3957600080fd5b505af1925050508015612e6a57506040513d601f19601f82011682018060405250810190612e679190613a19565b60015b612f1057612e766146f2565b806308c379a01415612ed35750612e8b614c4b565b80612e965750612ed5565b806040517f08c379a0000000000000000000000000000000000000000000000000000000008152600401612eca919061405b565b60405180910390fd5b505b6040517f08c379a0000000000000000000000000000000000000000000000000000000008152600401612f079061407d565b60405180910390fd5b63f23a6e6160e01b7bffffffffffffffffffffffffffffffffffffffffffffffffffffffff1916817bffffffffffffffffffffffffffffffffffffffffffffffffffffffff191614612f97576040517f08c379a0000000000000000000000000000000000000000000000000000000008152600401612f8e9061409d565b60405180910390fd5b505b505050505050565b612faf8686868686866131c6565b600073ffffffffffffffffffffffffffffffffffffffff168573ffffffffffffffffffffffffffffffffffffffff1614156130ad5760005b83518110156130ab57828181518110613029577f4e487b7100000000000000000000000000000000000000000000000000000000600052603260045260246000fd5b60200260200101516004600086848151811061306e577f4e487b7100000000000000000000000000000000000000000000000000000000600052603260045260246000fd5b6020026020010151815260200190815260200160002060008282546130939190614431565b92505081905550806130a49061461c565b9050612fe7565b505b600073ffffffffffffffffffffffffffffffffffffffff168473ffffffffffffffffffffffffffffffffffffffff1614156131ab5760005b83518110156131a957828181518110613127577f4e487b7100000000000000000000000000000000000000000000000000000000600052603260045260246000fd5b60200260200101516004600086848151811061316c577f4e487b7100000000000000000000000000000000000000000000000000000000600052603260045260246000fd5b6020026020010151815260200190815260200160002060008282546131919190614487565b92505081905550806131a29061461c565b90506130e5565b505b505050505050565b600080823b905060008111915050919050565b505050505050565b8280546131da906145b9565b90600052602060002090601f0160209004810192826131fc5760008555613243565b82601f1061321557805160ff1916838001178555613243565b82800160010185558215613243579182015b82811115613242578251825591602001919060010190613227565b5b5090506132509190613254565b5090565b5b8082111561326d576000816000905550600101613255565b5090565b600061328461327f84614306565b6142e1565b905080838252602082019050828560208602820111156132a357600080fd5b60005b858110156132d357816132b988826133c5565b8452602084019350602083019250506001810190506132a6565b5050509392505050565b60006132f06132eb84614332565b6142e1565b9050808382526020820190508285602086028201111561330f57600080fd5b60005b8581101561333f578161332588826134eb565b845260208401935060208301925050600181019050613312565b5050509392505050565b600061335c6133578461435e565b6142e1565b90508281526020810184848401111561337457600080fd5b61337f848285614577565b509392505050565b600061339a6133958461438f565b6142e1565b9050828152602081018484840111156133b257600080fd5b6133bd848285614577565b509392505050565b6000813590506133d481614ce1565b92915050565b6000813590506133e981614cf8565b92915050565b600082601f83011261340057600080fd5b8135613410848260208601613271565b91505092915050565b600082601f83011261342a57600080fd5b813561343a8482602086016132dd565b91505092915050565b60008135905061345281614d0f565b92915050565b60008151905061346781614d0f565b92915050565b60008135905061347c81614d26565b92915050565b60008151905061349181614d26565b92915050565b600082601f8301126134a857600080fd5b81356134b8848260208601613349565b91505092915050565b600082601f8301126134d257600080fd5b81356134e2848260208601613387565b91505092915050565b6000813590506134fa81614d3d565b92915050565b60006020828403121561351257600080fd5b6000613520848285016133c5565b91505092915050565b6000806040838503121561353c57600080fd5b600061354a858286016133da565b925050602061355b858286016134eb565b9150509250929050565b6000806040838503121561357857600080fd5b6000613586858286016133c5565b9250506020613597858286016133c5565b9150509250929050565b600080600080600060a086880312156135b957600080fd5b60006135c7888289016133c5565b95505060206135d8888289016133c5565b945050604086013567ffffffffffffffff8111156135f557600080fd5b61360188828901613419565b935050606086013567ffffffffffffffff81111561361e57600080fd5b61362a88828901613419565b925050608086013567ffffffffffffffff81111561364757600080fd5b61365388828901613497565b9150509295509295909350565b600080600080600060a0868803121561367857600080fd5b6000613686888289016133c5565b9550506020613697888289016133c5565b94505060406136a8888289016134eb565b93505060606136b9888289016134eb565b925050608086013567ffffffffffffffff8111156136d657600080fd5b6136e288828901613497565b9150509295509295909350565b60008060006060848603121561370457600080fd5b6000613712868287016133c5565b935050602084013567ffffffffffffffff81111561372f57600080fd5b61373b86828701613419565b925050604084013567ffffffffffffffff81111561375857600080fd5b61376486828701613419565b9150509250925092565b6000806000806080858703121561378457600080fd5b6000613792878288016133c5565b945050602085013567ffffffffffffffff8111156137af57600080fd5b6137bb87828801613419565b935050604085013567ffffffffffffffff8111156137d857600080fd5b6137e487828801613419565b925050606085013567ffffffffffffffff81111561380157600080fd5b61380d87828801613497565b91505092959194509250565b6000806040838503121561382c57600080fd5b600061383a858286016133c5565b925050602061384b85828601613443565b9150509250929050565b6000806040838503121561386857600080fd5b6000613876858286016133c5565b9250506020613887858286016134eb565b9150509250929050565b6000806000606084860312156138a657600080fd5b60006138b4868287016133c5565b93505060206138c5868287016134eb565b92505060406138d6868287016134eb565b9150509250925092565b600080600080608085870312156138f657600080fd5b6000613904878288016133c5565b9450506020613915878288016134eb565b9350506040613926878288016134eb565b925050606085013567ffffffffffffffff81111561394357600080fd5b61394f87828801613497565b91505092959194509250565b6000806040838503121561396e57600080fd5b600083013567ffffffffffffffff81111561398857600080fd5b613994858286016133ef565b925050602083013567ffffffffffffffff8111156139b157600080fd5b6139bd85828601613419565b9150509250929050565b6000602082840312156139d957600080fd5b60006139e784828501613458565b91505092915050565b600060208284031215613a0257600080fd5b6000613a108482850161346d565b91505092915050565b600060208284031215613a2b57600080fd5b6000613a3984828501613482565b91505092915050565b600060208284031215613a5457600080fd5b600082013567ffffffffffffffff811115613a6e57600080fd5b613a7a848285016134c1565b91505092915050565b600060208284031215613a9557600080fd5b6000613aa3848285016134eb565b91505092915050565b60008060408385031215613abf57600080fd5b6000613acd858286016134eb565b9250506020613ade858286016133c5565b9150509250929050565b60008060408385031215613afb57600080fd5b6000613b09858286016134eb565b9250506020613b1a858286016134eb565b9150509250929050565b6000613b308383613e8c565b60208301905092915050565b613b4581614541565b82525050565b613b54816144bb565b82525050565b6000613b65826143d0565b613b6f81856143fe565b9350613b7a836143c0565b8060005b83811015613bab578151613b928882613b24565b9750613b9d836143f1565b925050600181019050613b7e565b5085935050505092915050565b613bc1816144df565b82525050565b6000613bd2826143db565b613bdc818561440f565b9350613bec818560208601614586565b613bf581614714565b840191505092915050565b6000613c0b826143e6565b613c158185614420565b9350613c25818560208601614586565b613c2e81614714565b840191505092915050565b6000613c46603483614420565b9150613c5182614732565b604082019050919050565b6000613c69602883614420565b9150613c7482614781565b604082019050919050565b6000613c8c602b83614420565b9150613c97826147d0565b604082019050919050565b6000613caf602683614420565b9150613cba8261481f565b604082019050919050565b6000613cd2602483614420565b9150613cdd8261486e565b604082019050919050565b6000613cf5602983614420565b9150613d00826148bd565b604082019050919050565b6000613d18602583614420565b9150613d238261490c565b604082019050919050565b6000613d3b603283614420565b9150613d468261495b565b604082019050919050565b6000613d5e602383614420565b9150613d69826149aa565b604082019050919050565b6000613d81602a83614420565b9150613d8c826149f9565b604082019050919050565b6000613da4602083614420565b9150613daf82614a48565b602082019050919050565b6000613dc7602183614420565b9150613dd282614a71565b604082019050919050565b6000613dea602283614420565b9150613df582614ac0565b604082019050919050565b6000613e0d602983614420565b9150613e1882614b0f565b604082019050919050565b6000613e30602983614420565b9150613e3b82614b5e565b604082019050919050565b6000613e53602883614420565b9150613e5e82614bad565b604082019050919050565b6000613e76602183614420565b9150613e8182614bfc565b604082019050919050565b613e9581614537565b82525050565b613ea481614537565b82525050565b6000602082019050613ebf6000830184613b4b565b92915050565b6000604082019050613eda6000830185613b3c565b613ee76020830184613e9b565b9392505050565b600060a082019050613f036000830188613b4b565b613f106020830187613b4b565b8181036040830152613f228186613b5a565b90508181036060830152613f368185613b5a565b90508181036080830152613f4a8184613bc7565b90509695505050505050565b6000606082019050613f6b6000830186613b4b565b613f786020830185613b4b565b613f856040830184613e9b565b949350505050565b600060a082019050613fa26000830188613b4b565b613faf6020830187613b4b565b613fbc6040830186613e9b565b613fc96060830185613e9b565b8181036080830152613fdb8184613bc7565b90509695505050505050565b600060208201905081810360008301526140018184613b5a565b905092915050565b600060408201905081810360008301526140238185613b5a565b905081810360208301526140378184613b5a565b90509392505050565b60006020820190506140556000830184613bb8565b92915050565b600060208201905081810360008301526140758184613c00565b905092915050565b6000602082019050818103600083015261409681613c39565b9050919050565b600060208201905081810360008301526140b681613c5c565b9050919050565b600060208201905081810360008301526140d681613c7f565b9050919050565b600060208201905081810360008301526140f681613ca2565b9050919050565b6000602082019050818103600083015261411681613cc5565b9050919050565b6000602082019050818103600083015261413681613ce8565b9050919050565b6000602082019050818103600083015261415681613d0b565b9050919050565b6000602082019050818103600083015261417681613d2e565b9050919050565b6000602082019050818103600083015261419681613d51565b9050919050565b600060208201905081810360008301526141b681613d74565b9050919050565b600060208201905081810360008301526141d681613d97565b9050919050565b600060208201905081810360008301526141f681613dba565b9050919050565b6000602082019050818103600083015261421681613ddd565b9050919050565b6000602082019050818103600083015261423681613e00565b9050919050565b6000602082019050818103600083015261425681613e23565b9050919050565b6000602082019050818103600083015261427681613e46565b9050919050565b6000602082019050818103600083015261429681613e69565b9050919050565b60006020820190506142b26000830184613e9b565b92915050565b60006040820190506142cd6000830185613e9b565b6142da6020830184613e9b565b9392505050565b60006142eb6142fc565b90506142f782826145eb565b919050565b6000604051905090565b600067ffffffffffffffff821115614321576143206146c3565b5b602082029050602081019050919050565b600067ffffffffffffffff82111561434d5761434c6146c3565b5b602082029050602081019050919050565b600067ffffffffffffffff821115614379576143786146c3565b5b61438282614714565b9050602081019050919050565b600067ffffffffffffffff8211156143aa576143a96146c3565b5b6143b382614714565b9050602081019050919050565b6000819050602082019050919050565b600081519050919050565b600081519050919050565b600081519050919050565b6000602082019050919050565b600082825260208201905092915050565b600082825260208201905092915050565b600082825260208201905092915050565b600061443c82614537565b915061444783614537565b9250827fffffffffffffffffffffffffffffffffffffffffffffffffffffffffffffffff0382111561447c5761447b614665565b5b828201905092915050565b600061449282614537565b915061449d83614537565b9250828210156144b0576144af614665565b5b828203905092915050565b60006144c682614517565b9050919050565b60006144d882614517565b9050919050565b60008115159050919050565b60007fffffffff0000000000000000000000000000000000000000000000000000000082169050919050565b600073ffffffffffffffffffffffffffffffffffffffff82169050919050565b6000819050919050565b600061454c82614553565b9050919050565b600061455e82614565565b9050919050565b600061457082614517565b9050919050565b82818337600083830152505050565b60005b838110156145a4578082015181840152602081019050614589565b838111156145b3576000848401525b50505050565b600060028204905060018216806145d157607f821691505b602082108114156145e5576145e4614694565b5b50919050565b6145f482614714565b810181811067ffffffffffffffff82111715614613576146126146c3565b5b80604052505050565b600061462782614537565b91507fffffffffffffffffffffffffffffffffffffffffffffffffffffffffffffffff82141561465a57614659614665565b5b600182019050919050565b7f4e487b7100000000000000000000000000000000000000000000000000000000600052601160045260246000fd5b7f4e487b7100000000000000000000000000000000000000000000000000000000600052602260045260246000fd5b7f4e487b7100000000000000000000000000000000000000000000000000000000600052604160045260246000fd5b600060033d11156147115760046000803e61470e600051614725565b90505b90565b6000601f19601f8301169050919050565b60008160e01c9050919050565b7f455243313135353a207472616e7366657220746f206e6f6e204552433131353560008201527f526563656976657220696d706c656d656e746572000000000000000000000000602082015250565b7f455243313135353a204552433131353552656365697665722072656a6563746560008201527f6420746f6b656e73000000000000000000000000000000000000000000000000602082015250565b7f455243313135353a2062616c616e636520717565727920666f7220746865207a60008201527f65726f2061646472657373000000000000000000000000000000000000000000602082015250565b7f4f776e61626c653a206e6577206f776e657220697320746865207a65726f206160008201527f6464726573730000000000000000000000000000000000000000000000000000602082015250565b7f455243313135353a206275726e20616d6f756e7420657863656564732062616c60008201527f616e636500000000000000000000000000000000000000000000000000000000602082015250565b7f455243313135353a2063616c6c6572206973206e6f74206f776e6572206e6f7260008201527f20617070726f7665640000000000000000000000000000000000000000000000602082015250565b7f455243313135353a207472616e7366657220746f20746865207a65726f20616460008201527f6472657373000000000000000000000000000000000000000000000000000000602082015250565b7f455243313135353a207472616e736665722063616c6c6572206973206e6f742060008201527f6f776e6572206e6f7220617070726f7665640000000000000000000000000000602082015250565b7f455243313135353a206275726e2066726f6d20746865207a65726f206164647260008201527f6573730000000000000000000000000000000000000000000000000000000000602082015250565b7f455243313135353a20696e73756666696369656e742062616c616e636520666f60008201527f72207472616e7366657200000000000000000000000000000000000000000000602082015250565b7f4f776e61626c653a2063616c6c6572206973206e6f7420746865206f776e6572600082015250565b7f496d67546f6b656e236465706f7369743a205452414e534645525f4641494c4560008201527f4400000000000000000000000000000000000000000000000000000000000000602082015250565b7f496d67546f6b656e2377697468647261773a205452414e534645525f4641494c60008201527f4544000000000000000000000000000000000000000000000000000000000000602082015250565b7f455243313135353a2073657474696e6720617070726f76616c2073746174757360008201527f20666f722073656c660000000000000000000000000000000000000000000000602082015250565b7f455243313135353a206163636f756e747320616e6420696473206c656e67746860008201527f206d69736d617463680000000000000000000000000000000000000000000000602082015250565b7f455243313135353a2069647320616e6420616d6f756e7473206c656e6774682060008201527f6d69736d61746368000000000000000000000000000000000000000000000000602082015250565b7f455243313135353a206d696e7420746f20746865207a65726f2061646472657360008201527f7300000000000000000000000000000000000000000000000000000000000000602082015250565b600060443d1015614c5b57614cde565b614c636142fc565b60043d036004823e80513d602482011167ffffffffffffffff82111715614c8b575050614cde565b808201805167ffffffffffffffff811115614ca95750505050614cde565b80602083010160043d038501811115614cc6575050505050614cde565b614cd5826020018501866145eb565b82955050505050505b90565b614cea816144bb565b8114614cf557600080fd5b50565b614d01816144cd565b8114614d0c57600080fd5b50565b614d18816144df565b8114614d2357600080fd5b50565b614d2f816144eb565b8114614d3a57600080fd5b50565b614d4681614537565b8114614d5157600080fd5b5056fea26469706673582212201fba3bb14dacf020003a5e46814465ba7b8dfdf66093102901e678d39b969ca064736f6c63430008040033",
  "linkReferences": {},
  "deployedLinkReferences": {}
}