{
  "_format": "hh-sol-artifact-1",
  "contractName": "Gether",
  "sourceName": "contracts/Gether.sol",
  "abi": [
    {
      "inputs": [
        {
          "internalType": "address",
          "name": "_tokenAdd",
          "type": "address"
        }
      ],
      "stateMutability": "nonpayable",
      "type": "constructor"
    },
    {
      "anonymous": false,
      "inputs": [
        {
          "indexed": true,
          "internalType": "address",
          "name": "account",
          "type": "address"
        },
        {
          "indexed": true,
          "internalType": "address",
          "name": "operator",
          "type": "address"
        },
        {
          "indexed": false,
          "internalType": "bool",
          "name": "approved",
          "type": "bool"
        }
      ],
      "name": "ApprovalForAll",
      "type": "event"
    },
    {
      "anonymous": false,
      "inputs": [
        {
          "indexed": true,
          "internalType": "address",
          "name": "previousOwner",
          "type": "address"
        },
        {
          "indexed": true,
          "internalType": "address",
          "name": "newOwner",
          "type": "address"
        }
      ],
      "name": "OwnershipTransferred",
      "type": "event"
    },
    {
      "anonymous": false,
      "inputs": [
        {
          "indexed": false,
          "internalType": "address",
          "name": "account",
          "type": "address"
        }
      ],
      "name": "Paused",
      "type": "event"
    },
    {
      "anonymous": false,
      "inputs": [
        {
          "indexed": true,
          "internalType": "address",
          "name": "operator",
          "type": "address"
        },
        {
          "indexed": true,
          "internalType": "address",
          "name": "from",
          "type": "address"
        },
        {
          "indexed": true,
          "internalType": "address",
          "name": "to",
          "type": "address"
        },
        {
          "indexed": false,
          "internalType": "uint256[]",
          "name": "ids",
          "type": "uint256[]"
        },
        {
          "indexed": false,
          "internalType": "uint256[]",
          "name": "values",
          "type": "uint256[]"
        }
      ],
      "name": "TransferBatch",
      "type": "event"
    },
    {
      "anonymous": false,
      "inputs": [
        {
          "indexed": true,
          "internalType": "address",
          "name": "operator",
          "type": "address"
        },
        {
          "indexed": true,
          "internalType": "address",
          "name": "from",
          "type": "address"
        },
        {
          "indexed": true,
          "internalType": "address",
          "name": "to",
          "type": "address"
        },
        {
          "indexed": false,
          "internalType": "uint256",
          "name": "id",
          "type": "uint256"
        },
        {
          "indexed": false,
          "internalType": "uint256",
          "name": "value",
          "type": "uint256"
        }
      ],
      "name": "TransferSingle",
      "type": "event"
    },
    {
      "anonymous": false,
      "inputs": [
        {
          "indexed": false,
          "internalType": "string",
          "name": "value",
          "type": "string"
        },
        {
          "indexed": true,
          "internalType": "uint256",
          "name": "id",
          "type": "uint256"
        }
      ],
      "name": "URI",
      "type": "event"
    },
    {
      "anonymous": false,
      "inputs": [
        {
          "indexed": false,
          "internalType": "address",
          "name": "account",
          "type": "address"
        }
      ],
      "name": "Unpaused",
      "type": "event"
    },
    {
      "inputs": [
        {
          "internalType": "address",
          "name": "account",
          "type": "address"
        },
        {
          "internalType": "uint256",
          "name": "id",
          "type": "uint256"
        }
      ],
      "name": "balanceOf",
      "outputs": [
        {
          "internalType": "uint256",
          "name": "",
          "type": "uint256"
        }
      ],
      "stateMutability": "view",
      "type": "function"
    },
    {
      "inputs": [
        {
          "internalType": "address[]",
          "name": "accounts",
          "type": "address[]"
        },
        {
          "internalType": "uint256[]",
          "name": "ids",
          "type": "uint256[]"
        }
      ],
      "name": "balanceOfBatch",
      "outputs": [
        {
          "internalType": "uint256[]",
          "name": "",
          "type": "uint256[]"
        }
      ],
      "stateMutability": "view",
      "type": "function"
    },
    {
      "inputs": [
        {
          "internalType": "uint256",
          "name": "id",
          "type": "uint256"
        },
        {
          "internalType": "uint256",
          "name": "amount",
          "type": "uint256"
        }
      ],
      "name": "burn",
      "outputs": [],
      "stateMutability": "nonpayable",
      "type": "function"
    },
    {
      "inputs": [
        {
          "internalType": "address",
          "name": "account",
          "type": "address"
        },
        {
          "internalType": "uint256",
          "name": "id",
          "type": "uint256"
        },
        {
          "internalType": "uint256",
          "name": "value",
          "type": "uint256"
        }
      ],
      "name": "burn",
      "outputs": [],
      "stateMutability": "nonpayable",
      "type": "function"
    },
    {
      "inputs": [
        {
          "internalType": "address",
          "name": "account",
          "type": "address"
        },
        {
          "internalType": "uint256[]",
          "name": "ids",
          "type": "uint256[]"
        },
        {
          "internalType": "uint256[]",
          "name": "values",
          "type": "uint256[]"
        }
      ],
      "name": "burnBatch",
      "outputs": [],
      "stateMutability": "nonpayable",
      "type": "function"
    },
    {
      "inputs": [
        {
          "internalType": "uint256",
          "name": "amount",
          "type": "uint256"
        }
      ],
      "name": "deposit",
      "outputs": [],
      "stateMutability": "nonpayable",
      "type": "function"
    },
    {
      "inputs": [
        {
          "internalType": "uint256",
          "name": "id",
          "type": "uint256"
        }
      ],
      "name": "exists",
      "outputs": [
        {
          "internalType": "bool",
          "name": "",
          "type": "bool"
        }
      ],
      "stateMutability": "view",
      "type": "function"
    },
    {
      "inputs": [],
      "name": "getTokenAddress",
      "outputs": [
        {
          "internalType": "address",
          "name": "_tokenAdd",
          "type": "address"
        }
      ],
      "stateMutability": "view",
      "type": "function"
    },
    {
      "inputs": [
        {
          "internalType": "address",
          "name": "account",
          "type": "address"
        },
        {
          "internalType": "address",
          "name": "operator",
          "type": "address"
        }
      ],
      "name": "isApprovedForAll",
      "outputs": [
        {
          "internalType": "bool",
          "name": "",
          "type": "bool"
        }
      ],
      "stateMutability": "view",
      "type": "function"
    },
    {
      "inputs": [
        {
          "internalType": "address",
          "name": "account",
          "type": "address"
        },
        {
          "internalType": "uint256",
          "name": "id",
          "type": "uint256"
        },
        {
          "internalType": "uint256",
          "name": "amount",
          "type": "uint256"
        },
        {
          "internalType": "bytes",
          "name": "data",
          "type": "bytes"
        }
      ],
      "name": "mint",
      "outputs": [],
      "stateMutability": "nonpayable",
      "type": "function"
    },
    {
      "inputs": [
        {
          "internalType": "address",
          "name": "to",
          "type": "address"
        },
        {
          "internalType": "uint256[]",
          "name": "ids",
          "type": "uint256[]"
        },
        {
          "internalType": "uint256[]",
          "name": "amounts",
          "type": "uint256[]"
        },
        {
          "internalType": "bytes",
          "name": "data",
          "type": "bytes"
        }
      ],
      "name": "mintBatch",
      "outputs": [],
      "stateMutability": "nonpayable",
      "type": "function"
    },
    {
      "inputs": [
        {
          "internalType": "address",
          "name": "_recipient",
          "type": "address"
        },
        {
          "internalType": "uint256",
          "name": "amount",
          "type": "uint256"
        },
        {
          "internalType": "bytes",
          "name": "data",
          "type": "bytes"
        }
      ],
      "name": "mintIncremental",
      "outputs": [],
      "stateMutability": "nonpayable",
      "type": "function"
    },
    {
      "inputs": [],
      "name": "owner",
      "outputs": [
        {
          "internalType": "address",
          "name": "",
          "type": "address"
        }
      ],
      "stateMutability": "view",
      "type": "function"
    },
    {
      "inputs": [],
      "name": "pause",
      "outputs": [],
      "stateMutability": "nonpayable",
      "type": "function"
    },
    {
      "inputs": [],
      "name": "paused",
      "outputs": [
        {
          "internalType": "bool",
          "name": "",
          "type": "bool"
        }
      ],
      "stateMutability": "view",
      "type": "function"
    },
    {
      "inputs": [],
      "name": "renounceOwnership",
      "outputs": [],
      "stateMutability": "nonpayable",
      "type": "function"
    },
    {
      "inputs": [
        {
          "internalType": "address",
          "name": "from",
          "type": "address"
        },
        {
          "internalType": "address",
          "name": "to",
          "type": "address"
        },
        {
          "internalType": "uint256[]",
          "name": "ids",
          "type": "uint256[]"
        },
        {
          "internalType": "uint256[]",
          "name": "amounts",
          "type": "uint256[]"
        },
        {
          "internalType": "bytes",
          "name": "data",
          "type": "bytes"
        }
      ],
      "name": "safeBatchTransferFrom",
      "outputs": [],
      "stateMutability": "nonpayable",
      "type": "function"
    },
    {
      "inputs": [
        {
          "internalType": "address",
          "name": "from",
          "type": "address"
        },
        {
          "internalType": "address",
          "name": "to",
          "type": "address"
        },
        {
          "internalType": "uint256",
          "name": "id",
          "type": "uint256"
        },
        {
          "internalType": "uint256",
          "name": "amount",
          "type": "uint256"
        },
        {
          "internalType": "bytes",
          "name": "data",
          "type": "bytes"
        }
      ],
      "name": "safeTransferFrom",
      "outputs": [],
      "stateMutability": "nonpayable",
      "type": "function"
    },
    {
      "inputs": [
        {
          "internalType": "address",
          "name": "operator",
          "type": "address"
        },
        {
          "internalType": "bool",
          "name": "approved",
          "type": "bool"
        }
      ],
      "name": "setApprovalForAll",
      "outputs": [],
      "stateMutability": "nonpayable",
      "type": "function"
    },
    {
      "inputs": [
        {
          "internalType": "address",
          "name": "_tokenAdd",
          "type": "address"
        }
      ],
      "name": "setTokenAddress",
      "outputs": [],
      "stateMutability": "nonpayable",
      "type": "function"
    },
    {
      "inputs": [
        {
          "internalType": "string",
          "name": "newuri",
          "type": "string"
        }
      ],
      "name": "setURI",
      "outputs": [],
      "stateMutability": "nonpayable",
      "type": "function"
    },
    {
      "inputs": [
        {
          "internalType": "bytes4",
          "name": "interfaceId",
          "type": "bytes4"
        }
      ],
      "name": "supportsInterface",
      "outputs": [
        {
          "internalType": "bool",
          "name": "",
          "type": "bool"
        }
      ],
      "stateMutability": "view",
      "type": "function"
    },
    {
      "inputs": [
        {
          "internalType": "uint256",
          "name": "id",
          "type": "uint256"
        }
      ],
      "name": "totalSupply",
      "outputs": [
        {
          "internalType": "uint256",
          "name": "",
          "type": "uint256"
        }
      ],
      "stateMutability": "view",
      "type": "function"
    },
    {
      "inputs": [
        {
          "internalType": "address",
          "name": "newOwner",
          "type": "address"
        }
      ],
      "name": "transferOwnership",
      "outputs": [],
      "stateMutability": "nonpayable",
      "type": "function"
    },
    {
      "inputs": [],
      "name": "unpause",
      "outputs": [],
      "stateMutability": "nonpayable",
      "type": "function"
    },
    {
      "inputs": [
        {
          "internalType": "uint256",
          "name": "",
          "type": "uint256"
        }
      ],
      "name": "uri",
      "outputs": [
        {
          "internalType": "string",
          "name": "",
          "type": "string"
        }
      ],
      "stateMutability": "view",
      "type": "function"
    },
    {
      "inputs": [
        {
          "internalType": "address payable",
          "name": "_to",
          "type": "address"
        },
        {
          "internalType": "uint256",
          "name": "_value",
          "type": "uint256"
        }
      ],
      "name": "withdraw",
      "outputs": [],
      "stateMutability": "nonpayable",
      "type": "function"
    }
  ],
  "bytecode": "0x60806040523480156200001157600080fd5b5060405162004fd338038062004fd383398181016040528101906200003791906200028d565b604051806020016040528060008152506200005881620000dc60201b60201c565b50620000796200006d620000f860201b60201c565b6200010060201b60201c565b6000600360146101000a81548160ff02191690831515021790555080600560006101000a81548173ffffffffffffffffffffffffffffffffffffffff021916908373ffffffffffffffffffffffffffffffffffffffff160217905550506200036c565b8060029080519060200190620000f4929190620001c6565b5050565b600033905090565b6000600360009054906101000a900473ffffffffffffffffffffffffffffffffffffffff16905081600360006101000a81548173ffffffffffffffffffffffffffffffffffffffff021916908373ffffffffffffffffffffffffffffffffffffffff1602179055508173ffffffffffffffffffffffffffffffffffffffff168173ffffffffffffffffffffffffffffffffffffffff167f8be0079c531659141344cd1fd0a4f28419497f9722a3daafe3b4186f6b6457e060405160405180910390a35050565b828054620001d490620002ed565b90600052602060002090601f016020900481019282620001f8576000855562000244565b82601f106200021357805160ff191683800117855562000244565b8280016001018555821562000244579182015b828111156200024357825182559160200191906001019062000226565b5b50905062000253919062000257565b5090565b5b808211156200027257600081600090555060010162000258565b5090565b600081519050620002878162000352565b92915050565b600060208284031215620002a057600080fd5b6000620002b08482850162000276565b91505092915050565b6000620002c682620002cd565b9050919050565b600073ffffffffffffffffffffffffffffffffffffffff82169050919050565b600060028204905060018216806200030657607f821691505b602082108114156200031d576200031c62000323565b5b50919050565b7f4e487b7100000000000000000000000000000000000000000000000000000000600052602260045260246000fd5b6200035d81620002b9565b81146200036957600080fd5b50565b614c57806200037c6000396000f3fe608060405234801561001057600080fd5b50600436106101a85760003560e01c8063715018a6116100f9578063b6b55f2511610097578063f242432a11610071578063f242432a1461048d578063f2fde38b146104a9578063f3fef3a3146104c5578063f5298aca146104e1576101a8565b8063b6b55f2514610411578063bd85b0391461042d578063e985e9c51461045d576101a8565b80638da5cb5b116100d35780638da5cb5b1461039f578063a22cb465146103bd578063b390c0ab146103d9578063b6571caf146103f5576101a8565b8063715018a61461036f578063731133e9146103795780638456cb5914610395576101a8565b806326a4e8d2116101665780634e1273f4116101405780634e1273f4146102d55780634f558e79146103055780635c975abb146103355780636b20c45414610353576101a8565b806326a4e8d2146102935780632eb2c2d6146102af5780633f4ba83a146102cb576101a8565b8062fdd58e146101ad57806301ffc9a7146101dd57806302fe53051461020d5780630e89341c1461022957806310fe9ae8146102595780631f7fdffa14610277575b600080fd5b6101c760048036038101906101c2919061361f565b6104fd565b6040516101d49190614118565b60405180910390f35b6101f760048036038101906101f29190613821565b6105c6565b6040516102049190613e7b565b60405180910390f35b61022760048036038101906102229190613873565b6106a8565b005b610243600480360381019061023e91906138b4565b610730565b6040516102509190613e96565b60405180910390f35b6102616107c4565b60405161026e9190613ce5565b60405180910390f35b610291600480360381019061028c9190613538565b6107ee565b005b6102ad60048036038101906102a891906132ca565b61087c565b005b6102c960048036038101906102c4919061336b565b61093c565b005b6102d36109dd565b005b6102ef60048036038101906102ea919061378c565b610a63565b6040516102fc9190613e22565b60405180910390f35b61031f600480360381019061031a91906138b4565b610c14565b60405161032c9190613e7b565b60405180910390f35b61033d610c28565b60405161034a9190613e7b565b60405180910390f35b61036d600480360381019061036891906134b9565b610c3f565b005b610377610cdc565b005b610393600480360381019061038e9190613711565b610d64565b005b61039d610dfb565b005b6103a7610e81565b6040516103b49190613ce5565b60405180910390f35b6103d760048036038101906103d291906135e3565b610eab565b005b6103f360048036038101906103ee91906138dd565b610ec1565b005b61040f600480360381019061040a919061365b565b610eda565b005b61042b600480360381019061042691906138b4565b610f89565b005b610447600480360381019061044291906138b4565b611101565b6040516104549190614118565b60405180910390f35b6104776004803603810190610472919061332f565b61111e565b6040516104849190613e7b565b60405180910390f35b6104a760048036038101906104a2919061342a565b6111b2565b005b6104c360048036038101906104be91906132ca565b611253565b005b6104df60048036038101906104da91906132f3565b61134b565b005b6104fb60048036038101906104f691906136c2565b6114c2565b005b60008073ffffffffffffffffffffffffffffffffffffffff168373ffffffffffffffffffffffffffffffffffffffff16141561056e576040517f08c379a000000000000000000000000000000000000000000000000000000000815260040161056590613f18565b60405180910390fd5b60008083815260200190815260200160002060008473ffffffffffffffffffffffffffffffffffffffff1673ffffffffffffffffffffffffffffffffffffffff16815260200190815260200160002054905092915050565b60007fd9b67a26000000000000000000000000000000000000000000000000000000007bffffffffffffffffffffffffffffffffffffffffffffffffffffffff1916827bffffffffffffffffffffffffffffffffffffffffffffffffffffffff1916148061069157507f0e89341c000000000000000000000000000000000000000000000000000000007bffffffffffffffffffffffffffffffffffffffffffffffffffffffff1916827bffffffffffffffffffffffffffffffffffffffffffffffffffffffff1916145b806106a157506106a08261155f565b5b9050919050565b6106b06115c9565b73ffffffffffffffffffffffffffffffffffffffff166106ce610e81565b73ffffffffffffffffffffffffffffffffffffffff1614610724576040517f08c379a000000000000000000000000000000000000000000000000000000000815260040161071b90614038565b60405180910390fd5b61072d816115d1565b50565b60606002805461073f90614434565b80601f016020809104026020016040519081016040528092919081815260200182805461076b90614434565b80156107b85780601f1061078d576101008083540402835291602001916107b8565b820191906000526020600020905b81548152906001019060200180831161079b57829003601f168201915b50505050509050919050565b6000600560009054906101000a900473ffffffffffffffffffffffffffffffffffffffff16905090565b6107f66115c9565b73ffffffffffffffffffffffffffffffffffffffff16610814610e81565b73ffffffffffffffffffffffffffffffffffffffff161461086a576040517f08c379a000000000000000000000000000000000000000000000000000000000815260040161086190614038565b60405180910390fd5b610876848484846115eb565b50505050565b6108846115c9565b73ffffffffffffffffffffffffffffffffffffffff166108a2610e81565b73ffffffffffffffffffffffffffffffffffffffff16146108f8576040517f08c379a00000000000000000000000000000000000000000000000000000000081526004016108ef90614038565b60405180910390fd5b80600560006101000a81548173ffffffffffffffffffffffffffffffffffffffff021916908373ffffffffffffffffffffffffffffffffffffffff16021790555050565b6109446115c9565b73ffffffffffffffffffffffffffffffffffffffff168573ffffffffffffffffffffffffffffffffffffffff16148061098a5750610989856109846115c9565b61111e565b5b6109c9576040517f08c379a00000000000000000000000000000000000000000000000000000000081526004016109c090613fd8565b60405180910390fd5b6109d68585858585611855565b5050505050565b6109e56115c9565b73ffffffffffffffffffffffffffffffffffffffff16610a03610e81565b73ffffffffffffffffffffffffffffffffffffffff1614610a59576040517f08c379a0000000000000000000000000000000000000000000000000000000008152600401610a5090614038565b60405180910390fd5b610a61611bb5565b565b60608151835114610aa9576040517f08c379a0000000000000000000000000000000000000000000000000000000008152600401610aa0906140b8565b60405180910390fd5b6000835167ffffffffffffffff811115610aec577f4e487b7100000000000000000000000000000000000000000000000000000000600052604160045260246000fd5b604051908082528060200260200182016040528015610b1a5781602001602082028036833780820191505090505b50905060005b8451811015610c0957610bb3858281518110610b65577f4e487b7100000000000000000000000000000000000000000000000000000000600052603260045260246000fd5b6020026020010151858381518110610ba6577f4e487b7100000000000000000000000000000000000000000000000000000000600052603260045260246000fd5b60200260200101516104fd565b828281518110610bec577f4e487b7100000000000000000000000000000000000000000000000000000000600052603260045260246000fd5b60200260200101818152505080610c0290614497565b9050610b20565b508091505092915050565b600080610c2083611101565b119050919050565b6000600360149054906101000a900460ff16905090565b610c476115c9565b73ffffffffffffffffffffffffffffffffffffffff168373ffffffffffffffffffffffffffffffffffffffff161480610c8d5750610c8c83610c876115c9565b61111e565b5b610ccc576040517f08c379a0000000000000000000000000000000000000000000000000000000008152600401610cc390613f78565b60405180910390fd5b610cd7838383611c57565b505050565b610ce46115c9565b73ffffffffffffffffffffffffffffffffffffffff16610d02610e81565b73ffffffffffffffffffffffffffffffffffffffff1614610d58576040517f08c379a0000000000000000000000000000000000000000000000000000000008152600401610d4f90614038565b60405180910390fd5b610d626000611f54565b565b610d6c6115c9565b73ffffffffffffffffffffffffffffffffffffffff16610d8a610e81565b73ffffffffffffffffffffffffffffffffffffffff1614610de0576040517f08c379a0000000000000000000000000000000000000000000000000000000008152600401610dd790614038565b60405180910390fd5b610de982610f89565b610df58484848461201a565b50505050565b610e036115c9565b73ffffffffffffffffffffffffffffffffffffffff16610e21610e81565b73ffffffffffffffffffffffffffffffffffffffff1614610e77576040517f08c379a0000000000000000000000000000000000000000000000000000000008152600401610e6e90614038565b60405180910390fd5b610e7f6121b0565b565b6000600360009054906101000a900473ffffffffffffffffffffffffffffffffffffffff16905090565b610ebd610eb66115c9565b8383612253565b5050565b610ecc3383836123c0565b610ed6338261134b565b5050565b610ee26115c9565b73ffffffffffffffffffffffffffffffffffffffff16610f00610e81565b73ffffffffffffffffffffffffffffffffffffffff1614610f56576040517f08c379a0000000000000000000000000000000000000000000000000000000008152600401610f4d90614038565b60405180910390fd5b610f5f82610f89565b610f6960066125dd565b6000610f7560066125f3565b9050610f838482858561201a565b50505050565b610f916115c9565b73ffffffffffffffffffffffffffffffffffffffff16610faf610e81565b73ffffffffffffffffffffffffffffffffffffffff1614611005576040517f08c379a0000000000000000000000000000000000000000000000000000000008152600401610ffc90614038565b60405180910390fd5b600560009054906101000a900473ffffffffffffffffffffffffffffffffffffffff1673ffffffffffffffffffffffffffffffffffffffff166323b872dd3330846040518463ffffffff1660e01b815260040161106493929190613d91565b602060405180830381600087803b15801561107e57600080fd5b505af1158015611092573d6000803e3d6000fd5b505050506040513d601f19601f820116820180604052508101906110b691906137f8565b506110bf612601565b6110fe576040517f08c379a00000000000000000000000000000000000000000000000000000000081526004016110f590614058565b60405180910390fd5b50565b600060046000838152602001908152602001600020549050919050565b6000600160008473ffffffffffffffffffffffffffffffffffffffff1673ffffffffffffffffffffffffffffffffffffffff16815260200190815260200160002060008373ffffffffffffffffffffffffffffffffffffffff1673ffffffffffffffffffffffffffffffffffffffff16815260200190815260200160002060009054906101000a900460ff16905092915050565b6111ba6115c9565b73ffffffffffffffffffffffffffffffffffffffff168573ffffffffffffffffffffffffffffffffffffffff16148061120057506111ff856111fa6115c9565b61111e565b5b61123f576040517f08c379a000000000000000000000000000000000000000000000000000000000815260040161123690613f78565b60405180910390fd5b61124c858585858561263f565b5050505050565b61125b6115c9565b73ffffffffffffffffffffffffffffffffffffffff16611279610e81565b73ffffffffffffffffffffffffffffffffffffffff16146112cf576040517f08c379a00000000000000000000000000000000000000000000000000000000081526004016112c690614038565b60405180910390fd5b600073ffffffffffffffffffffffffffffffffffffffff168173ffffffffffffffffffffffffffffffffffffffff16141561133f576040517f08c379a000000000000000000000000000000000000000000000000000000000815260040161133690613f38565b60405180910390fd5b61134881611f54565b50565b6113536115c9565b73ffffffffffffffffffffffffffffffffffffffff16611371610e81565b73ffffffffffffffffffffffffffffffffffffffff16146113c7576040517f08c379a00000000000000000000000000000000000000000000000000000000081526004016113be90614038565b60405180910390fd5b600560009054906101000a900473ffffffffffffffffffffffffffffffffffffffff1673ffffffffffffffffffffffffffffffffffffffff1663a9059cbb83836040518363ffffffff1660e01b8152600401611424929190613d00565b602060405180830381600087803b15801561143e57600080fd5b505af1158015611452573d6000803e3d6000fd5b505050506040513d601f19601f8201168201806040525081019061147691906137f8565b5061147f612601565b6114be576040517f08c379a00000000000000000000000000000000000000000000000000000000081526004016114b590614078565b60405180910390fd5b5050565b6114ca6115c9565b73ffffffffffffffffffffffffffffffffffffffff168373ffffffffffffffffffffffffffffffffffffffff161480611510575061150f8361150a6115c9565b61111e565b5b61154f576040517f08c379a000000000000000000000000000000000000000000000000000000000815260040161154690613f78565b60405180910390fd5b61155a8383836123c0565b505050565b60007f01ffc9a7000000000000000000000000000000000000000000000000000000007bffffffffffffffffffffffffffffffffffffffffffffffffffffffff1916827bffffffffffffffffffffffffffffffffffffffffffffffffffffffff1916149050919050565b600033905090565b80600290805190602001906115e7929190612f98565b5050565b600073ffffffffffffffffffffffffffffffffffffffff168473ffffffffffffffffffffffffffffffffffffffff16141561165b576040517f08c379a0000000000000000000000000000000000000000000000000000000008152600401611652906140f8565b60405180910390fd5b815183511461169f576040517f08c379a0000000000000000000000000000000000000000000000000000000008152600401611696906140d8565b60405180910390fd5b60006116a96115c9565b90506116ba816000878787876128c1565b60005b84518110156117bf578381815181106116ff577f4e487b7100000000000000000000000000000000000000000000000000000000600052603260045260246000fd5b6020026020010151600080878481518110611743577f4e487b7100000000000000000000000000000000000000000000000000000000600052603260045260246000fd5b6020026020010151815260200190815260200160002060008873ffffffffffffffffffffffffffffffffffffffff1673ffffffffffffffffffffffffffffffffffffffff16815260200190815260200160002060008282546117a591906142ac565b9250508190555080806117b790614497565b9150506116bd565b508473ffffffffffffffffffffffffffffffffffffffff16600073ffffffffffffffffffffffffffffffffffffffff168273ffffffffffffffffffffffffffffffffffffffff167f4a39dc06d4c0dbc64b70af90fd698a233a518aa5d07e595d983b8c0526c8f7fb8787604051611837929190613e44565b60405180910390a461184e816000878787876128d7565b5050505050565b8151835114611899576040517f08c379a0000000000000000000000000000000000000000000000000000000008152600401611890906140d8565b60405180910390fd5b600073ffffffffffffffffffffffffffffffffffffffff168473ffffffffffffffffffffffffffffffffffffffff161415611909576040517f08c379a000000000000000000000000000000000000000000000000000000000815260040161190090613fb8565b60405180910390fd5b60006119136115c9565b90506119238187878787876128c1565b60005b8451811015611b2057600085828151811061196a577f4e487b7100000000000000000000000000000000000000000000000000000000600052603260045260246000fd5b6020026020010151905060008583815181106119af577f4e487b7100000000000000000000000000000000000000000000000000000000600052603260045260246000fd5b60200260200101519050600080600084815260200190815260200160002060008b73ffffffffffffffffffffffffffffffffffffffff1673ffffffffffffffffffffffffffffffffffffffff16815260200190815260200160002054905081811015611a50576040517f08c379a0000000000000000000000000000000000000000000000000000000008152600401611a4790614018565b60405180910390fd5b81810360008085815260200190815260200160002060008c73ffffffffffffffffffffffffffffffffffffffff1673ffffffffffffffffffffffffffffffffffffffff168152602001908152602001600020819055508160008085815260200190815260200160002060008b73ffffffffffffffffffffffffffffffffffffffff1673ffffffffffffffffffffffffffffffffffffffff1681526020019081526020016000206000828254611b0591906142ac565b9250508190555050505080611b1990614497565b9050611926565b508473ffffffffffffffffffffffffffffffffffffffff168673ffffffffffffffffffffffffffffffffffffffff168273ffffffffffffffffffffffffffffffffffffffff167f4a39dc06d4c0dbc64b70af90fd698a233a518aa5d07e595d983b8c0526c8f7fb8787604051611b97929190613e44565b60405180910390a4611bad8187878787876128d7565b505050505050565b611bbd610c28565b611bfc576040517f08c379a0000000000000000000000000000000000000000000000000000000008152600401611bf390613ef8565b60405180910390fd5b6000600360146101000a81548160ff0219169083151502179055507f5db9ee0a495bf2e6ff9c91a7834c1ba4fdd244a5e8aa4e537bd38aeae4b073aa611c406115c9565b604051611c4d9190613ce5565b60405180910390a1565b600073ffffffffffffffffffffffffffffffffffffffff168373ffffffffffffffffffffffffffffffffffffffff161415611cc7576040517f08c379a0000000000000000000000000000000000000000000000000000000008152600401611cbe90613ff8565b60405180910390fd5b8051825114611d0b576040517f08c379a0000000000000000000000000000000000000000000000000000000008152600401611d02906140d8565b60405180910390fd5b6000611d156115c9565b9050611d35818560008686604051806020016040528060008152506128c1565b60005b8351811015611ece576000848281518110611d7c577f4e487b7100000000000000000000000000000000000000000000000000000000600052603260045260246000fd5b602002602001015190506000848381518110611dc1577f4e487b7100000000000000000000000000000000000000000000000000000000600052603260045260246000fd5b60200260200101519050600080600084815260200190815260200160002060008973ffffffffffffffffffffffffffffffffffffffff1673ffffffffffffffffffffffffffffffffffffffff16815260200190815260200160002054905081811015611e62576040517f08c379a0000000000000000000000000000000000000000000000000000000008152600401611e5990613f58565b60405180910390fd5b81810360008085815260200190815260200160002060008a73ffffffffffffffffffffffffffffffffffffffff1673ffffffffffffffffffffffffffffffffffffffff168152602001908152602001600020819055505050508080611ec690614497565b915050611d38565b50600073ffffffffffffffffffffffffffffffffffffffff168473ffffffffffffffffffffffffffffffffffffffff168273ffffffffffffffffffffffffffffffffffffffff167f4a39dc06d4c0dbc64b70af90fd698a233a518aa5d07e595d983b8c0526c8f7fb8686604051611f46929190613e44565b60405180910390a450505050565b6000600360009054906101000a900473ffffffffffffffffffffffffffffffffffffffff16905081600360006101000a81548173ffffffffffffffffffffffffffffffffffffffff021916908373ffffffffffffffffffffffffffffffffffffffff1602179055508173ffffffffffffffffffffffffffffffffffffffff168173ffffffffffffffffffffffffffffffffffffffff167f8be0079c531659141344cd1fd0a4f28419497f9722a3daafe3b4186f6b6457e060405160405180910390a35050565b600073ffffffffffffffffffffffffffffffffffffffff168473ffffffffffffffffffffffffffffffffffffffff16141561208a576040517f08c379a0000000000000000000000000000000000000000000000000000000008152600401612081906140f8565b60405180910390fd5b60006120946115c9565b90506120b5816000876120a688612abe565b6120af88612abe565b876128c1565b8260008086815260200190815260200160002060008773ffffffffffffffffffffffffffffffffffffffff1673ffffffffffffffffffffffffffffffffffffffff168152602001908152602001600020600082825461211491906142ac565b925050819055508473ffffffffffffffffffffffffffffffffffffffff16600073ffffffffffffffffffffffffffffffffffffffff168273ffffffffffffffffffffffffffffffffffffffff167fc3d58168c5ae7397731d063d5bbf3d657854427343f4c083240f7aacaa2d0f628787604051612192929190614133565b60405180910390a46121a981600087878787612b84565b5050505050565b6121b8610c28565b156121f8576040517f08c379a00000000000000000000000000000000000000000000000000000000081526004016121ef90613f98565b60405180910390fd5b6001600360146101000a81548160ff0219169083151502179055507f62e78cea01bee320cd4e420270b5ea74000d11b0c9f74754ebdbfc544b05a25861223c6115c9565b6040516122499190613ce5565b60405180910390a1565b8173ffffffffffffffffffffffffffffffffffffffff168373ffffffffffffffffffffffffffffffffffffffff1614156122c2576040517f08c379a00000000000000000000000000000000000000000000000000000000081526004016122b990614098565b60405180910390fd5b80600160008573ffffffffffffffffffffffffffffffffffffffff1673ffffffffffffffffffffffffffffffffffffffff16815260200190815260200160002060008473ffffffffffffffffffffffffffffffffffffffff1673ffffffffffffffffffffffffffffffffffffffff16815260200190815260200160002060006101000a81548160ff0219169083151502179055508173ffffffffffffffffffffffffffffffffffffffff168373ffffffffffffffffffffffffffffffffffffffff167f17307eab39ab6107e8899845ad3d59bd9653f200f220920489ca2b5937696c31836040516123b39190613e7b565b60405180910390a3505050565b600073ffffffffffffffffffffffffffffffffffffffff168373ffffffffffffffffffffffffffffffffffffffff161415612430576040517f08c379a000000000000000000000000000000000000000000000000000000000815260040161242790613ff8565b60405180910390fd5b600061243a6115c9565b905061246a8185600061244c87612abe565b61245587612abe565b604051806020016040528060008152506128c1565b600080600085815260200190815260200160002060008673ffffffffffffffffffffffffffffffffffffffff1673ffffffffffffffffffffffffffffffffffffffff16815260200190815260200160002054905082811015612501576040517f08c379a00000000000000000000000000000000000000000000000000000000081526004016124f890613f58565b60405180910390fd5b82810360008086815260200190815260200160002060008773ffffffffffffffffffffffffffffffffffffffff1673ffffffffffffffffffffffffffffffffffffffff16815260200190815260200160002081905550600073ffffffffffffffffffffffffffffffffffffffff168573ffffffffffffffffffffffffffffffffffffffff168373ffffffffffffffffffffffffffffffffffffffff167fc3d58168c5ae7397731d063d5bbf3d657854427343f4c083240f7aacaa2d0f6287876040516125ce929190614133565b60405180910390a45050505050565b6001816000016000828254019250508190555050565b600081600001549050919050565b600080600090503d6000811461261e576020811461262757612633565b60019150612633565b60206000803e60005191505b50600081141591505090565b600073ffffffffffffffffffffffffffffffffffffffff168473ffffffffffffffffffffffffffffffffffffffff1614156126af576040517f08c379a00000000000000000000000000000000000000000000000000000000081526004016126a690613fb8565b60405180910390fd5b60006126b96115c9565b90506126d98187876126ca88612abe565b6126d388612abe565b876128c1565b600080600086815260200190815260200160002060008873ffffffffffffffffffffffffffffffffffffffff1673ffffffffffffffffffffffffffffffffffffffff16815260200190815260200160002054905083811015612770576040517f08c379a000000000000000000000000000000000000000000000000000000000815260040161276790614018565b60405180910390fd5b83810360008087815260200190815260200160002060008973ffffffffffffffffffffffffffffffffffffffff1673ffffffffffffffffffffffffffffffffffffffff168152602001908152602001600020819055508360008087815260200190815260200160002060008873ffffffffffffffffffffffffffffffffffffffff1673ffffffffffffffffffffffffffffffffffffffff168152602001908152602001600020600082825461282591906142ac565b925050819055508573ffffffffffffffffffffffffffffffffffffffff168773ffffffffffffffffffffffffffffffffffffffff168373ffffffffffffffffffffffffffffffffffffffff167fc3d58168c5ae7397731d063d5bbf3d657854427343f4c083240f7aacaa2d0f6288886040516128a2929190614133565b60405180910390a46128b8828888888888612b84565b50505050505050565b6128cf868686868686612d6b565b505050505050565b6128f68473ffffffffffffffffffffffffffffffffffffffff16612f7d565b15612ab6578373ffffffffffffffffffffffffffffffffffffffff1663bc197c8187878686866040518663ffffffff1660e01b815260040161293c959493929190613d29565b602060405180830381600087803b15801561295657600080fd5b505af192505050801561298757506040513d601f19601f82011682018060405250810190612984919061384a565b60015b612a2d5761299361456d565b806308c379a014156129f057506129a8614b18565b806129b357506129f2565b806040517f08c379a00000000000000000000000000000000000000000000000000000000081526004016129e79190613e96565b60405180910390fd5b505b6040517f08c379a0000000000000000000000000000000000000000000000000000000008152600401612a2490613eb8565b60405180910390fd5b63bc197c8160e01b7bffffffffffffffffffffffffffffffffffffffffffffffffffffffff1916817bffffffffffffffffffffffffffffffffffffffffffffffffffffffff191614612ab4576040517f08c379a0000000000000000000000000000000000000000000000000000000008152600401612aab90613ed8565b60405180910390fd5b505b505050505050565b60606000600167ffffffffffffffff811115612b03577f4e487b7100000000000000000000000000000000000000000000000000000000600052604160045260246000fd5b604051908082528060200260200182016040528015612b315781602001602082028036833780820191505090505b5090508281600081518110612b6f577f4e487b7100000000000000000000000000000000000000000000000000000000600052603260045260246000fd5b60200260200101818152505080915050919050565b612ba38473ffffffffffffffffffffffffffffffffffffffff16612f7d565b15612d63578373ffffffffffffffffffffffffffffffffffffffff1663f23a6e6187878686866040518663ffffffff1660e01b8152600401612be9959493929190613dc8565b602060405180830381600087803b158015612c0357600080fd5b505af1925050508015612c3457506040513d601f19601f82011682018060405250810190612c31919061384a565b60015b612cda57612c4061456d565b806308c379a01415612c9d5750612c55614b18565b80612c605750612c9f565b806040517f08c379a0000000000000000000000000000000000000000000000000000000008152600401612c949190613e96565b60405180910390fd5b505b6040517f08c379a0000000000000000000000000000000000000000000000000000000008152600401612cd190613eb8565b60405180910390fd5b63f23a6e6160e01b7bffffffffffffffffffffffffffffffffffffffffffffffffffffffff1916817bffffffffffffffffffffffffffffffffffffffffffffffffffffffff191614612d61576040517f08c379a0000000000000000000000000000000000000000000000000000000008152600401612d5890613ed8565b60405180910390fd5b505b505050505050565b612d79868686868686612f90565b600073ffffffffffffffffffffffffffffffffffffffff168573ffffffffffffffffffffffffffffffffffffffff161415612e775760005b8351811015612e7557828181518110612df3577f4e487b7100000000000000000000000000000000000000000000000000000000600052603260045260246000fd5b602002602001015160046000868481518110612e38577f4e487b7100000000000000000000000000000000000000000000000000000000600052603260045260246000fd5b602002602001015181526020019081526020016000206000828254612e5d91906142ac565b9250508190555080612e6e90614497565b9050612db1565b505b600073ffffffffffffffffffffffffffffffffffffffff168473ffffffffffffffffffffffffffffffffffffffff161415612f755760005b8351811015612f7357828181518110612ef1577f4e487b7100000000000000000000000000000000000000000000000000000000600052603260045260246000fd5b602002602001015160046000868481518110612f36577f4e487b7100000000000000000000000000000000000000000000000000000000600052603260045260246000fd5b602002602001015181526020019081526020016000206000828254612f5b9190614302565b9250508190555080612f6c90614497565b9050612eaf565b505b505050505050565b600080823b905060008111915050919050565b505050505050565b828054612fa490614434565b90600052602060002090601f016020900481019282612fc6576000855561300d565b82601f10612fdf57805160ff191683800117855561300d565b8280016001018555821561300d579182015b8281111561300c578251825591602001919060010190612ff1565b5b50905061301a919061301e565b5090565b5b8082111561303757600081600090555060010161301f565b5090565b600061304e61304984614181565b61415c565b9050808382526020820190508285602086028201111561306d57600080fd5b60005b8581101561309d5781613083888261318f565b845260208401935060208301925050600181019050613070565b5050509392505050565b60006130ba6130b5846141ad565b61415c565b905080838252602082019050828560208602820111156130d957600080fd5b60005b8581101561310957816130ef88826132b5565b8452602084019350602083019250506001810190506130dc565b5050509392505050565b6000613126613121846141d9565b61415c565b90508281526020810184848401111561313e57600080fd5b6131498482856143f2565b509392505050565b600061316461315f8461420a565b61415c565b90508281526020810184848401111561317c57600080fd5b6131878482856143f2565b509392505050565b60008135905061319e81614bae565b92915050565b6000813590506131b381614bc5565b92915050565b600082601f8301126131ca57600080fd5b81356131da84826020860161303b565b91505092915050565b600082601f8301126131f457600080fd5b81356132048482602086016130a7565b91505092915050565b60008135905061321c81614bdc565b92915050565b60008151905061323181614bdc565b92915050565b60008135905061324681614bf3565b92915050565b60008151905061325b81614bf3565b92915050565b600082601f83011261327257600080fd5b8135613282848260208601613113565b91505092915050565b600082601f83011261329c57600080fd5b81356132ac848260208601613151565b91505092915050565b6000813590506132c481614c0a565b92915050565b6000602082840312156132dc57600080fd5b60006132ea8482850161318f565b91505092915050565b6000806040838503121561330657600080fd5b6000613314858286016131a4565b9250506020613325858286016132b5565b9150509250929050565b6000806040838503121561334257600080fd5b60006133508582860161318f565b92505060206133618582860161318f565b9150509250929050565b600080600080600060a0868803121561338357600080fd5b60006133918882890161318f565b95505060206133a28882890161318f565b945050604086013567ffffffffffffffff8111156133bf57600080fd5b6133cb888289016131e3565b935050606086013567ffffffffffffffff8111156133e857600080fd5b6133f4888289016131e3565b925050608086013567ffffffffffffffff81111561341157600080fd5b61341d88828901613261565b9150509295509295909350565b600080600080600060a0868803121561344257600080fd5b60006134508882890161318f565b95505060206134618882890161318f565b9450506040613472888289016132b5565b9350506060613483888289016132b5565b925050608086013567ffffffffffffffff8111156134a057600080fd5b6134ac88828901613261565b9150509295509295909350565b6000806000606084860312156134ce57600080fd5b60006134dc8682870161318f565b935050602084013567ffffffffffffffff8111156134f957600080fd5b613505868287016131e3565b925050604084013567ffffffffffffffff81111561352257600080fd5b61352e868287016131e3565b9150509250925092565b6000806000806080858703121561354e57600080fd5b600061355c8782880161318f565b945050602085013567ffffffffffffffff81111561357957600080fd5b613585878288016131e3565b935050604085013567ffffffffffffffff8111156135a257600080fd5b6135ae878288016131e3565b925050606085013567ffffffffffffffff8111156135cb57600080fd5b6135d787828801613261565b91505092959194509250565b600080604083850312156135f657600080fd5b60006136048582860161318f565b92505060206136158582860161320d565b9150509250929050565b6000806040838503121561363257600080fd5b60006136408582860161318f565b9250506020613651858286016132b5565b9150509250929050565b60008060006060848603121561367057600080fd5b600061367e8682870161318f565b935050602061368f868287016132b5565b925050604084013567ffffffffffffffff8111156136ac57600080fd5b6136b886828701613261565b9150509250925092565b6000806000606084860312156136d757600080fd5b60006136e58682870161318f565b93505060206136f6868287016132b5565b9250506040613707868287016132b5565b9150509250925092565b6000806000806080858703121561372757600080fd5b60006137358782880161318f565b9450506020613746878288016132b5565b9350506040613757878288016132b5565b925050606085013567ffffffffffffffff81111561377457600080fd5b61378087828801613261565b91505092959194509250565b6000806040838503121561379f57600080fd5b600083013567ffffffffffffffff8111156137b957600080fd5b6137c5858286016131b9565b925050602083013567ffffffffffffffff8111156137e257600080fd5b6137ee858286016131e3565b9150509250929050565b60006020828403121561380a57600080fd5b600061381884828501613222565b91505092915050565b60006020828403121561383357600080fd5b600061384184828501613237565b91505092915050565b60006020828403121561385c57600080fd5b600061386a8482850161324c565b91505092915050565b60006020828403121561388557600080fd5b600082013567ffffffffffffffff81111561389f57600080fd5b6138ab8482850161328b565b91505092915050565b6000602082840312156138c657600080fd5b60006138d4848285016132b5565b91505092915050565b600080604083850312156138f057600080fd5b60006138fe858286016132b5565b925050602061390f858286016132b5565b9150509250929050565b60006139258383613cc7565b60208301905092915050565b61393a816143bc565b82525050565b61394981614336565b82525050565b600061395a8261424b565b6139648185614279565b935061396f8361423b565b8060005b838110156139a05781516139878882613919565b97506139928361426c565b925050600181019050613973565b5085935050505092915050565b6139b68161435a565b82525050565b60006139c782614256565b6139d1818561428a565b93506139e1818560208601614401565b6139ea8161458f565b840191505092915050565b6000613a0082614261565b613a0a818561429b565b9350613a1a818560208601614401565b613a238161458f565b840191505092915050565b6000613a3b60348361429b565b9150613a46826145ad565b604082019050919050565b6000613a5e60288361429b565b9150613a69826145fc565b604082019050919050565b6000613a8160148361429b565b9150613a8c8261464b565b602082019050919050565b6000613aa4602b8361429b565b9150613aaf82614674565b604082019050919050565b6000613ac760268361429b565b9150613ad2826146c3565b604082019050919050565b6000613aea60248361429b565b9150613af582614712565b604082019050919050565b6000613b0d60298361429b565b9150613b1882614761565b604082019050919050565b6000613b3060108361429b565b9150613b3b826147b0565b602082019050919050565b6000613b5360258361429b565b9150613b5e826147d9565b604082019050919050565b6000613b7660328361429b565b9150613b8182614828565b604082019050919050565b6000613b9960238361429b565b9150613ba482614877565b604082019050919050565b6000613bbc602a8361429b565b9150613bc7826148c6565b604082019050919050565b6000613bdf60208361429b565b9150613bea82614915565b602082019050919050565b6000613c0260218361429b565b9150613c0d8261493e565b604082019050919050565b6000613c2560228361429b565b9150613c308261498d565b604082019050919050565b6000613c4860298361429b565b9150613c53826149dc565b604082019050919050565b6000613c6b60298361429b565b9150613c7682614a2b565b604082019050919050565b6000613c8e60288361429b565b9150613c9982614a7a565b604082019050919050565b6000613cb160218361429b565b9150613cbc82614ac9565b604082019050919050565b613cd0816143b2565b82525050565b613cdf816143b2565b82525050565b6000602082019050613cfa6000830184613940565b92915050565b6000604082019050613d156000830185613931565b613d226020830184613cd6565b9392505050565b600060a082019050613d3e6000830188613940565b613d4b6020830187613940565b8181036040830152613d5d818661394f565b90508181036060830152613d71818561394f565b90508181036080830152613d8581846139bc565b90509695505050505050565b6000606082019050613da66000830186613940565b613db36020830185613940565b613dc06040830184613cd6565b949350505050565b600060a082019050613ddd6000830188613940565b613dea6020830187613940565b613df76040830186613cd6565b613e046060830185613cd6565b8181036080830152613e1681846139bc565b90509695505050505050565b60006020820190508181036000830152613e3c818461394f565b905092915050565b60006040820190508181036000830152613e5e818561394f565b90508181036020830152613e72818461394f565b90509392505050565b6000602082019050613e9060008301846139ad565b92915050565b60006020820190508181036000830152613eb081846139f5565b905092915050565b60006020820190508181036000830152613ed181613a2e565b9050919050565b60006020820190508181036000830152613ef181613a51565b9050919050565b60006020820190508181036000830152613f1181613a74565b9050919050565b60006020820190508181036000830152613f3181613a97565b9050919050565b60006020820190508181036000830152613f5181613aba565b9050919050565b60006020820190508181036000830152613f7181613add565b9050919050565b60006020820190508181036000830152613f9181613b00565b9050919050565b60006020820190508181036000830152613fb181613b23565b9050919050565b60006020820190508181036000830152613fd181613b46565b9050919050565b60006020820190508181036000830152613ff181613b69565b9050919050565b6000602082019050818103600083015261401181613b8c565b9050919050565b6000602082019050818103600083015261403181613baf565b9050919050565b6000602082019050818103600083015261405181613bd2565b9050919050565b6000602082019050818103600083015261407181613bf5565b9050919050565b6000602082019050818103600083015261409181613c18565b9050919050565b600060208201905081810360008301526140b181613c3b565b9050919050565b600060208201905081810360008301526140d181613c5e565b9050919050565b600060208201905081810360008301526140f181613c81565b9050919050565b6000602082019050818103600083015261411181613ca4565b9050919050565b600060208201905061412d6000830184613cd6565b92915050565b60006040820190506141486000830185613cd6565b6141556020830184613cd6565b9392505050565b6000614166614177565b90506141728282614466565b919050565b6000604051905090565b600067ffffffffffffffff82111561419c5761419b61453e565b5b602082029050602081019050919050565b600067ffffffffffffffff8211156141c8576141c761453e565b5b602082029050602081019050919050565b600067ffffffffffffffff8211156141f4576141f361453e565b5b6141fd8261458f565b9050602081019050919050565b600067ffffffffffffffff8211156142255761422461453e565b5b61422e8261458f565b9050602081019050919050565b6000819050602082019050919050565b600081519050919050565b600081519050919050565b600081519050919050565b6000602082019050919050565b600082825260208201905092915050565b600082825260208201905092915050565b600082825260208201905092915050565b60006142b7826143b2565b91506142c2836143b2565b9250827fffffffffffffffffffffffffffffffffffffffffffffffffffffffffffffffff038211156142f7576142f66144e0565b5b828201905092915050565b600061430d826143b2565b9150614318836143b2565b92508282101561432b5761432a6144e0565b5b828203905092915050565b600061434182614392565b9050919050565b600061435382614392565b9050919050565b60008115159050919050565b60007fffffffff0000000000000000000000000000000000000000000000000000000082169050919050565b600073ffffffffffffffffffffffffffffffffffffffff82169050919050565b6000819050919050565b60006143c7826143ce565b9050919050565b60006143d9826143e0565b9050919050565b60006143eb82614392565b9050919050565b82818337600083830152505050565b60005b8381101561441f578082015181840152602081019050614404565b8381111561442e576000848401525b50505050565b6000600282049050600182168061444c57607f821691505b602082108114156144605761445f61450f565b5b50919050565b61446f8261458f565b810181811067ffffffffffffffff8211171561448e5761448d61453e565b5b80604052505050565b60006144a2826143b2565b91507fffffffffffffffffffffffffffffffffffffffffffffffffffffffffffffffff8214156144d5576144d46144e0565b5b600182019050919050565b7f4e487b7100000000000000000000000000000000000000000000000000000000600052601160045260246000fd5b7f4e487b7100000000000000000000000000000000000000000000000000000000600052602260045260246000fd5b7f4e487b7100000000000000000000000000000000000000000000000000000000600052604160045260246000fd5b600060033d111561458c5760046000803e6145896000516145a0565b90505b90565b6000601f19601f8301169050919050565b60008160e01c9050919050565b7f455243313135353a207472616e7366657220746f206e6f6e204552433131353560008201527f526563656976657220696d706c656d656e746572000000000000000000000000602082015250565b7f455243313135353a204552433131353552656365697665722072656a6563746560008201527f6420746f6b656e73000000000000000000000000000000000000000000000000602082015250565b7f5061757361626c653a206e6f7420706175736564000000000000000000000000600082015250565b7f455243313135353a2062616c616e636520717565727920666f7220746865207a60008201527f65726f2061646472657373000000000000000000000000000000000000000000602082015250565b7f4f776e61626c653a206e6577206f776e657220697320746865207a65726f206160008201527f6464726573730000000000000000000000000000000000000000000000000000602082015250565b7f455243313135353a206275726e20616d6f756e7420657863656564732062616c60008201527f616e636500000000000000000000000000000000000000000000000000000000602082015250565b7f455243313135353a2063616c6c6572206973206e6f74206f776e6572206e6f7260008201527f20617070726f7665640000000000000000000000000000000000000000000000602082015250565b7f5061757361626c653a2070617573656400000000000000000000000000000000600082015250565b7f455243313135353a207472616e7366657220746f20746865207a65726f20616460008201527f6472657373000000000000000000000000000000000000000000000000000000602082015250565b7f455243313135353a207472616e736665722063616c6c6572206973206e6f742060008201527f6f776e6572206e6f7220617070726f7665640000000000000000000000000000602082015250565b7f455243313135353a206275726e2066726f6d20746865207a65726f206164647260008201527f6573730000000000000000000000000000000000000000000000000000000000602082015250565b7f455243313135353a20696e73756666696369656e742062616c616e636520666f60008201527f72207472616e7366657200000000000000000000000000000000000000000000602082015250565b7f4f776e61626c653a2063616c6c6572206973206e6f7420746865206f776e6572600082015250565b7f496d67546f6b656e236465706f7369743a205452414e534645525f4641494c4560008201527f4400000000000000000000000000000000000000000000000000000000000000602082015250565b7f496d67546f6b656e2377697468647261773a205452414e534645525f4641494c60008201527f4544000000000000000000000000000000000000000000000000000000000000602082015250565b7f455243313135353a2073657474696e6720617070726f76616c2073746174757360008201527f20666f722073656c660000000000000000000000000000000000000000000000602082015250565b7f455243313135353a206163636f756e747320616e6420696473206c656e67746860008201527f206d69736d617463680000000000000000000000000000000000000000000000602082015250565b7f455243313135353a2069647320616e6420616d6f756e7473206c656e6774682060008201527f6d69736d61746368000000000000000000000000000000000000000000000000602082015250565b7f455243313135353a206d696e7420746f20746865207a65726f2061646472657360008201527f7300000000000000000000000000000000000000000000000000000000000000602082015250565b600060443d1015614b2857614bab565b614b30614177565b60043d036004823e80513d602482011167ffffffffffffffff82111715614b58575050614bab565b808201805167ffffffffffffffff811115614b765750505050614bab565b80602083010160043d038501811115614b93575050505050614bab565b614ba282602001850186614466565b82955050505050505b90565b614bb781614336565b8114614bc257600080fd5b50565b614bce81614348565b8114614bd957600080fd5b50565b614be58161435a565b8114614bf057600080fd5b50565b614bfc81614366565b8114614c0757600080fd5b50565b614c13816143b2565b8114614c1e57600080fd5b5056fea26469706673582212201a75393d51f943dd1ab877215b6fea57ca5fa4afb6a70c31f1c7d65f5e8ea33464736f6c63430008040033",
  "linkReferences": {},
  "deployedLinkReferences": {}
}