{
  "_format": "hh-sol-artifact-1",
  "contractName": "Gether",
  "sourceName": "contracts/Gether.sol",
  "abi": [
    {
      "inputs": [
        {
          "internalType": "address",
          "name": "_tokenAdd",
          "type": "address"
        }
      ],
      "stateMutability": "nonpayable",
      "type": "constructor"
    },
    {
      "anonymous": false,
      "inputs": [
        {
          "indexed": true,
          "internalType": "address",
          "name": "account",
          "type": "address"
        },
        {
          "indexed": true,
          "internalType": "address",
          "name": "operator",
          "type": "address"
        },
        {
          "indexed": false,
          "internalType": "bool",
          "name": "approved",
          "type": "bool"
        }
      ],
      "name": "ApprovalForAll",
      "type": "event"
    },
    {
      "anonymous": false,
      "inputs": [
        {
          "indexed": true,
          "internalType": "address",
          "name": "previousOwner",
          "type": "address"
        },
        {
          "indexed": true,
          "internalType": "address",
          "name": "newOwner",
          "type": "address"
        }
      ],
      "name": "OwnershipTransferred",
      "type": "event"
    },
    {
      "anonymous": false,
      "inputs": [
        {
          "indexed": false,
          "internalType": "address",
          "name": "account",
          "type": "address"
        }
      ],
      "name": "Paused",
      "type": "event"
    },
    {
      "anonymous": false,
      "inputs": [
        {
          "indexed": true,
          "internalType": "address",
          "name": "operator",
          "type": "address"
        },
        {
          "indexed": true,
          "internalType": "address",
          "name": "from",
          "type": "address"
        },
        {
          "indexed": true,
          "internalType": "address",
          "name": "to",
          "type": "address"
        },
        {
          "indexed": false,
          "internalType": "uint256[]",
          "name": "ids",
          "type": "uint256[]"
        },
        {
          "indexed": false,
          "internalType": "uint256[]",
          "name": "values",
          "type": "uint256[]"
        }
      ],
      "name": "TransferBatch",
      "type": "event"
    },
    {
      "anonymous": false,
      "inputs": [
        {
          "indexed": true,
          "internalType": "address",
          "name": "operator",
          "type": "address"
        },
        {
          "indexed": true,
          "internalType": "address",
          "name": "from",
          "type": "address"
        },
        {
          "indexed": true,
          "internalType": "address",
          "name": "to",
          "type": "address"
        },
        {
          "indexed": false,
          "internalType": "uint256",
          "name": "id",
          "type": "uint256"
        },
        {
          "indexed": false,
          "internalType": "uint256",
          "name": "value",
          "type": "uint256"
        }
      ],
      "name": "TransferSingle",
      "type": "event"
    },
    {
      "anonymous": false,
      "inputs": [
        {
          "indexed": false,
          "internalType": "string",
          "name": "value",
          "type": "string"
        },
        {
          "indexed": true,
          "internalType": "uint256",
          "name": "id",
          "type": "uint256"
        }
      ],
      "name": "URI",
      "type": "event"
    },
    {
      "anonymous": false,
      "inputs": [
        {
          "indexed": false,
          "internalType": "address",
          "name": "account",
          "type": "address"
        }
      ],
      "name": "Unpaused",
      "type": "event"
    },
    {
      "inputs": [
        {
          "internalType": "address",
          "name": "account",
          "type": "address"
        },
        {
          "internalType": "uint256",
          "name": "id",
          "type": "uint256"
        }
      ],
      "name": "balanceOf",
      "outputs": [
        {
          "internalType": "uint256",
          "name": "",
          "type": "uint256"
        }
      ],
      "stateMutability": "view",
      "type": "function"
    },
    {
      "inputs": [
        {
          "internalType": "address[]",
          "name": "accounts",
          "type": "address[]"
        },
        {
          "internalType": "uint256[]",
          "name": "ids",
          "type": "uint256[]"
        }
      ],
      "name": "balanceOfBatch",
      "outputs": [
        {
          "internalType": "uint256[]",
          "name": "",
          "type": "uint256[]"
        }
      ],
      "stateMutability": "view",
      "type": "function"
    },
    {
      "inputs": [
        {
          "internalType": "address",
          "name": "account",
          "type": "address"
        },
        {
          "internalType": "uint256",
          "name": "id",
          "type": "uint256"
        },
        {
          "internalType": "uint256",
          "name": "value",
          "type": "uint256"
        }
      ],
      "name": "burn",
      "outputs": [],
      "stateMutability": "nonpayable",
      "type": "function"
    },
    {
      "inputs": [
        {
          "internalType": "uint256",
          "name": "id",
          "type": "uint256"
        },
        {
          "internalType": "uint256",
          "name": "amount",
          "type": "uint256"
        }
      ],
      "name": "burnAndWithdraw",
      "outputs": [],
      "stateMutability": "nonpayable",
      "type": "function"
    },
    {
      "inputs": [
        {
          "internalType": "address",
          "name": "account",
          "type": "address"
        },
        {
          "internalType": "uint256[]",
          "name": "ids",
          "type": "uint256[]"
        },
        {
          "internalType": "uint256[]",
          "name": "values",
          "type": "uint256[]"
        }
      ],
      "name": "burnBatch",
      "outputs": [],
      "stateMutability": "nonpayable",
      "type": "function"
    },
    {
      "inputs": [
        {
          "internalType": "uint256",
          "name": "amount",
          "type": "uint256"
        }
      ],
      "name": "deposit",
      "outputs": [],
      "stateMutability": "nonpayable",
      "type": "function"
    },
    {
      "inputs": [
        {
          "internalType": "uint256",
          "name": "id",
          "type": "uint256"
        }
      ],
      "name": "exists",
      "outputs": [
        {
          "internalType": "bool",
          "name": "",
          "type": "bool"
        }
      ],
      "stateMutability": "view",
      "type": "function"
    },
    {
      "inputs": [],
      "name": "getTokenAddress",
      "outputs": [
        {
          "internalType": "address",
          "name": "_tokenAdd",
          "type": "address"
        }
      ],
      "stateMutability": "view",
      "type": "function"
    },
    {
      "inputs": [
        {
          "internalType": "address",
          "name": "account",
          "type": "address"
        },
        {
          "internalType": "address",
          "name": "operator",
          "type": "address"
        }
      ],
      "name": "isApprovedForAll",
      "outputs": [
        {
          "internalType": "bool",
          "name": "",
          "type": "bool"
        }
      ],
      "stateMutability": "view",
      "type": "function"
    },
    {
      "inputs": [
        {
          "internalType": "address",
          "name": "account",
          "type": "address"
        },
        {
          "internalType": "uint256",
          "name": "id",
          "type": "uint256"
        },
        {
          "internalType": "uint256",
          "name": "amount",
          "type": "uint256"
        },
        {
          "internalType": "bytes",
          "name": "data",
          "type": "bytes"
        }
      ],
      "name": "mint",
      "outputs": [],
      "stateMutability": "nonpayable",
      "type": "function"
    },
    {
      "inputs": [
        {
          "internalType": "address",
          "name": "to",
          "type": "address"
        },
        {
          "internalType": "uint256[]",
          "name": "ids",
          "type": "uint256[]"
        },
        {
          "internalType": "uint256[]",
          "name": "amounts",
          "type": "uint256[]"
        },
        {
          "internalType": "bytes",
          "name": "data",
          "type": "bytes"
        }
      ],
      "name": "mintBatch",
      "outputs": [],
      "stateMutability": "nonpayable",
      "type": "function"
    },
    {
      "inputs": [
        {
          "internalType": "address",
          "name": "_recipient",
          "type": "address"
        },
        {
          "internalType": "uint256",
          "name": "amount",
          "type": "uint256"
        },
        {
          "internalType": "bytes",
          "name": "data",
          "type": "bytes"
        }
      ],
      "name": "mintIncremental",
      "outputs": [],
      "stateMutability": "nonpayable",
      "type": "function"
    },
    {
      "inputs": [],
      "name": "owner",
      "outputs": [
        {
          "internalType": "address",
          "name": "",
          "type": "address"
        }
      ],
      "stateMutability": "view",
      "type": "function"
    },
    {
      "inputs": [],
      "name": "pause",
      "outputs": [],
      "stateMutability": "nonpayable",
      "type": "function"
    },
    {
      "inputs": [],
      "name": "paused",
      "outputs": [
        {
          "internalType": "bool",
          "name": "",
          "type": "bool"
        }
      ],
      "stateMutability": "view",
      "type": "function"
    },
    {
      "inputs": [],
      "name": "renounceOwnership",
      "outputs": [],
      "stateMutability": "nonpayable",
      "type": "function"
    },
    {
      "inputs": [
        {
          "internalType": "address",
          "name": "from",
          "type": "address"
        },
        {
          "internalType": "address",
          "name": "to",
          "type": "address"
        },
        {
          "internalType": "uint256[]",
          "name": "ids",
          "type": "uint256[]"
        },
        {
          "internalType": "uint256[]",
          "name": "amounts",
          "type": "uint256[]"
        },
        {
          "internalType": "bytes",
          "name": "data",
          "type": "bytes"
        }
      ],
      "name": "safeBatchTransferFrom",
      "outputs": [],
      "stateMutability": "nonpayable",
      "type": "function"
    },
    {
      "inputs": [
        {
          "internalType": "address",
          "name": "from",
          "type": "address"
        },
        {
          "internalType": "address",
          "name": "to",
          "type": "address"
        },
        {
          "internalType": "uint256",
          "name": "id",
          "type": "uint256"
        },
        {
          "internalType": "uint256",
          "name": "amount",
          "type": "uint256"
        },
        {
          "internalType": "bytes",
          "name": "data",
          "type": "bytes"
        }
      ],
      "name": "safeTransferFrom",
      "outputs": [],
      "stateMutability": "nonpayable",
      "type": "function"
    },
    {
      "inputs": [
        {
          "internalType": "address",
          "name": "operator",
          "type": "address"
        },
        {
          "internalType": "bool",
          "name": "approved",
          "type": "bool"
        }
      ],
      "name": "setApprovalForAll",
      "outputs": [],
      "stateMutability": "nonpayable",
      "type": "function"
    },
    {
      "inputs": [
        {
          "internalType": "address",
          "name": "_tokenAdd",
          "type": "address"
        }
      ],
      "name": "setTokenAddress",
      "outputs": [],
      "stateMutability": "nonpayable",
      "type": "function"
    },
    {
      "inputs": [
        {
          "internalType": "string",
          "name": "newuri",
          "type": "string"
        }
      ],
      "name": "setURI",
      "outputs": [],
      "stateMutability": "nonpayable",
      "type": "function"
    },
    {
      "inputs": [
        {
          "internalType": "bytes4",
          "name": "interfaceId",
          "type": "bytes4"
        }
      ],
      "name": "supportsInterface",
      "outputs": [
        {
          "internalType": "bool",
          "name": "",
          "type": "bool"
        }
      ],
      "stateMutability": "view",
      "type": "function"
    },
    {
      "inputs": [
        {
          "internalType": "uint256",
          "name": "id",
          "type": "uint256"
        }
      ],
      "name": "totalSupply",
      "outputs": [
        {
          "internalType": "uint256",
          "name": "",
          "type": "uint256"
        }
      ],
      "stateMutability": "view",
      "type": "function"
    },
    {
      "inputs": [
        {
          "internalType": "address",
          "name": "newOwner",
          "type": "address"
        }
      ],
      "name": "transferOwnership",
      "outputs": [],
      "stateMutability": "nonpayable",
      "type": "function"
    },
    {
      "inputs": [],
      "name": "unpause",
      "outputs": [],
      "stateMutability": "nonpayable",
      "type": "function"
    },
    {
      "inputs": [
        {
          "internalType": "uint256",
          "name": "",
          "type": "uint256"
        }
      ],
      "name": "uri",
      "outputs": [
        {
          "internalType": "string",
          "name": "",
          "type": "string"
        }
      ],
      "stateMutability": "view",
      "type": "function"
    },
    {
      "inputs": [
        {
          "internalType": "address payable",
          "name": "_to",
          "type": "address"
        },
        {
          "internalType": "uint256",
          "name": "_value",
          "type": "uint256"
        }
      ],
      "name": "withdraw",
      "outputs": [],
      "stateMutability": "nonpayable",
      "type": "function"
    }
  ],
  "bytecode": "0x60806040523480156200001157600080fd5b5060405162004edb38038062004edb83398181016040528101906200003791906200028d565b604051806020016040528060008152506200005881620000dc60201b60201c565b50620000796200006d620000f860201b60201c565b6200010060201b60201c565b6000600360146101000a81548160ff02191690831515021790555080600560006101000a81548173ffffffffffffffffffffffffffffffffffffffff021916908373ffffffffffffffffffffffffffffffffffffffff160217905550506200036c565b8060029080519060200190620000f4929190620001c6565b5050565b600033905090565b6000600360009054906101000a900473ffffffffffffffffffffffffffffffffffffffff16905081600360006101000a81548173ffffffffffffffffffffffffffffffffffffffff021916908373ffffffffffffffffffffffffffffffffffffffff1602179055508173ffffffffffffffffffffffffffffffffffffffff168173ffffffffffffffffffffffffffffffffffffffff167f8be0079c531659141344cd1fd0a4f28419497f9722a3daafe3b4186f6b6457e060405160405180910390a35050565b828054620001d490620002ed565b90600052602060002090601f016020900481019282620001f8576000855562000244565b82601f106200021357805160ff191683800117855562000244565b8280016001018555821562000244579182015b828111156200024357825182559160200191906001019062000226565b5b50905062000253919062000257565b5090565b5b808211156200027257600081600090555060010162000258565b5090565b600081519050620002878162000352565b92915050565b600060208284031215620002a057600080fd5b6000620002b08482850162000276565b91505092915050565b6000620002c682620002cd565b9050919050565b600073ffffffffffffffffffffffffffffffffffffffff82169050919050565b600060028204905060018216806200030657607f821691505b602082108114156200031d576200031c62000323565b5b50919050565b7f4e487b7100000000000000000000000000000000000000000000000000000000600052602260045260246000fd5b6200035d81620002b9565b81146200036957600080fd5b50565b614b5f806200037c6000396000f3fe608060405234801561001057600080fd5b50600436106101a85760003560e01c80636b20c454116100f9578063b6b55f2511610097578063f242432a11610071578063f242432a1461048d578063f2fde38b146104a9578063f3fef3a3146104c5578063f5298aca146104e1576101a8565b8063b6b55f2514610411578063bd85b0391461042d578063e985e9c51461045d576101a8565b80638456cb59116100d35780638456cb59146103b15780638da5cb5b146103bb578063a22cb465146103d9578063b6571caf146103f5576101a8565b80636b20c4541461036f578063715018a61461038b578063731133e914610395576101a8565b806326a4e8d2116101665780633f4ba83a116101405780633f4ba83a146102e75780634e1273f4146102f15780634f558e79146103215780635c975abb14610351576101a8565b806326a4e8d2146102935780632eb2c2d6146102af5780633bb60495146102cb576101a8565b8062fdd58e146101ad57806301ffc9a7146101dd57806302fe53051461020d5780630e89341c1461022957806310fe9ae8146102595780631f7fdffa14610277575b600080fd5b6101c760048036038101906101c29190613527565b6104fd565b6040516101d49190614020565b60405180910390f35b6101f760048036038101906101f29190613729565b6105c6565b6040516102049190613d83565b60405180910390f35b6102276004803603810190610222919061377b565b6106a8565b005b610243600480360381019061023e91906137bc565b610730565b6040516102509190613d9e565b60405180910390f35b6102616107c4565b60405161026e9190613bed565b60405180910390f35b610291600480360381019061028c9190613440565b6107ee565b005b6102ad60048036038101906102a891906131d2565b61087c565b005b6102c960048036038101906102c49190613273565b61093c565b005b6102e560048036038101906102e091906137e5565b6109dd565b005b6102ef6109f6565b005b61030b60048036038101906103069190613694565b610a7c565b6040516103189190613d2a565b60405180910390f35b61033b600480360381019061033691906137bc565b610c2d565b6040516103489190613d83565b60405180910390f35b610359610c41565b6040516103669190613d83565b60405180910390f35b610389600480360381019061038491906133c1565b610c58565b005b610393610cf5565b005b6103af60048036038101906103aa9190613619565b610d7d565b005b6103b9610d98565b005b6103c3610e1e565b6040516103d09190613bed565b60405180910390f35b6103f360048036038101906103ee91906134eb565b610e48565b005b61040f600480360381019061040a9190613563565b610e5e565b005b61042b600480360381019061042691906137bc565b610e91565b005b610447600480360381019061044291906137bc565b611009565b6040516104549190614020565b60405180910390f35b61047760048036038101906104729190613237565b611026565b6040516104849190613d83565b60405180910390f35b6104a760048036038101906104a29190613332565b6110ba565b005b6104c360048036038101906104be91906131d2565b61115b565b005b6104df60048036038101906104da91906131fb565b611253565b005b6104fb60048036038101906104f691906135ca565b6113ca565b005b60008073ffffffffffffffffffffffffffffffffffffffff168373ffffffffffffffffffffffffffffffffffffffff16141561056e576040517f08c379a000000000000000000000000000000000000000000000000000000000815260040161056590613e20565b60405180910390fd5b60008083815260200190815260200160002060008473ffffffffffffffffffffffffffffffffffffffff1673ffffffffffffffffffffffffffffffffffffffff16815260200190815260200160002054905092915050565b60007fd9b67a26000000000000000000000000000000000000000000000000000000007bffffffffffffffffffffffffffffffffffffffffffffffffffffffff1916827bffffffffffffffffffffffffffffffffffffffffffffffffffffffff1916148061069157507f0e89341c000000000000000000000000000000000000000000000000000000007bffffffffffffffffffffffffffffffffffffffffffffffffffffffff1916827bffffffffffffffffffffffffffffffffffffffffffffffffffffffff1916145b806106a157506106a082611467565b5b9050919050565b6106b06114d1565b73ffffffffffffffffffffffffffffffffffffffff166106ce610e1e565b73ffffffffffffffffffffffffffffffffffffffff1614610724576040517f08c379a000000000000000000000000000000000000000000000000000000000815260040161071b90613f40565b60405180910390fd5b61072d816114d9565b50565b60606002805461073f9061433c565b80601f016020809104026020016040519081016040528092919081815260200182805461076b9061433c565b80156107b85780601f1061078d576101008083540402835291602001916107b8565b820191906000526020600020905b81548152906001019060200180831161079b57829003601f168201915b50505050509050919050565b6000600560009054906101000a900473ffffffffffffffffffffffffffffffffffffffff16905090565b6107f66114d1565b73ffffffffffffffffffffffffffffffffffffffff16610814610e1e565b73ffffffffffffffffffffffffffffffffffffffff161461086a576040517f08c379a000000000000000000000000000000000000000000000000000000000815260040161086190613f40565b60405180910390fd5b610876848484846114f3565b50505050565b6108846114d1565b73ffffffffffffffffffffffffffffffffffffffff166108a2610e1e565b73ffffffffffffffffffffffffffffffffffffffff16146108f8576040517f08c379a00000000000000000000000000000000000000000000000000000000081526004016108ef90613f40565b60405180910390fd5b80600560006101000a81548173ffffffffffffffffffffffffffffffffffffffff021916908373ffffffffffffffffffffffffffffffffffffffff16021790555050565b6109446114d1565b73ffffffffffffffffffffffffffffffffffffffff168573ffffffffffffffffffffffffffffffffffffffff16148061098a5750610989856109846114d1565b611026565b5b6109c9576040517f08c379a00000000000000000000000000000000000000000000000000000000081526004016109c090613ee0565b60405180910390fd5b6109d6858585858561175d565b5050505050565b6109e8338383611abd565b6109f23382611253565b5050565b6109fe6114d1565b73ffffffffffffffffffffffffffffffffffffffff16610a1c610e1e565b73ffffffffffffffffffffffffffffffffffffffff1614610a72576040517f08c379a0000000000000000000000000000000000000000000000000000000008152600401610a6990613f40565b60405180910390fd5b610a7a611cda565b565b60608151835114610ac2576040517f08c379a0000000000000000000000000000000000000000000000000000000008152600401610ab990613fc0565b60405180910390fd5b6000835167ffffffffffffffff811115610b05577f4e487b7100000000000000000000000000000000000000000000000000000000600052604160045260246000fd5b604051908082528060200260200182016040528015610b335781602001602082028036833780820191505090505b50905060005b8451811015610c2257610bcc858281518110610b7e577f4e487b7100000000000000000000000000000000000000000000000000000000600052603260045260246000fd5b6020026020010151858381518110610bbf577f4e487b7100000000000000000000000000000000000000000000000000000000600052603260045260246000fd5b60200260200101516104fd565b828281518110610c05577f4e487b7100000000000000000000000000000000000000000000000000000000600052603260045260246000fd5b60200260200101818152505080610c1b9061439f565b9050610b39565b508091505092915050565b600080610c3983611009565b119050919050565b6000600360149054906101000a900460ff16905090565b610c606114d1565b73ffffffffffffffffffffffffffffffffffffffff168373ffffffffffffffffffffffffffffffffffffffff161480610ca65750610ca583610ca06114d1565b611026565b5b610ce5576040517f08c379a0000000000000000000000000000000000000000000000000000000008152600401610cdc90613e80565b60405180910390fd5b610cf0838383611d7c565b505050565b610cfd6114d1565b73ffffffffffffffffffffffffffffffffffffffff16610d1b610e1e565b73ffffffffffffffffffffffffffffffffffffffff1614610d71576040517f08c379a0000000000000000000000000000000000000000000000000000000008152600401610d6890613f40565b60405180910390fd5b610d7b6000612079565b565b610d8682610e91565b610d928484848461213f565b50505050565b610da06114d1565b73ffffffffffffffffffffffffffffffffffffffff16610dbe610e1e565b73ffffffffffffffffffffffffffffffffffffffff1614610e14576040517f08c379a0000000000000000000000000000000000000000000000000000000008152600401610e0b90613f40565b60405180910390fd5b610e1c6122d5565b565b6000600360009054906101000a900473ffffffffffffffffffffffffffffffffffffffff16905090565b610e5a610e536114d1565b8383612378565b5050565b610e6782610e91565b610e7160066124e5565b6000610e7d60066124fb565b9050610e8b8482858561213f565b50505050565b610e996114d1565b73ffffffffffffffffffffffffffffffffffffffff16610eb7610e1e565b73ffffffffffffffffffffffffffffffffffffffff1614610f0d576040517f08c379a0000000000000000000000000000000000000000000000000000000008152600401610f0490613f40565b60405180910390fd5b600560009054906101000a900473ffffffffffffffffffffffffffffffffffffffff1673ffffffffffffffffffffffffffffffffffffffff166323b872dd3330846040518463ffffffff1660e01b8152600401610f6c93929190613c99565b602060405180830381600087803b158015610f8657600080fd5b505af1158015610f9a573d6000803e3d6000fd5b505050506040513d601f19601f82011682018060405250810190610fbe9190613700565b50610fc7612509565b611006576040517f08c379a0000000000000000000000000000000000000000000000000000000008152600401610ffd90613f60565b60405180910390fd5b50565b600060046000838152602001908152602001600020549050919050565b6000600160008473ffffffffffffffffffffffffffffffffffffffff1673ffffffffffffffffffffffffffffffffffffffff16815260200190815260200160002060008373ffffffffffffffffffffffffffffffffffffffff1673ffffffffffffffffffffffffffffffffffffffff16815260200190815260200160002060009054906101000a900460ff16905092915050565b6110c26114d1565b73ffffffffffffffffffffffffffffffffffffffff168573ffffffffffffffffffffffffffffffffffffffff1614806111085750611107856111026114d1565b611026565b5b611147576040517f08c379a000000000000000000000000000000000000000000000000000000000815260040161113e90613e80565b60405180910390fd5b6111548585858585612547565b5050505050565b6111636114d1565b73ffffffffffffffffffffffffffffffffffffffff16611181610e1e565b73ffffffffffffffffffffffffffffffffffffffff16146111d7576040517f08c379a00000000000000000000000000000000000000000000000000000000081526004016111ce90613f40565b60405180910390fd5b600073ffffffffffffffffffffffffffffffffffffffff168173ffffffffffffffffffffffffffffffffffffffff161415611247576040517f08c379a000000000000000000000000000000000000000000000000000000000815260040161123e90613e40565b60405180910390fd5b61125081612079565b50565b61125b6114d1565b73ffffffffffffffffffffffffffffffffffffffff16611279610e1e565b73ffffffffffffffffffffffffffffffffffffffff16146112cf576040517f08c379a00000000000000000000000000000000000000000000000000000000081526004016112c690613f40565b60405180910390fd5b600560009054906101000a900473ffffffffffffffffffffffffffffffffffffffff1673ffffffffffffffffffffffffffffffffffffffff1663a9059cbb83836040518363ffffffff1660e01b815260040161132c929190613c08565b602060405180830381600087803b15801561134657600080fd5b505af115801561135a573d6000803e3d6000fd5b505050506040513d601f19601f8201168201806040525081019061137e9190613700565b50611387612509565b6113c6576040517f08c379a00000000000000000000000000000000000000000000000000000000081526004016113bd90613f80565b60405180910390fd5b5050565b6113d26114d1565b73ffffffffffffffffffffffffffffffffffffffff168373ffffffffffffffffffffffffffffffffffffffff1614806114185750611417836114126114d1565b611026565b5b611457576040517f08c379a000000000000000000000000000000000000000000000000000000000815260040161144e90613e80565b60405180910390fd5b611462838383611abd565b505050565b60007f01ffc9a7000000000000000000000000000000000000000000000000000000007bffffffffffffffffffffffffffffffffffffffffffffffffffffffff1916827bffffffffffffffffffffffffffffffffffffffffffffffffffffffff1916149050919050565b600033905090565b80600290805190602001906114ef929190612ea0565b5050565b600073ffffffffffffffffffffffffffffffffffffffff168473ffffffffffffffffffffffffffffffffffffffff161415611563576040517f08c379a000000000000000000000000000000000000000000000000000000000815260040161155a90614000565b60405180910390fd5b81518351146115a7576040517f08c379a000000000000000000000000000000000000000000000000000000000815260040161159e90613fe0565b60405180910390fd5b60006115b16114d1565b90506115c2816000878787876127c9565b60005b84518110156116c757838181518110611607577f4e487b7100000000000000000000000000000000000000000000000000000000600052603260045260246000fd5b602002602001015160008087848151811061164b577f4e487b7100000000000000000000000000000000000000000000000000000000600052603260045260246000fd5b6020026020010151815260200190815260200160002060008873ffffffffffffffffffffffffffffffffffffffff1673ffffffffffffffffffffffffffffffffffffffff16815260200190815260200160002060008282546116ad91906141b4565b9250508190555080806116bf9061439f565b9150506115c5565b508473ffffffffffffffffffffffffffffffffffffffff16600073ffffffffffffffffffffffffffffffffffffffff168273ffffffffffffffffffffffffffffffffffffffff167f4a39dc06d4c0dbc64b70af90fd698a233a518aa5d07e595d983b8c0526c8f7fb878760405161173f929190613d4c565b60405180910390a4611756816000878787876127df565b5050505050565b81518351146117a1576040517f08c379a000000000000000000000000000000000000000000000000000000000815260040161179890613fe0565b60405180910390fd5b600073ffffffffffffffffffffffffffffffffffffffff168473ffffffffffffffffffffffffffffffffffffffff161415611811576040517f08c379a000000000000000000000000000000000000000000000000000000000815260040161180890613ec0565b60405180910390fd5b600061181b6114d1565b905061182b8187878787876127c9565b60005b8451811015611a28576000858281518110611872577f4e487b7100000000000000000000000000000000000000000000000000000000600052603260045260246000fd5b6020026020010151905060008583815181106118b7577f4e487b7100000000000000000000000000000000000000000000000000000000600052603260045260246000fd5b60200260200101519050600080600084815260200190815260200160002060008b73ffffffffffffffffffffffffffffffffffffffff1673ffffffffffffffffffffffffffffffffffffffff16815260200190815260200160002054905081811015611958576040517f08c379a000000000000000000000000000000000000000000000000000000000815260040161194f90613f20565b60405180910390fd5b81810360008085815260200190815260200160002060008c73ffffffffffffffffffffffffffffffffffffffff1673ffffffffffffffffffffffffffffffffffffffff168152602001908152602001600020819055508160008085815260200190815260200160002060008b73ffffffffffffffffffffffffffffffffffffffff1673ffffffffffffffffffffffffffffffffffffffff1681526020019081526020016000206000828254611a0d91906141b4565b9250508190555050505080611a219061439f565b905061182e565b508473ffffffffffffffffffffffffffffffffffffffff168673ffffffffffffffffffffffffffffffffffffffff168273ffffffffffffffffffffffffffffffffffffffff167f4a39dc06d4c0dbc64b70af90fd698a233a518aa5d07e595d983b8c0526c8f7fb8787604051611a9f929190613d4c565b60405180910390a4611ab58187878787876127df565b505050505050565b600073ffffffffffffffffffffffffffffffffffffffff168373ffffffffffffffffffffffffffffffffffffffff161415611b2d576040517f08c379a0000000000000000000000000000000000000000000000000000000008152600401611b2490613f00565b60405180910390fd5b6000611b376114d1565b9050611b6781856000611b49876129c6565b611b52876129c6565b604051806020016040528060008152506127c9565b600080600085815260200190815260200160002060008673ffffffffffffffffffffffffffffffffffffffff1673ffffffffffffffffffffffffffffffffffffffff16815260200190815260200160002054905082811015611bfe576040517f08c379a0000000000000000000000000000000000000000000000000000000008152600401611bf590613e60565b60405180910390fd5b82810360008086815260200190815260200160002060008773ffffffffffffffffffffffffffffffffffffffff1673ffffffffffffffffffffffffffffffffffffffff16815260200190815260200160002081905550600073ffffffffffffffffffffffffffffffffffffffff168573ffffffffffffffffffffffffffffffffffffffff168373ffffffffffffffffffffffffffffffffffffffff167fc3d58168c5ae7397731d063d5bbf3d657854427343f4c083240f7aacaa2d0f628787604051611ccb92919061403b565b60405180910390a45050505050565b611ce2610c41565b611d21576040517f08c379a0000000000000000000000000000000000000000000000000000000008152600401611d1890613e00565b60405180910390fd5b6000600360146101000a81548160ff0219169083151502179055507f5db9ee0a495bf2e6ff9c91a7834c1ba4fdd244a5e8aa4e537bd38aeae4b073aa611d656114d1565b604051611d729190613bed565b60405180910390a1565b600073ffffffffffffffffffffffffffffffffffffffff168373ffffffffffffffffffffffffffffffffffffffff161415611dec576040517f08c379a0000000000000000000000000000000000000000000000000000000008152600401611de390613f00565b60405180910390fd5b8051825114611e30576040517f08c379a0000000000000000000000000000000000000000000000000000000008152600401611e2790613fe0565b60405180910390fd5b6000611e3a6114d1565b9050611e5a818560008686604051806020016040528060008152506127c9565b60005b8351811015611ff3576000848281518110611ea1577f4e487b7100000000000000000000000000000000000000000000000000000000600052603260045260246000fd5b602002602001015190506000848381518110611ee6577f4e487b7100000000000000000000000000000000000000000000000000000000600052603260045260246000fd5b60200260200101519050600080600084815260200190815260200160002060008973ffffffffffffffffffffffffffffffffffffffff1673ffffffffffffffffffffffffffffffffffffffff16815260200190815260200160002054905081811015611f87576040517f08c379a0000000000000000000000000000000000000000000000000000000008152600401611f7e90613e60565b60405180910390fd5b81810360008085815260200190815260200160002060008a73ffffffffffffffffffffffffffffffffffffffff1673ffffffffffffffffffffffffffffffffffffffff168152602001908152602001600020819055505050508080611feb9061439f565b915050611e5d565b50600073ffffffffffffffffffffffffffffffffffffffff168473ffffffffffffffffffffffffffffffffffffffff168273ffffffffffffffffffffffffffffffffffffffff167f4a39dc06d4c0dbc64b70af90fd698a233a518aa5d07e595d983b8c0526c8f7fb868660405161206b929190613d4c565b60405180910390a450505050565b6000600360009054906101000a900473ffffffffffffffffffffffffffffffffffffffff16905081600360006101000a81548173ffffffffffffffffffffffffffffffffffffffff021916908373ffffffffffffffffffffffffffffffffffffffff1602179055508173ffffffffffffffffffffffffffffffffffffffff168173ffffffffffffffffffffffffffffffffffffffff167f8be0079c531659141344cd1fd0a4f28419497f9722a3daafe3b4186f6b6457e060405160405180910390a35050565b600073ffffffffffffffffffffffffffffffffffffffff168473ffffffffffffffffffffffffffffffffffffffff1614156121af576040517f08c379a00000000000000000000000000000000000000000000000000000000081526004016121a690614000565b60405180910390fd5b60006121b96114d1565b90506121da816000876121cb886129c6565b6121d4886129c6565b876127c9565b8260008086815260200190815260200160002060008773ffffffffffffffffffffffffffffffffffffffff1673ffffffffffffffffffffffffffffffffffffffff168152602001908152602001600020600082825461223991906141b4565b925050819055508473ffffffffffffffffffffffffffffffffffffffff16600073ffffffffffffffffffffffffffffffffffffffff168273ffffffffffffffffffffffffffffffffffffffff167fc3d58168c5ae7397731d063d5bbf3d657854427343f4c083240f7aacaa2d0f6287876040516122b792919061403b565b60405180910390a46122ce81600087878787612a8c565b5050505050565b6122dd610c41565b1561231d576040517f08c379a000000000000000000000000000000000000000000000000000000000815260040161231490613ea0565b60405180910390fd5b6001600360146101000a81548160ff0219169083151502179055507f62e78cea01bee320cd4e420270b5ea74000d11b0c9f74754ebdbfc544b05a2586123616114d1565b60405161236e9190613bed565b60405180910390a1565b8173ffffffffffffffffffffffffffffffffffffffff168373ffffffffffffffffffffffffffffffffffffffff1614156123e7576040517f08c379a00000000000000000000000000000000000000000000000000000000081526004016123de90613fa0565b60405180910390fd5b80600160008573ffffffffffffffffffffffffffffffffffffffff1673ffffffffffffffffffffffffffffffffffffffff16815260200190815260200160002060008473ffffffffffffffffffffffffffffffffffffffff1673ffffffffffffffffffffffffffffffffffffffff16815260200190815260200160002060006101000a81548160ff0219169083151502179055508173ffffffffffffffffffffffffffffffffffffffff168373ffffffffffffffffffffffffffffffffffffffff167f17307eab39ab6107e8899845ad3d59bd9653f200f220920489ca2b5937696c31836040516124d89190613d83565b60405180910390a3505050565b6001816000016000828254019250508190555050565b600081600001549050919050565b600080600090503d60008114612526576020811461252f5761253b565b6001915061253b565b60206000803e60005191505b50600081141591505090565b600073ffffffffffffffffffffffffffffffffffffffff168473ffffffffffffffffffffffffffffffffffffffff1614156125b7576040517f08c379a00000000000000000000000000000000000000000000000000000000081526004016125ae90613ec0565b60405180910390fd5b60006125c16114d1565b90506125e18187876125d2886129c6565b6125db886129c6565b876127c9565b600080600086815260200190815260200160002060008873ffffffffffffffffffffffffffffffffffffffff1673ffffffffffffffffffffffffffffffffffffffff16815260200190815260200160002054905083811015612678576040517f08c379a000000000000000000000000000000000000000000000000000000000815260040161266f90613f20565b60405180910390fd5b83810360008087815260200190815260200160002060008973ffffffffffffffffffffffffffffffffffffffff1673ffffffffffffffffffffffffffffffffffffffff168152602001908152602001600020819055508360008087815260200190815260200160002060008873ffffffffffffffffffffffffffffffffffffffff1673ffffffffffffffffffffffffffffffffffffffff168152602001908152602001600020600082825461272d91906141b4565b925050819055508573ffffffffffffffffffffffffffffffffffffffff168773ffffffffffffffffffffffffffffffffffffffff168373ffffffffffffffffffffffffffffffffffffffff167fc3d58168c5ae7397731d063d5bbf3d657854427343f4c083240f7aacaa2d0f6288886040516127aa92919061403b565b60405180910390a46127c0828888888888612a8c565b50505050505050565b6127d7868686868686612c73565b505050505050565b6127fe8473ffffffffffffffffffffffffffffffffffffffff16612e85565b156129be578373ffffffffffffffffffffffffffffffffffffffff1663bc197c8187878686866040518663ffffffff1660e01b8152600401612844959493929190613c31565b602060405180830381600087803b15801561285e57600080fd5b505af192505050801561288f57506040513d601f19601f8201168201806040525081019061288c9190613752565b60015b6129355761289b614475565b806308c379a014156128f857506128b0614a20565b806128bb57506128fa565b806040517f08c379a00000000000000000000000000000000000000000000000000000000081526004016128ef9190613d9e565b60405180910390fd5b505b6040517f08c379a000000000000000000000000000000000000000000000000000000000815260040161292c90613dc0565b60405180910390fd5b63bc197c8160e01b7bffffffffffffffffffffffffffffffffffffffffffffffffffffffff1916817bffffffffffffffffffffffffffffffffffffffffffffffffffffffff1916146129bc576040517f08c379a00000000000000000000000000000000000000000000000000000000081526004016129b390613de0565b60405180910390fd5b505b505050505050565b60606000600167ffffffffffffffff811115612a0b577f4e487b7100000000000000000000000000000000000000000000000000000000600052604160045260246000fd5b604051908082528060200260200182016040528015612a395781602001602082028036833780820191505090505b5090508281600081518110612a77577f4e487b7100000000000000000000000000000000000000000000000000000000600052603260045260246000fd5b60200260200101818152505080915050919050565b612aab8473ffffffffffffffffffffffffffffffffffffffff16612e85565b15612c6b578373ffffffffffffffffffffffffffffffffffffffff1663f23a6e6187878686866040518663ffffffff1660e01b8152600401612af1959493929190613cd0565b602060405180830381600087803b158015612b0b57600080fd5b505af1925050508015612b3c57506040513d601f19601f82011682018060405250810190612b399190613752565b60015b612be257612b48614475565b806308c379a01415612ba55750612b5d614a20565b80612b685750612ba7565b806040517f08c379a0000000000000000000000000000000000000000000000000000000008152600401612b9c9190613d9e565b60405180910390fd5b505b6040517f08c379a0000000000000000000000000000000000000000000000000000000008152600401612bd990613dc0565b60405180910390fd5b63f23a6e6160e01b7bffffffffffffffffffffffffffffffffffffffffffffffffffffffff1916817bffffffffffffffffffffffffffffffffffffffffffffffffffffffff191614612c69576040517f08c379a0000000000000000000000000000000000000000000000000000000008152600401612c6090613de0565b60405180910390fd5b505b505050505050565b612c81868686868686612e98565b600073ffffffffffffffffffffffffffffffffffffffff168573ffffffffffffffffffffffffffffffffffffffff161415612d7f5760005b8351811015612d7d57828181518110612cfb577f4e487b7100000000000000000000000000000000000000000000000000000000600052603260045260246000fd5b602002602001015160046000868481518110612d40577f4e487b7100000000000000000000000000000000000000000000000000000000600052603260045260246000fd5b602002602001015181526020019081526020016000206000828254612d6591906141b4565b9250508190555080612d769061439f565b9050612cb9565b505b600073ffffffffffffffffffffffffffffffffffffffff168473ffffffffffffffffffffffffffffffffffffffff161415612e7d5760005b8351811015612e7b57828181518110612df9577f4e487b7100000000000000000000000000000000000000000000000000000000600052603260045260246000fd5b602002602001015160046000868481518110612e3e577f4e487b7100000000000000000000000000000000000000000000000000000000600052603260045260246000fd5b602002602001015181526020019081526020016000206000828254612e63919061420a565b9250508190555080612e749061439f565b9050612db7565b505b505050505050565b600080823b905060008111915050919050565b505050505050565b828054612eac9061433c565b90600052602060002090601f016020900481019282612ece5760008555612f15565b82601f10612ee757805160ff1916838001178555612f15565b82800160010185558215612f15579182015b82811115612f14578251825591602001919060010190612ef9565b5b509050612f229190612f26565b5090565b5b80821115612f3f576000816000905550600101612f27565b5090565b6000612f56612f5184614089565b614064565b90508083825260208201905082856020860282011115612f7557600080fd5b60005b85811015612fa55781612f8b8882613097565b845260208401935060208301925050600181019050612f78565b5050509392505050565b6000612fc2612fbd846140b5565b614064565b90508083825260208201905082856020860282011115612fe157600080fd5b60005b858110156130115781612ff788826131bd565b845260208401935060208301925050600181019050612fe4565b5050509392505050565b600061302e613029846140e1565b614064565b90508281526020810184848401111561304657600080fd5b6130518482856142fa565b509392505050565b600061306c61306784614112565b614064565b90508281526020810184848401111561308457600080fd5b61308f8482856142fa565b509392505050565b6000813590506130a681614ab6565b92915050565b6000813590506130bb81614acd565b92915050565b600082601f8301126130d257600080fd5b81356130e2848260208601612f43565b91505092915050565b600082601f8301126130fc57600080fd5b813561310c848260208601612faf565b91505092915050565b60008135905061312481614ae4565b92915050565b60008151905061313981614ae4565b92915050565b60008135905061314e81614afb565b92915050565b60008151905061316381614afb565b92915050565b600082601f83011261317a57600080fd5b813561318a84826020860161301b565b91505092915050565b600082601f8301126131a457600080fd5b81356131b4848260208601613059565b91505092915050565b6000813590506131cc81614b12565b92915050565b6000602082840312156131e457600080fd5b60006131f284828501613097565b91505092915050565b6000806040838503121561320e57600080fd5b600061321c858286016130ac565b925050602061322d858286016131bd565b9150509250929050565b6000806040838503121561324a57600080fd5b600061325885828601613097565b925050602061326985828601613097565b9150509250929050565b600080600080600060a0868803121561328b57600080fd5b600061329988828901613097565b95505060206132aa88828901613097565b945050604086013567ffffffffffffffff8111156132c757600080fd5b6132d3888289016130eb565b935050606086013567ffffffffffffffff8111156132f057600080fd5b6132fc888289016130eb565b925050608086013567ffffffffffffffff81111561331957600080fd5b61332588828901613169565b9150509295509295909350565b600080600080600060a0868803121561334a57600080fd5b600061335888828901613097565b955050602061336988828901613097565b945050604061337a888289016131bd565b935050606061338b888289016131bd565b925050608086013567ffffffffffffffff8111156133a857600080fd5b6133b488828901613169565b9150509295509295909350565b6000806000606084860312156133d657600080fd5b60006133e486828701613097565b935050602084013567ffffffffffffffff81111561340157600080fd5b61340d868287016130eb565b925050604084013567ffffffffffffffff81111561342a57600080fd5b613436868287016130eb565b9150509250925092565b6000806000806080858703121561345657600080fd5b600061346487828801613097565b945050602085013567ffffffffffffffff81111561348157600080fd5b61348d878288016130eb565b935050604085013567ffffffffffffffff8111156134aa57600080fd5b6134b6878288016130eb565b925050606085013567ffffffffffffffff8111156134d357600080fd5b6134df87828801613169565b91505092959194509250565b600080604083850312156134fe57600080fd5b600061350c85828601613097565b925050602061351d85828601613115565b9150509250929050565b6000806040838503121561353a57600080fd5b600061354885828601613097565b9250506020613559858286016131bd565b9150509250929050565b60008060006060848603121561357857600080fd5b600061358686828701613097565b9350506020613597868287016131bd565b925050604084013567ffffffffffffffff8111156135b457600080fd5b6135c086828701613169565b9150509250925092565b6000806000606084860312156135df57600080fd5b60006135ed86828701613097565b93505060206135fe868287016131bd565b925050604061360f868287016131bd565b9150509250925092565b6000806000806080858703121561362f57600080fd5b600061363d87828801613097565b945050602061364e878288016131bd565b935050604061365f878288016131bd565b925050606085013567ffffffffffffffff81111561367c57600080fd5b61368887828801613169565b91505092959194509250565b600080604083850312156136a757600080fd5b600083013567ffffffffffffffff8111156136c157600080fd5b6136cd858286016130c1565b925050602083013567ffffffffffffffff8111156136ea57600080fd5b6136f6858286016130eb565b9150509250929050565b60006020828403121561371257600080fd5b60006137208482850161312a565b91505092915050565b60006020828403121561373b57600080fd5b60006137498482850161313f565b91505092915050565b60006020828403121561376457600080fd5b600061377284828501613154565b91505092915050565b60006020828403121561378d57600080fd5b600082013567ffffffffffffffff8111156137a757600080fd5b6137b384828501613193565b91505092915050565b6000602082840312156137ce57600080fd5b60006137dc848285016131bd565b91505092915050565b600080604083850312156137f857600080fd5b6000613806858286016131bd565b9250506020613817858286016131bd565b9150509250929050565b600061382d8383613bcf565b60208301905092915050565b613842816142c4565b82525050565b6138518161423e565b82525050565b600061386282614153565b61386c8185614181565b935061387783614143565b8060005b838110156138a857815161388f8882613821565b975061389a83614174565b92505060018101905061387b565b5085935050505092915050565b6138be81614262565b82525050565b60006138cf8261415e565b6138d98185614192565b93506138e9818560208601614309565b6138f281614497565b840191505092915050565b600061390882614169565b61391281856141a3565b9350613922818560208601614309565b61392b81614497565b840191505092915050565b60006139436034836141a3565b915061394e826144b5565b604082019050919050565b60006139666028836141a3565b915061397182614504565b604082019050919050565b60006139896014836141a3565b915061399482614553565b602082019050919050565b60006139ac602b836141a3565b91506139b78261457c565b604082019050919050565b60006139cf6026836141a3565b91506139da826145cb565b604082019050919050565b60006139f26024836141a3565b91506139fd8261461a565b604082019050919050565b6000613a156029836141a3565b9150613a2082614669565b604082019050919050565b6000613a386010836141a3565b9150613a43826146b8565b602082019050919050565b6000613a5b6025836141a3565b9150613a66826146e1565b604082019050919050565b6000613a7e6032836141a3565b9150613a8982614730565b604082019050919050565b6000613aa16023836141a3565b9150613aac8261477f565b604082019050919050565b6000613ac4602a836141a3565b9150613acf826147ce565b604082019050919050565b6000613ae76020836141a3565b9150613af28261481d565b602082019050919050565b6000613b0a6021836141a3565b9150613b1582614846565b604082019050919050565b6000613b2d6022836141a3565b9150613b3882614895565b604082019050919050565b6000613b506029836141a3565b9150613b5b826148e4565b604082019050919050565b6000613b736029836141a3565b9150613b7e82614933565b604082019050919050565b6000613b966028836141a3565b9150613ba182614982565b604082019050919050565b6000613bb96021836141a3565b9150613bc4826149d1565b604082019050919050565b613bd8816142ba565b82525050565b613be7816142ba565b82525050565b6000602082019050613c026000830184613848565b92915050565b6000604082019050613c1d6000830185613839565b613c2a6020830184613bde565b9392505050565b600060a082019050613c466000830188613848565b613c536020830187613848565b8181036040830152613c658186613857565b90508181036060830152613c798185613857565b90508181036080830152613c8d81846138c4565b90509695505050505050565b6000606082019050613cae6000830186613848565b613cbb6020830185613848565b613cc86040830184613bde565b949350505050565b600060a082019050613ce56000830188613848565b613cf26020830187613848565b613cff6040830186613bde565b613d0c6060830185613bde565b8181036080830152613d1e81846138c4565b90509695505050505050565b60006020820190508181036000830152613d448184613857565b905092915050565b60006040820190508181036000830152613d668185613857565b90508181036020830152613d7a8184613857565b90509392505050565b6000602082019050613d9860008301846138b5565b92915050565b60006020820190508181036000830152613db881846138fd565b905092915050565b60006020820190508181036000830152613dd981613936565b9050919050565b60006020820190508181036000830152613df981613959565b9050919050565b60006020820190508181036000830152613e198161397c565b9050919050565b60006020820190508181036000830152613e398161399f565b9050919050565b60006020820190508181036000830152613e59816139c2565b9050919050565b60006020820190508181036000830152613e79816139e5565b9050919050565b60006020820190508181036000830152613e9981613a08565b9050919050565b60006020820190508181036000830152613eb981613a2b565b9050919050565b60006020820190508181036000830152613ed981613a4e565b9050919050565b60006020820190508181036000830152613ef981613a71565b9050919050565b60006020820190508181036000830152613f1981613a94565b9050919050565b60006020820190508181036000830152613f3981613ab7565b9050919050565b60006020820190508181036000830152613f5981613ada565b9050919050565b60006020820190508181036000830152613f7981613afd565b9050919050565b60006020820190508181036000830152613f9981613b20565b9050919050565b60006020820190508181036000830152613fb981613b43565b9050919050565b60006020820190508181036000830152613fd981613b66565b9050919050565b60006020820190508181036000830152613ff981613b89565b9050919050565b6000602082019050818103600083015261401981613bac565b9050919050565b60006020820190506140356000830184613bde565b92915050565b60006040820190506140506000830185613bde565b61405d6020830184613bde565b9392505050565b600061406e61407f565b905061407a828261436e565b919050565b6000604051905090565b600067ffffffffffffffff8211156140a4576140a3614446565b5b602082029050602081019050919050565b600067ffffffffffffffff8211156140d0576140cf614446565b5b602082029050602081019050919050565b600067ffffffffffffffff8211156140fc576140fb614446565b5b61410582614497565b9050602081019050919050565b600067ffffffffffffffff82111561412d5761412c614446565b5b61413682614497565b9050602081019050919050565b6000819050602082019050919050565b600081519050919050565b600081519050919050565b600081519050919050565b6000602082019050919050565b600082825260208201905092915050565b600082825260208201905092915050565b600082825260208201905092915050565b60006141bf826142ba565b91506141ca836142ba565b9250827fffffffffffffffffffffffffffffffffffffffffffffffffffffffffffffffff038211156141ff576141fe6143e8565b5b828201905092915050565b6000614215826142ba565b9150614220836142ba565b925082821015614233576142326143e8565b5b828203905092915050565b60006142498261429a565b9050919050565b600061425b8261429a565b9050919050565b60008115159050919050565b60007fffffffff0000000000000000000000000000000000000000000000000000000082169050919050565b600073ffffffffffffffffffffffffffffffffffffffff82169050919050565b6000819050919050565b60006142cf826142d6565b9050919050565b60006142e1826142e8565b9050919050565b60006142f38261429a565b9050919050565b82818337600083830152505050565b60005b8381101561432757808201518184015260208101905061430c565b83811115614336576000848401525b50505050565b6000600282049050600182168061435457607f821691505b6020821081141561436857614367614417565b5b50919050565b61437782614497565b810181811067ffffffffffffffff8211171561439657614395614446565b5b80604052505050565b60006143aa826142ba565b91507fffffffffffffffffffffffffffffffffffffffffffffffffffffffffffffffff8214156143dd576143dc6143e8565b5b600182019050919050565b7f4e487b7100000000000000000000000000000000000000000000000000000000600052601160045260246000fd5b7f4e487b7100000000000000000000000000000000000000000000000000000000600052602260045260246000fd5b7f4e487b7100000000000000000000000000000000000000000000000000000000600052604160045260246000fd5b600060033d11156144945760046000803e6144916000516144a8565b90505b90565b6000601f19601f8301169050919050565b60008160e01c9050919050565b7f455243313135353a207472616e7366657220746f206e6f6e204552433131353560008201527f526563656976657220696d706c656d656e746572000000000000000000000000602082015250565b7f455243313135353a204552433131353552656365697665722072656a6563746560008201527f6420746f6b656e73000000000000000000000000000000000000000000000000602082015250565b7f5061757361626c653a206e6f7420706175736564000000000000000000000000600082015250565b7f455243313135353a2062616c616e636520717565727920666f7220746865207a60008201527f65726f2061646472657373000000000000000000000000000000000000000000602082015250565b7f4f776e61626c653a206e6577206f776e657220697320746865207a65726f206160008201527f6464726573730000000000000000000000000000000000000000000000000000602082015250565b7f455243313135353a206275726e20616d6f756e7420657863656564732062616c60008201527f616e636500000000000000000000000000000000000000000000000000000000602082015250565b7f455243313135353a2063616c6c6572206973206e6f74206f776e6572206e6f7260008201527f20617070726f7665640000000000000000000000000000000000000000000000602082015250565b7f5061757361626c653a2070617573656400000000000000000000000000000000600082015250565b7f455243313135353a207472616e7366657220746f20746865207a65726f20616460008201527f6472657373000000000000000000000000000000000000000000000000000000602082015250565b7f455243313135353a207472616e736665722063616c6c6572206973206e6f742060008201527f6f776e6572206e6f7220617070726f7665640000000000000000000000000000602082015250565b7f455243313135353a206275726e2066726f6d20746865207a65726f206164647260008201527f6573730000000000000000000000000000000000000000000000000000000000602082015250565b7f455243313135353a20696e73756666696369656e742062616c616e636520666f60008201527f72207472616e7366657200000000000000000000000000000000000000000000602082015250565b7f4f776e61626c653a2063616c6c6572206973206e6f7420746865206f776e6572600082015250565b7f496d67546f6b656e236465706f7369743a205452414e534645525f4641494c4560008201527f4400000000000000000000000000000000000000000000000000000000000000602082015250565b7f496d67546f6b656e2377697468647261773a205452414e534645525f4641494c60008201527f4544000000000000000000000000000000000000000000000000000000000000602082015250565b7f455243313135353a2073657474696e6720617070726f76616c2073746174757360008201527f20666f722073656c660000000000000000000000000000000000000000000000602082015250565b7f455243313135353a206163636f756e747320616e6420696473206c656e67746860008201527f206d69736d617463680000000000000000000000000000000000000000000000602082015250565b7f455243313135353a2069647320616e6420616d6f756e7473206c656e6774682060008201527f6d69736d61746368000000000000000000000000000000000000000000000000602082015250565b7f455243313135353a206d696e7420746f20746865207a65726f2061646472657360008201527f7300000000000000000000000000000000000000000000000000000000000000602082015250565b600060443d1015614a3057614ab3565b614a3861407f565b60043d036004823e80513d602482011167ffffffffffffffff82111715614a60575050614ab3565b808201805167ffffffffffffffff811115614a7e5750505050614ab3565b80602083010160043d038501811115614a9b575050505050614ab3565b614aaa8260200185018661436e565b82955050505050505b90565b614abf8161423e565b8114614aca57600080fd5b50565b614ad681614250565b8114614ae157600080fd5b50565b614aed81614262565b8114614af857600080fd5b50565b614b048161426e565b8114614b0f57600080fd5b50565b614b1b816142ba565b8114614b2657600080fd5b5056fea26469706673582212203903b1bda350492c2fa958ea0dede081ee46ef6bf15a603f72881d9540743c2b64736f6c63430008040033",
  "linkReferences": {},
  "deployedLinkReferences": {}
}